:100000000C942D000C9490080C94A5090C94A5094F
:100010000C94A5090C94A5090C94A5090C949F09AE
:100020000C94A5090C94A5090C94A5090C94A50998
:100030000C94A5090C94A5090C94A5090C94A50988
:100040000C94A5090C94A5090C94A5090C94A50978
:100050000C94A509006006A9800011241FBECFE5FD
:10006000D8E0DEBFCDBFE4E5F0E040E017C0B591D9
:10007000A59135912591059107FD0CC0959185912C
:10008000EF01F92FE82F05900D92A217B307D9F7CA
:10009000FE0104C01D92A217B307E1F7E935F4078A
:0E00A00031F70E94E2080C948109F894FFCF1A
:0600AE0049444C4500032B
:1000B4000F931F93CF93DF938091A106811101C108
:1000C400C0919906D0919A068E010F5F1F4F10932D
:1000D4009A060093990601151105B9F480919D06BD
:1000E40090919E0620919B0630919C0630939E062B
:1000F40020939D0690939C0680939B068091A30673
:100104008F5F8093A3060E942F098091950690919A
:1001140096060817190720F480E0B8C081E001C0F2
:1001240080E0E0919D06F0919E069081911107C0B8
:100134002FEF3FEF3093960620939506A7C0E091EA
:100144009D06F0919E060580F681E02D0680F781DC
:10015400E02D228133810217130728F43093960689
:100164002093950693C0A285B38524813581468169
:100174005781E9015D834C83268137814481558110
:10018400E9015B834A8311962D913C911297AF014B
:100194004E5F5F4F2417350731F42681378112965D
:1001A4003C932E931197138612869C9191509C93A5
:1001B400A489B589109719F12685378560897189D5
:1001C400E9017D836C832089318966857785E9011E
:1001D4007B836A8311966D917C9112979F01245FB2
:1001E4003F4F6217730731F42089318912963C938B
:1001F4002E931197158A148A9C9191509C93268969
:100204009091A606921710F42093A60630E0D90127
:10021400AA0FBB1FAA0FBB1FAA0FBB1F2A0F3B1F8E
:10022400D901A25CB94F11960D90BC91A02DB58354
:10023400A48314962D913C911597378326831496A5
:100244002D913C911597E9015B834A8315965C9344
:100254004E931497A689B0E09D01220F331F220FFD
:10026400331F220F331FA20FB31FA25CB94FB387F2
:10027400A2879C919F5F9C932689E0919F06F091B1
:10028400A0069689921708F449CF4BCFE0919F06B8
:10029400F091A006268930E0F901EE0FFF1FEE0F62
:1002A400FF1FEE0FFF1F2E0F3F1FF901E25CF94FF6
:1002B4009081923008F081E09091A40691110CC0D5
:1002C4000CC0809197069091980601969093980699
:1002D4008093970680E001C081E0DF91CF911F9168
:0402E4000F910895D9
:1002E800CF93DF930FB6F8940F928091A1068150B7
:1002F8008093A1068091A1068111BFC08091A706B5
:10030800811196C0BDC0E0917906F0917A06068009
:10031800F781E02DA489B589C685D785808991891B
:100328009D838C83C089D189868597859B838A83A1
:1003380011962D913C911297CF010C9628173907E9
:1003480031F48089918912969C938E931197158A1E
:10035800148A8C9181508C93A285B385C481D581F0
:10036800868197819D838C83C681D781848195817D
:100378009B838A8311968D919C9112979F012E5F82
:100388003F4F8217930731F48681978112969C9389
:100398008E931197138612868C9181508C9386893F
:1003A8009091A606981710F48093A60690E0DC01B9
:1003B800AA0FBB1FAA0FBB1FAA0FBB1F8A0F9B1F29
:1003C800DC01A25CB94F11960D90BC91A02DB583AC
:1003D800A48314968D919C91159797838683149680
:1003E800CD91DC9115973B832A8315963C932E93E8
:1003F8001497A689B0E0CD01880F991F880F991F1F
:10040800880F991FA80FB91FA25CB94FB387A2879D
:100418008C918F5F8C939689A0919F06B091A006CE
:1004280056968C91981730F081E08093A40602C00C
:10043800E0E0F0E080917406811165CFEF2B11F0B8
:100448000E942F09C0919706D0919806209769F0CD
:100458000E945A00882319F081E08093A40621970E
:10046800B9F710929806109297068091A4068823EF
:1004780031F00E94400681E003C080E001C080E0C6
:0A0488000F900FBEDF91CF91089591
:100492000F931F93CF93DF93DC01E62FF0E0EC0183
:1004A200CE0FDF1F8DA192E09DA3EE0FFF1FEE0F77
:1004B200FF1FEA0FFB1F01A112A123A134A10F5FAD
:1004C2001F4F2F4F3F4F01A312A323A334A3813009
:1004D20009F0A3C08091A10681116DC01A96ED9119
:1004E200FC911B971496CD91DC91159716968D91E0
:1004F2009C9117979D838C831696CD91DC911797CB
:1005020014968D919C9115979B838A838181928108
:100512009D012E5F3F4F8217930731F416968D91FE
:100522009C911797928381831B961C921E921A9715
:1005320080818150808356968C9156979091A60621
:10054200981710F48093A60690E0FC01EE0FFF1FAF
:10055200EE0FFF1FEE0FFF1F8E0F9F1FFC01E25CCD
:10056200F94F0180F281E02D1596FC93EE931497DA
:100572008481958117969C938E931697C481D58119
:100582003B832A83358324835696EC915697F0E079
:10059200CF01880F991F880F991F880F991FE80FA5
:1005A200F91FE25CF94F1B96FC93EE931A97808138
:1005B2008F5F808320C064E776E0FB01C181D28136
:1005C2001F96DC93CE931E978C819D8151969C93AE
:1005D2008E9350972C813D81CD010C96F901938326
:1005E20082839D838C8355967C936E935497FB01F3
:1005F20080818F5F808356969C91E0919F06F09157
:10060200A0068689891748F44115510519F081E041
:10061200FA01808381E08093A406DF91CF911F913C
:040622000F91089597
:10062600CF92DF92EF92FF921F93CF93DF93162F15
:100636000FB6F8940F92E0919F06F091A006C82F8E
:10064600D0E09E01220F331F220F331FE20FF31F4C
:10065600C1A0D2A0E3A0F4A0CD28CE28CF2889F44B
:10066600E0919F06F091A006EC0FFD1F81E085A3A7
:100676004115510531F061E0CA010E9496030E94BE
:1006860040060F900FBE0FB6F8940F92E0919F06AA
:10069600F091A006CE01880F991F880F991FE80FC9
:1006A600F91F61A172A183A194A16115710581054C
:1006B600910541F1112381F0E0919F06F091A0068A
:1006C6009E01220F331F220F331FE20FF31F11A2C9
:1006D60012A213A214A216C0E0919F06F091A006E2
:1006E6009E01220F331F220F331FE20FF31F6B01F0
:1006F6007C0121E0C21AD108E108F108C1A2D2A208
:10070600E3A2F4A220919F063091A006C20FD31F48
:100716001DA20F900FBEDF91CF911F91FF90EF901A
:06072600DF90CF90089562
:10072C00FF920F931F93CF93DF93EC01F62E009162
:10073C00990610919A0680919F069091A0060296B8
:10074C000E94BB08CF3F8FEFD807B1F5FF20A1F176
:10075C00E2E6F6E0A181B281C0919F06D091A0069D
:10076C00BD83AC83C0919F06D091A00614968D9149
:10077C009C9115979F838E831496CD91DC91159740
:10078C0080919F069091A00602969B838A8380910C
:10079C009F069091A006029615969C938E931497A3
:1007AC00A0919F06B091A0061B96FC93EE931A970E
:1007BC0080818F5F80832FC0C00FD11FE0919F0677
:1007CC00F091A006D383C283C017D10768F460915F
:1007DC009F067091A00680919B0690919C066E5F7F
:1007EC007F4F0E94010817C060919F067091A00670
:1007FC0080919D0690919E066E5F7F4F0E9401082E
:10080C008091950690919606C817D90720F4D0933D
:10081C009606C0939506DF91CF911F910F91FF9093
:02082C0008952D
:10082E00CF93DF93EC010FB6F8940F928091A70649
:10083E008F5F8093A70680919F069091A006892BCB
:10084E0059F4D093A006C0939F068091A7068130DD
:10085E0099F40E94620710C08091A50681110CC008
:10086E00E0919F06F091A00696898E89891720F057
:10087E00D093A006C0939F068091A2068F5F8093AF
:10088E00A2068E899091A606981710F48093A6065C
:10089E0090E0FC01EE0FFF1FEE0FFF1FEE0FFF1F8C
:1008AE008E0F9F1FFC01E25CF94F0180F281E02D5B
:1008BE00FD83EC83848195819F838E83A481B58192
:1008CE00CE01029613969C938E93129795838483F2
:1008DE00EE89F0E0CF01880F991F880F991F880FBE
:1008EE00991FE80FF91FE25CF94FFB87EA878081B9
:1008FE008F5F80830F900FBE8091A506882351F0E5
:10090E00E0919F06F091A00696898E89981710F4B3
:0A091E000E944006DF91CF9108957A
:100928006F927F928F929F92AF92BF92CF92DF92F7
:10093800EF92FF920F931F93CF93DF93CDB7DEB75C
:100948003C01A62FCA01F4014789508D01501109B5
:10095800040F151F0097A105D1F41EC0272F30E002
:10096800AC016A2F420F531F611D37FD6A95FA01CA
:10097800B49167FDB081F401E20FF31FB18FFA0162
:10098800249167FD2081222329F07F5F01C070E058
:10099800783020F3F40110A2F3E0FC1520F40F2EB8
:1009A800F3E0CF2EF02DF401C68AC40102960E940E
:1009B8009B09C4010C960E949B09F40191868086CC
:1009C80084E090E08C19910995878487938A828ABC
:1009D800A701B301C8010E947805F40191838083BF
:1009E800A114B10419F0F50191828082DF91CF91B1
:1009F8001F910F91FF90EF90DF90CF90BF90AF9035
:0A0A08009F908F907F906F900895EB
:100A12004F925F926F927F928F929F92AF92BF920C
:100A2200CF92DF92EF92FF920F931F93CF93DF93B8
:100A320000D000D00F92CDB7DEB73C0149835A8374
:100A42006B8349012801C9010E9428078C01892B67
:100A5200B9F086E290E00E9428079D838C83892B5F
:100A620059F086E2EC81FD8111928A95E9F7EC81D9
:100A7200FD81108F078B06C0C8010E94A90902C020
:100A82001D821C828C819D81892BD1F0840120E002
:100A920030E01F921F921F928C809D805601CE2CB7
:100AA200720149815A816B81C3010E9494048C8135
:100AB2009D810E9417040F900F900F9081E001C05A
:100AC2008FEF0F900F900F900F900F90DF91CF91BB
:100AD2001F910F91FF90EF90DF90CF90BF90AF905A
:0E0AE2009F908F907F906F905F904F9008953F
:100AF00031E1FC013083319722E220833197A3E377
:100B0000A08331976083319770833197108231973A
:100B100060E8608331971082319762E0608331979B
:100B200063E06083319764E06083319765E06083C0
:100B3000319766E06083319767E06083319768E0C2
:100B40006083319769E06083319760E1608331971A
:100B50003083319732E13083319733E130833197FD
:100B600034E13083319735E13083319736E130839A
:100B7000319737E13083319738E13083319739E16C
:100B80003083319730E23083319731E230833197CF
:100B90002083319723E2208331974083319750831C
:100BA000319726E22083319727E22083319728E28C
:100BB0002083319729E22083319720E320833197E6
:080BC00021E3208386970895CC
:100BC8000F920FB6F8940F921F9211242F923F9212
:100BD8004F925F926F927F928F929F92AF92BF9245
:100BE800CF92DF92EF92FF920F931F932F933F9331
:100BF8004F935F936F937F938F939F93AF93BF931D
:100C0800CF93DF93EF93FF93A0919F06B091A00637
:100C18000DB60D920EB60D920E945A0081110E94D7
:100C28009906A0919F06B091A006CD91CDBFDD9108
:100C3800DEBFFF91EF91DF91CF91BF91AF919F916F
:100C48008F917F916F915F914F913F912F911F915C
:100C58000F91FF90EF90DF90CF90BF90AF909F9053
:100C68008F907F906F905F904F903F902F901F9044
:080C78000F900FBE0F900895CC
:100C80000F920FB6F8940F921F9211242F923F9259
:100C90004F925F926F927F928F929F92AF92BF928C
:100CA000CF92DF92EF92FF920F931F932F933F9378
:100CB0004F935F936F937F938F939F93AF93BF9364
:100CC000CF93DF93EF93FF93A0919F06B091A0067F
:100CD0000DB60D920EB60D920E949906A0919F0638
:100CE000B091A006CD91CDBFDD91DEBFFF91EF9118
:100CF000DF91CF91BF91AF919F918F917F916F9134
:100D00005F914F913F912F911F910F91FF90EF9025
:100D1000DF90CF90BF90AF909F908F907F906F901B
:100D20005F904F903F902F901F900F900FBE0F90AD
:020D3000089524
:100D32008091A106882321F081E08093A406089582
:100D42001092A4062091A60601C02150822F90E0A5
:100D5200FC01EE0FFF1FEE0FFF1FEE0FFF1FE80F4C
:100D6200F91FE25CF94F3081332379F3AC01440F70
:100D7200551F440F551F440F551F480F591FDF01C0
:100D82000180F281E02D0280F381E02D1296FC9326
:100D9200EE9311974F5B594FE417F50729F44281FF
:100DA2005381FD0152834183FC01EE0FFF1FEE0FC1
:100DB200FF1FEE0FFF1F8E0F9F1FFC01E25CF94F1A
:100DC2000180F281E02D868197819093A006809325
:080DD2009F062093A606089578
:100DDA008FE087BB80EF8ABB2FEF83EF91E0215032
:100DEA0080409040E1F700C0000088E20E94CD07F1
:100DFA0025ED2A95F1F7000082E00E94CD078FE3E6
:100E0A009FE10197F1F700C0000086E00E94CD073C
:100E1A0095ED9A95F1F700008FE00E94CD0784E1E5
:100E2A000E94CD0725ED2A95F1F7000081E00E9486
:100E3A00CD078FEF93EC29E0815090402040E1F7F5
:060E4A0000C00000089545
:100E5000CF93DF93EC010E94950980918F069091CA
:100E60009006892B31F482E690E09093900680936F
:100E70008F062097C9F080919106909192069E016D
:100E8000280F391F2B3D45E0340788F4821793075C
:100E900088F4C0918F06D0919006C80FD91F309367
:100EA00092062093910608C0C0E0D0E005C0C0E0E3
:100EB000D0E002C0C0E0D0E00E947401CE01DF911A
:040EC000CF91089531
:100EC400CF93C0E010C08C2F90E09C01220F331F01
:100ED400220F331F220F331F820F931F825C994FFF
:100EE4000E944B09CF5FC43070F386E896E00E94FD
:100EF4004B098DE796E00E944B0984E796E00E9437
:100F04004B098BE696E00E944B0982E696E00E942C
:100F14004B0986E896E090939E0680939D068DE7A4
:0E0F240096E090939C0680939B06CF910895D3
:100F32009BB39F70282F207F922B9BBB98B392600C
:100F420098BB98B39B7F98BB98B3986098BBEFE926
:100F5200FFE03197F1F700C0000098B3977F98BB8C
:100F62002BB3F0E18F9FC0011124922F9F70892B28
:100F72008BBB88B3826088BB88B38B7F88BB88B306
:100F8200886088BB8FE99FE00197F1F700C00000FD
:080F920088B3877F88BB089536
:100F9A009BB39F70282F207F922B9BBB98B39D7F7A
:100FAA0098BB98B39B7F98BB98B3986098BBEFE9BE
:100FBA00FFE03197F1F700C0000098B3977F98BB24
:100FCA002BB3F0E18F9FC0011124922F9F70892BC0
:100FDA008BBB88B38D7F88BB88B38B7F88BB88B374
:100FEA00886088BB8FE99FE00197F1F700C0000095
:080FFA0088B3877F88BB0895CE
:10100200CF93DF93EB01488159814F3F2FEF520776
:1010120021F4FC01A781B0850DC0DC01139601C04B
:10102200DF011296ED91FC911397208131814217D5
:101032005307B0F71296ED91FC911397FB83EA8365
:10104200D583C483BD83AC831396DC93CE9312976E
:1010520099878887FC0120812F5F2083DF91CF91C0
:021062000895EF
:101064000E948C09A0919F06B091A006CD91CDBF9E
:10107400DD91DEBFFF91EF91DF91CF91BF91AF91F1
:101084009F918F917F916F915F914F913F912F919C
:101094001F910F91FF90EF90DF90CF90BF90AF9092
:1010A4009F908F907F906F905F904F903F902F9084
:0E10B4001F900F900FBE0F90089581E00895D9
:1010C200CF92DF92EF920F931F930F2EF3E9CF2E61
:1010D200F6E0DF2EF02DE12C00E010E025E530E017
:1010E2004EEA50E060E082EA99E00E940905813010
:1010F20081F4F8948FEF9FEF909396068093950674
:1011020081E08093A50610929A06109299060E9499
:0E11120032081F910F91EF90DF90CF9008955B
:101120001F920F920FB60F9211242F933F934F935C
:101130005F936F937F938F939F93AF93BF93EF933F
:10114000FF9340E050E060E080916000909161008A
:101150000E944902FF91EF91BF91AF919F918F91B2
:101160007F916F915F914F913F912F910F900FBEA3
:061170000F901F9018957E
:10117600CF93DF93FC01A085B185C281D3818481A1
:1011860095819D838C83C481D581828193819B8344
:101196008A8311968D919C911297E817F90731F47D
:1011A6008481958112969C938E9311971186108651
:0E11B6008C9181508C938C91DF91CF91089594
:1011C400CF92DF92EF920F931F930E94ED060E943D
:1011D40067090F2EF0E6CF2EF0E0DF2EF02D689495
:1011E400EE24E1F800E010E020E530E040E050E0DB
:1011F40060E089E599E00E9409050E94610880E0A9
:0E12040090E01F910F91EF90DF90CF90089532
:10121200CF93DF931CC00FB6F8940F92E091700643
:10122200F0917106C681D781CE0102960E94BB0859
:101232008091A70681508093A7068091A8068150CD
:101242008093A8060F900FBECE010E947409809170
:0C125200A8068111E0CFDF91CF91089534
:10125E00E0919D06F0919E068081811107C08FEF6F
:10126E009FEF90939606809395060895E0919D06C4
:10127E00F0919E060580F681E02D808191819093FC
:08128E00960680939506089571
:10129600FC010396928381832FEF3FEF34832383F0
:0C12A600968385839087878310820895CB
:1012B20040E050E061E080E00E941303672B682B5E
:0C12C200692BB1F388E40E949907F2CF79
:1012CE0085B7826085BF85B78E7F85BF8FB78068F3
:0A12DE008FBF8BB780648BBF0895AB
:1012E800CF93DF93EC018F89988D0E94A909CE01D5
:0A12F8000E94A909DF91CF9108952B
:10130200EC010E94AB090E94AA09CE010E94AC091D
:06131200CE010E94A709B4
:101318001BBC89EF8ABD8BE08EBD89B7806189BF10
:02132800089526
:0C132A008091A1068F5F8093A1060895BA
:08133600FC01118610860895E8
:06133E000E94E405189571
:061344000E940909FDCF23
:04134A000C940000FF
:04134E000E945500A4
:021352000895FC
:021354000895FA
:021356000895F8
:021358000895F6
:00000001FF
