:100000000C942D000C94560C0C94560C0C94560C1D
:100010000C94560C0C94560C0C94560C0C944D0CE1
:100020000C94560C0C94560C0C94560C0C94560CC8
:100030000C94560C0C94560C0C94560C0C94560CB8
:100040000C94560C0C94560C0C94560C0C94560CA8
:100050000C94560C006006A9800011241FBECFE549
:10006000D8E0DEBFCDBFE4E5F0E040E017C0B591D9
:10007000A59135912591059107FD0CC0959185912C
:10008000EF01F92FE82F05900D92A217B307D9F7CA
:10009000FE0104C01D92A217B307E1F7E935F4078A
:0E00A00031F70E94E8090C94230CF894FFCF6E
:1000AE005461736B2031005461736B2032005461C4
:0A00BE00736B31005461736B320064
:0600C80049444C45000311
:1000CE000F931F93CF93DF938091A106811101C1EE
:1000DE00C0919906D0919A068E010F5F1F4F109313
:1000EE009A060093990601151105B9F480919D06A3
:1000FE0090919E0620919B0630919C0630939E0611
:10010E0020939D0690939C0680939B068091A30658
:10011E008F5F8093A3060E94340B80919506909179
:10012E0096060817190720F480E0B8C081E001C0D8
:10013E0080E0E0919D06F0919E069081911107C09E
:10014E002FEF3FEF3093960620939506A7C0E091D0
:10015E009D06F0919E060580F681E02D0680F781C2
:10016E00E02D228133810217130728F4309396066F
:10017E002093950693C0A285B3852481358146814F
:10018E005781E9015D834C832681378144815581F6
:10019E00E9015B834A8311962D913C911297AF0131
:1001AE004E5F5F4F2417350731F426813781129643
:1001BE003C932E931197138612869C9191509C938B
:1001CE00A489B589109719F12685378560897189BB
:1001DE00E9017D836C832089318966857785E90104
:1001EE007B836A8311966D917C9112979F01245F98
:1001FE003F4F6217730731F42089318912963C9371
:10020E002E931197158A148A9C9191509C9326894E
:10021E009091A606921710F42093A60630E0D9010D
:10022E00AA0FBB1FAA0FBB1FAA0FBB1F2A0F3B1F74
:10023E00D901A25CB94F11960D90BC91A02DB5833A
:10024E00A48314962D913C9115973783268314968B
:10025E002D913C911597E9015B834A8315965C932A
:10026E004E931497A689B0E09D01220F331F220FE3
:10027E00331F220F331FA20FB31FA25CB94FB387D8
:10028E00A2879C919F5F9C932689E0919F06F09197
:10029E00A0069689921708F449CF4BCFE0919F069E
:1002AE00F091A006268930E0F901EE0FFF1FEE0F48
:1002BE00FF1FEE0FFF1F2E0F3F1FF901E25CF94FDC
:1002CE009081923008F081E09091A40691110CC0BB
:1002DE000CC080919706909198060196909398067F
:1002EE008093970680E001C081E0DF91CF911F914E
:0402FE000F910895BF
:10030200CF93DF930FB6F8940F928091A10681509C
:100312008093A1068091A1068111BFC08091A7069A
:10032200811196C0BDC0E0917906F0917A060680EF
:10033200F781E02DA489B589C685D7858089918901
:100342009D838C83C089D189868597859B838A8387
:1003520011962D913C911297CF010C9628173907CF
:1003620031F48089918912969C938E931197158A04
:10037200148A8C9181508C93A285B385C481D581D6
:10038200868197819D838C83C681D7818481958163
:100392009B838A8311968D919C9112979F012E5F68
:1003A2003F4F8217930731F48681978112969C936F
:1003B2008E931197138612868C9181508C93868925
:1003C2009091A606981710F48093A60690E0DC019F
:1003D200AA0FBB1FAA0FBB1FAA0FBB1F8A0F9B1F0F
:1003E200DC01A25CB94F11960D90BC91A02DB58392
:1003F200A48314968D919C91159797838683149666
:10040200CD91DC9115973B832A8315963C932E93CD
:100412001497A689B0E0CD01880F991F880F991F04
:10042200880F991FA80FB91FA25CB94FB387A28783
:100432008C918F5F8C939689A0919F06B091A006B4
:1004420056968C91981730F081E08093A40602C0F2
:10045200E0E0F0E080917406811165CFEF2B11F09E
:100462000E94340BC0919706D0919806209769F0AC
:100472000E946700882319F081E08093A4062197E7
:10048200B9F710929806109297068091A4068823D5
:1004920031F00E94CD0681E003C080E001C080E01F
:0A04A2000F900FBEDF91CF91089577
:1004AC00CF93DF93A82FCB010596A11DFC015A2FEA
:1004BC000E94370CDB011696ED91FC911797A489DD
:1004CC00B589C685D785808991899D838C83C089A0
:1004DC00D189868597859B838A8311968D919C9172
:1004EC0012979F01245F3F4F8217930731F4808945
:1004FC00918912969C938E931197158A148A8C91DC
:10050C0081508C938091A106811160C0A285B38526
:10051C00C481D581868197819D838C83C681D78147
:10052C00848195819B838A8311968D919C911297DE
:10053C009F012E5F3F4F8217930731F4868197817D
:10054C0012969C938E931197138612868C918150E0
:10055C008C9386899091A606981710F48093A60622
:10056C0090E0DC01AA0FBB1FAA0FBB1FAA0FBB1F79
:10057C008A0F9B1FDC01A25CB94F11960D90BC91A8
:10058C00A02DB583A48314968D919C911597978378
:10059C0086831496CD91DC9115973B832A8315960F
:1005AC003C932E931497A689B0E0CD01880F991F28
:1005BC00880F991F880F991FA80FB91FA25CB94FFC
:1005CC00B387A2878C918F5F8C931CC044E756E055
:1005DC00DA011196CD91DC911297D787C6878C8161
:1005EC009D81918B808B8C819D81DC0113963C933A
:1005FC002E9312973D832C83558B448BDA018C916F
:10060C008F5F8C939689E0919F06F091A006868966
:10061C00891720F481E08093A40601C080E0DF916B
:04062C00CF910895CD
:100630006F927F928F92EF92FF920F931F93CF93BF
:10064000DF9300D000D00F92CDB7DEB77C013A0126
:10065000862E3D832C8310E00FB6F8940F92F7019D
:10066000928D838D981710F0023081F5F701128D6D
:10067000202F682DA301C7010E94C607F701278D0F
:1006800030A1232B69F0023011F411111BC0B70106
:1006900080E80E947A078823A9F00E94CD0612C044
:1006A000F7019189992359F0B7016F5E7F4F80E878
:1006B0000E945602882331F00E94CD0603C08111AA
:1006C0000E94CD060F900FBE81E04DC08C819D81B0
:1006D000892B21F40F900FBE80E045C0111105C099
:1006E000CE0101960E94180C11E00F900FBE0E94DF
:1006F0003F0C0FB6F8940F92F701858D8F3F09F4E8
:10070000158EF701868D8F3F09F4168E0F900FBE60
:10071000BE016C5F7F4FCE0101960E94950881114A
:100720001CC0B70180E80E94180B882381F06C81FF
:100730007D81C70108960E94DD0BC7010E940F084A
:100740000E948101811188CF0E94CD0685CFC7010B
:100750000E940F080E9481017FCFC7010E940F08ED
:100760000E94810180E00F900F900F900F900F90EA
:10077000DF91CF911F910F91FF90EF908F907F901D
:040780006F900895D9
:10078400FF920F931F93CF93DF93EC01F62E00910A
:10079400990610919A0680919F069091A006029660
:1007A4000E94AA0ACF3F8FEFD807B1F5FF20A1F12D
:1007B400E2E6F6E0A181B281C0919F06D091A00645
:1007C400BD83AC83C0919F06D091A00614968D91F1
:1007D4009C9115979F838E831496CD91DC911597E8
:1007E40080919F069091A00602969B838A838091B4
:1007F4009F069091A006029615969C938E9314974B
:10080400A0919F06B091A0061B96FC93EE931A97B5
:1008140080818F5F80832FC0C00FD11FE0919F061E
:10082400F091A006D383C283C017D10768F4609106
:100834009F067091A00680919B0690919C066E5F26
:100844007F4F0E941B0A17C060919F067091A006FB
:1008540080919D0690919E066E5F7F4F0E941B0AB9
:100864008091950690919606C817D90720F4D093E5
:100874009606C0939506DF91CF911F910F91FF903B
:020884000895D5
:10088600CF93DF93EC010FB6F8940F928091A706F1
:100896008F5F8093A70680919F069091A006892B73
:1008A60059F4D093A006C0939F068091A706813085
:1008B60099F40E94490910C08091A50681110CC0C7
:1008C600E0919F06F091A00696898E89891720F0FF
:1008D600D093A006C0939F068091A2068F5F809357
:1008E600A2068E899091A606981710F48093A60604
:1008F60090E0FC01EE0FFF1FEE0FFF1FEE0FFF1F34
:100906008E0F9F1FFC01E25CF94F0180F281E02D02
:10091600FD83EC83848195819F838E83A481B58139
:10092600CE01029613969C938E9312979583848399
:10093600EE89F0E0CF01880F991F880F991F880F65
:10094600991FE80FF91FE25CF94FFB87EA87808160
:100956008F5F80830F900FBE8091A506882351F08C
:10096600E0919F06F091A00696898E89981710F45B
:0A0976000E94CD06DF91CF91089595
:100980006F927F928F929F92AF92BF92CF92DF929F
:10099000EF92FF920F931F93CF93DF93CDB7DEB704
:1009A0003C01A62FCA01F4014789508D015011095D
:1009B000040F151F0097A105D1F41EC0272F30E0AA
:1009C000AC016A2F420F531F611D37FD6A95FA0172
:1009D000B49167FDB081F401E20FF31FB18FFA010A
:1009E000249167FD2081222329F07F5F01C070E000
:1009F000783020F3F40110A2F3E0FC1520F40F2E60
:100A0000F3E0CF2EF02DF401C68AC40102960E94B5
:100A1000450CC4010C960E94450CF4019186808619
:100A200084E090E08C19910995878487938A828A63
:100A3000A701B301C8010E94A405F401918380833A
:100A4000A114B10419F0F50191828082DF91CF9158
:100A50001F910F91FF90EF90DF90CF90BF90AF90DC
:0A0A60009F908F907F906F90089593
:100A6A004F925F926F927F928F929F92AF92BF92B4
:100A7A00CF92DF92EF92FF920F931F93CF93DF9360
:100A8A0000D000D00F92CDB7DEB73C0149835A831C
:100A9A006B8349012801C9010E940F098C01892B26
:100AAA00B9F086E290E00E940F099D838C83892B1E
:100ABA0059F086E2EC81FD8111928A95E9F7EC8181
:100ACA00FD81108F078B06C0C8010E945A0C02C014
:100ADA001D821C828C819D81892BD1F0840120E0AA
:100AEA0030E01F921F921F928C809D805601CE2C5F
:100AFA00720149815A816B81C3010E94C0048C81B1
:100B0A009D810E9443040F900F900F9081E001C0D5
:100B1A008FEF0F900F900F900F900F90DF91CF9162
:100B2A001F910F91FF90EF90DF90CF90BF90AF9001
:0E0B3A009F908F907F906F905F904F900895E6
:100B480031E1FC013083319722E220833197A3E31E
:100B5800A0833197608331977083319710823197E2
:100B680060E8608331971082319762E06083319743
:100B780063E06083319764E06083319765E0608368
:100B8800319766E06083319767E06083319768E06A
:100B98006083319769E06083319760E160833197C2
:100BA8003083319732E13083319733E130833197A5
:100BB80034E13083319735E13083319736E1308342
:100BC800319737E13083319738E13083319739E114
:100BD8003083319730E23083319731E23083319777
:100BE8002083319723E220833197408331975083C4
:100BF800319726E22083319727E22083319728E234
:100C08002083319729E22083319720E3208331978D
:080C180021E320838697089573
:100C20000F931F93CF93DF93FC01362F892B09F489
:100C30004EC0238D222309F44CC0022F10E08FEF09
:100C40009FEFB8010E94C90B448D842F90E0681774
:100C5000790708F440C0EF010FB6F8940F92608155
:100C60007181FB01249FE00DF11D1124FD83EC83B4
:100C70001A8E7B836A8301501109809FA001819F96
:100C8000500D909F500D1124CB01840F951F9F8311
:100C90008E838FEF8D8F8E8F31110DC088858823C5
:100CA00091F02896BE0180E80E945602882359F0F0
:100CB0000E94CD0608C0CE0108960E94EF0BCE011F
:100CC00041960E94EF0B0F900FBE81E005C080E0BF
:100CD00003C080E001C080E0DF91CF911F910F91B0
:020CE000089575
:100CE2000F920FB6F8940F921F9211242F923F92F7
:100CF2004F925F926F927F928F929F92AF92BF922A
:100D0200CF92DF92EF92FF920F931F932F933F9315
:100D12004F935F936F937F938F939F93AF93BF9301
:100D2200CF93DF93EF93FF93A0919F06B091A0061C
:100D32000DB60D920EB60D920E94670081110E94AF
:100D42002607A0919F06B091A006CD91CDBFDD915F
:100D5200DEBFFF91EF91DF91CF91BF91AF919F9154
:100D62008F917F916F915F914F913F912F911F9141
:100D72000F91FF90EF90DF90CF90BF90AF909F9038
:100D82008F907F906F905F904F903F902F901F9029
:080D92000F900FBE0F900895B1
:100D9A000F920FB6F8940F921F9211242F923F923E
:100DAA004F925F926F927F928F929F92AF92BF9271
:100DBA00CF92DF92EF92FF920F931F932F933F935D
:100DCA004F935F936F937F938F939F93AF93BF9349
:100DDA00CF93DF93EF93FF93A0919F06B091A00664
:100DEA000DB60D920EB60D920E942607A0919F068F
:100DFA00B091A006CD91CDBFDD91DEBFFF91EF91FD
:100E0A00DF91CF91BF91AF919F918F917F916F9118
:100E1A005F914F913F912F911F910F91FF90EF900A
:100E2A00DF90CF90BF90AF909F908F907F906F9000
:100E3A005F904F903F902F901F900F900FBE0F9092
:020E4A00089509
:100E4C008091A106882321F081E08093A406089567
:100E5C001092A4062091A60601C02150822F90E08A
:100E6C00FC01EE0FFF1FEE0FFF1FEE0FFF1FE80F31
:100E7C00F91FE25CF94F3081332379F3AC01440F55
:100E8C00551F440F551F440F551F480F591FDF01A5
:100E9C000180F281E02D0280F381E02D1296FC930B
:100EAC00EE9311974F5B594FE417F50729F44281E4
:100EBC005381FD0152834183FC01EE0FFF1FEE0FA6
:100ECC00FF1FEE0FFF1F8E0F9F1FFC01E25CF94FFF
:100EDC000180F281E02D868197819093A00680930A
:080EEC009F062093A60608955D
:100EF400EF92FF920F931F93CF93DF9300D00F9243
:100F0400CDB7DEB769837A838B83A82FCB014F9645
:100F1400A11DFC015A2F0E94370CFB01928D838D79
:100F2400981718F58B01E68CAE014F5F5F4F60E8B0
:100F340020E0CF010E94C607F82EFFEFEF120DC08C
:100F4400F80181898823A9F0B8016F5E7F4F80E89A
:100F54000E94560281110BC00CC00E94530CE8166B
:100F640040F4E394F801E68E04C0F12C02C0FF249F
:100F7400F3948F2D0F900F900F90DF91CF911F91CD
:080F84000F91FF90EF9008951A
:100F8C000F931F93CF93DF93EC01022F1A8D2C8DAF
:100F9C002223B9F1011116C030E08A819B810E9495
:100FAC00830B2C8D8A819B81820F911D9B838A835D
:100FBC002C813D818217930720F1888199819B8335
:100FCC008A831FC030E08E819F810E94830B8C8DA1
:100FDC0090E09195819591092E813F81280F391FC1
:100FEC003F832E83488159812417350730F42C8197
:100FFC003D81820F931F9F838E83023011F4111158
:10100C0011501F5F1A8F80E0DF91CF911F910F91CC
:02101C00089535
:10101E001F93CF93DF93EC010FB6F8940F921E8DB2
:10102E001AC08F8D98A1892B49F0BE0180E80E94CD
:10103E007A07882379F00E94490C0CC0898988238D
:10104E0061F0BE016F5E7F4F80E80E9456028111F3
:10105E000E94490C1150111624F38FEF8E8F0F90B2
:10106E000FBE0FB6F8940F921D8D0DC08885882384
:10107E0061F0BE01685F7F4F80E80E9456028111C9
:10108E000E94490C115011168CF38FEF8D8F0F901B
:0A109E000FBEDF91CF911F9108955E
:1010A800DF92EF92FF920F931F93CF93DF93382F26
:1010B800E62F882329F1682F70E08FEF9FEF0E94B9
:1010C800C90B8E2F90E068177907E8F03E9FC001A2
:1010D80011248F3D2FEF9207C8F4D42EDE2FC32F93
:1010E80081960E940F097C01009791F08C012D2DAB
:1010F800AC014F5D5F4F6D2F8C2F0E946A0B08C0AB
:10110800E12CF12C05C0E12CF12C02C0E12CF12CD2
:10111800C701DF91CF911F910F91FF90EF90DF9062
:02112800089528
:10112A001F93CF93DF930FB6F8940F92E09199062D
:10113A00F0919A06DC0111964D915C911297DF01AC
:10114A00A41BB50BEB01288139812F3FDFEF3D0747
:10115A00F9F0EC011881C091A3061C1741F0E417BD
:10116A00F50728F0FB011182108281E012C0A21754
:10117A00B30748F4FB012A1B3B0B318320830E94EF
:10118A00180C80E006C0DB011D921C9281E001C0B0
:0E119A0080E00F900FBEDF91CF911F9108955E
:1011A8008FE087BB80EF8ABB2FEF83EF91E0215060
:1011B80080409040E1F700C0000088E20E94B40936
:1011C80025ED2A95F1F7000082E00E94B4098FE32B
:1011D8009FE10197F1F700C0000086E00E94B40982
:1011E80095ED9A95F1F700008FE00E94B40984E12B
:1011F8000E94B40925ED2A95F1F7000081E00E94CC
:10120800B4098FEF93EC29E0815090402040E1F73A
:0612180000C00000089573
:10121E00CF93DF93EC010E943F0C80918F0690914B
:10122E009006892B31F482E690E09093900680939D
:10123E008F062097C9F080919106909192069E019B
:10124E00280F391F2B3D45E0340788F4821793078A
:10125E0088F4C0918F06D0919006C80FD91F309395
:10126E0092062093910608C0C0E0D0E005C0C0E011
:10127E00D0E002C0C0E0D0E00E948101CE01DF913B
:04128E00CF9108955F
:10129200CF93C0E010C08C2F90E09C01220F331F2F
:1012A200220F331F220F331F820F931F825C994F2D
:1012B2000E94EF0BCF5FC43070F386E896E00E9485
:1012C200EF0B8DE796E00E94EF0B84E796E00E9419
:1012D200EF0B8BE696E00E94EF0B82E696E00E940F
:1012E200EF0B86E896E090939E0680939D068DE72D
:0E12F20096E090939C0680939B06CF91089502
:101300009BB39F70282F207F922B9BBB98B392603A
:1013100098BB98B39B7F98BB98B3986098BBEFE954
:10132000FFE03197F1F700C0000098B3977F98BBBA
:101330002BB3F0E18F9FC0011124922F9F70892B56
:101340008BBB88B3826088BB88B38B7F88BB88B334
:10135000886088BB8FE99FE00197F1F700C000002B
:0813600088B3877F88BB089564
:101368009BB39F70282F207F922B9BBB98B39D7FA8
:1013780098BB98B39B7F98BB98B3986098BBEFE9EC
:10138800FFE03197F1F700C0000098B3977F98BB52
:101398002BB3F0E18F9FC0011124922F9F70892BEE
:1013A8008BBB88B38D7F88BB88B38B7F88BB88B3A2
:1013B800886088BB8FE99FE00197F1F700C00000C3
:0813C80088B3877F88BB0895FC
:1013D000CF92DF92EF920F931F930E94D40843E0C5
:1013E00060E081E00E945408909361008093600067
:1013F000C12CD12C6894EE24E1F800E010E024E642
:1014000030E04CEB50E060E08DEF9BE00E94350552
:1014100024E630E042EC50E060E080E59BE00E9492
:1014200035050E947B0A80E090E01F910F91EF90BC
:06143000DF90CF9008954B
:10143600CF93DF93EB01488159814F3F2FEF52073E
:1014460021F4FC01A781B0850DC0DC01139601C013
:10145600DF011296ED91FC9113972081318142179D
:101466005307B0F71296ED91FC911397FB83EA832D
:10147600D583C483BD83AC831396DC93CE93129736
:1014860099878887FC0120812F5F2083DF91CF9188
:021496000895B7
:101498000E942E0CA0919F06B091A006CD91CDBFC1
:1014A800DD91DEBFFF91EF91DF91CF91BF91AF91B9
:1014B8009F918F917F916F915F914F913F912F9164
:1014C8001F910F91FF90EF90DF90CF90BF90AF905A
:1014D8009F908F907F906F905F904F903F902F904C
:0E14E8001F900F900FBE0F90089581E00895A1
:1014F600CF92DF92EF920F931F930F2EF3E9CF2E29
:10150600F6E0DF2EF02DE12C00E010E025E530E0DE
:1015160048EC50E060E080E59CE00E9435058130B3
:1015260081F4F8948FEF9FEF90939606809395063B
:1015360081E08093A50610929A06109299060E9461
:0E1546004C0A1F910F91EF90DF90CF90089507
:10155400CF93DF93FC01A085B185C281D3818481BF
:1015640095819D838C83C481D581828193819B8362
:101574008A8311968D919C911297E817F90731F49B
:101584008481958112969C938E931197118610866F
:0E1594008C9181508C938C91DF91CF910895B2
:1015A200CF93DF931CC00FB6F8940F92E0917006B0
:1015B200F0917106C681D781CE0102960E94AA0AD5
:1015C2008091A70681508093A7068091A80681503A
:1015D2008093A8060F900FBECE010E940B0C809143
:0C15E200A8068111E0CFDF91CF910895A1
:1015EE00CF92DF92EF92CF936B01E82EC0E009C04D
:1015FE000E9480098FE99FE00197F1F700C000007B
:10160E00CF5FAE2DC6018C0F911DA11DFC018491E3
:10161E00A7FD80818111ECCFCF91EF90DF90CF901D
:02162E0008951D
:101630000FB6F8940F929B01482F265E3F4F4F4FF5
:10164000F901249147FD2081A82FCB014B96A11DC4
:10165000FC018491A7FD8081281302C081E001C0B4
:0816600080E00F900FBE089519
:10166800E0919D06F0919E068081811107C08FEF61
:101678009FEF90939606809395060895E0919D06B6
:10168800F0919E060580F681E02D808191819093EE
:08169800960680939506089563
:1016A00000E020E030E040E050E060E08091600049
:1016B000909161000E94180360E081E00E949C0B01
:1016C00065EB70E080E00E94F70A84EF91E00E94F1
:0416D000B30BF2CF97
:1016D4000F931F93CF93DF93E801611103C0198324
:1016E400088302C0598348838B8F6C8F61E0CE01DD
:1016F4000E94100618A21F8EDF91CF911F910F91A7
:02170400089546
:10170600CF92DF92EF926A01E62EDC01280F391F95
:10171600A217B30751F0F6014491E7FC40814D93BF
:101726004FEFC41AD40AE40AF3CFEF90DF90CF90BC
:02173600089514
:10173800693288F4882319F0813039F00EC08FE7B8
:10174800860F0E94B40981E008958FEB860F0E94EE
:0E175800B40981E0089580E0089580E00895CE
:10176600CF93DF93EC01892B49F00E943F0C60E098
:10177600CE010E94C2030E94810101C080E0811156
:0C17860002C00E94CD06DF91CF910895B3
:10179200AA1BBB1B51E107C0AA1FBB1FA617B70795
:1017A20010F0A61BB70B881F991F5A95A9F78095B1
:0817B2009095BC01CD010895E2
:1017BA00CF93DF93EB0160919F067091A006645F5F
:1017CA007F4F0E941B0A61E0CE010E94C203DF9193
:0417DA00CF9108950E
:1017DE00FC010396928381832FEF3FEF34832383A3
:0C17EE009683858390878783108208957E
:1017FA0060E080E00E949C0B6EEA70E080E00E944C
:0C180A00F70A84EF91E00E94B30BF2CFCC
:10181600CF93DF93EC018F89988D0E945A0CCE01ED
:0A1826000E945A0CDF91CF91089543
:101830002091A306FC0120832091990630919A06FD
:06184000328321830895AC
:10184600EC010E945C0C0E945B0CCE010E945D0CB8
:06185600CE010E94580CB7
:10185C001BBC89EF8ABD8BE08EBD89B7806189BFC7
:02186C000895DD
:10186E0057FD03C065917591089561917191089529
:0C187E008091A1068F5F8093A106089561
:08188A00FC011186108608958F
:0818920081E08093A406089593
:06189A000E947106189582
:0618A0000E94D10AFDCFF9
:0618A6008091A7060895E1
:0418AC000C94000098
:0418B0000E9455003D
:0218B400089595
:0218B600089593
:0218B800089591
:0218BA0008958F
:00000001FF
