:100000000C942D000C940F0B0C940F0B0C940F0BF5
:100010000C940F0B0C940F0B0C940F0B0C94090BFE
:100020000C940F0B0C940F0B0C940F0B0C940F0BE8
:100030000C940F0B0C940F0B0C940F0B0C940F0BD8
:100040000C940F0B0C940F0B0C940F0B0C940F0BC8
:100050000C940F0B006006A9800011241FBECFE591
:10006000D8E0DEBFCDBFE4E5F0E040E017C0B591D9
:10007000A59135912591059107FD0CC0959185912C
:10008000EF01F92FE82F05900D92A217B307D9F7CA
:10009000FE0104C01D92A217B307E1F7E935F4078A
:0E00A00031F70E94EA080C94E30AF894FFCFAF
:0600AE0049444C4500032B
:1000B4000F931F93CF93DF938091A106811101C108
:1000C400C0919906D0919A068E010F5F1F4F10932D
:1000D4009A060093990601151105B9F480919D06BD
:1000E40090919E0620919B0630919C0630939E062B
:1000F40020939D0690939C0680939B068091A30673
:100104008F5F8093A3060E943B0A8091950690918D
:1001140096060817190720F480E0B8C081E001C0F2
:1001240080E0E0919D06F0919E069081911107C0B8
:100134002FEF3FEF3093960620939506A7C0E091EA
:100144009D06F0919E060580F681E02D0680F781DC
:10015400E02D228133810217130728F43093960689
:100164002093950693C0A285B38524813581468169
:100174005781E9015D834C83268137814481558110
:10018400E9015B834A8311962D913C911297AF014B
:100194004E5F5F4F2417350731F42681378112965D
:1001A4003C932E931197138612869C9191509C93A5
:1001B400A489B589109719F12685378560897189D5
:1001C400E9017D836C832089318966857785E9011E
:1001D4007B836A8311966D917C9112979F01245FB2
:1001E4003F4F6217730731F42089318912963C938B
:1001F4002E931197158A148A9C9191509C93268969
:100204009091A606921710F42093A60630E0D90127
:10021400AA0FBB1FAA0FBB1FAA0FBB1F2A0F3B1F8E
:10022400D901A45CB94F11960D90BC91A02DB58352
:10023400A48314962D913C911597378326831496A5
:100244002D913C911597E9015B834A8315965C9344
:100254004E931497A689B0E09D01220F331F220FFD
:10026400331F220F331FA20FB31FA45CB94FB387F0
:10027400A2879C919F5F9C932689E0919F06F091B1
:10028400A0069689921708F449CF4BCFE0919F06B8
:10029400F091A006268930E0F901EE0FFF1FEE0F62
:1002A400FF1FEE0FFF1F2E0F3F1FF901E45CF94FF4
:1002B4009081923008F081E09091A40691110CC0D5
:1002C4000CC0809197069091980601969093980699
:1002D4008093970680E001C081E0DF91CF911F9168
:0402E4000F910895D9
:1002E800CF93DF930FB6F8940F928091A1068150B7
:1002F8008093A1068091A1068111BFC08091A706B5
:10030800811196C0BDC0E0917706F091780606800D
:10031800F781E02DA489B589C685D785808991891B
:100328009D838C83C089D189868597859B838A83A1
:1003380011962D913C911297CF010C9628173907E9
:1003480031F48089918912969C938E931197158A1E
:10035800148A8C9181508C93A285B385C481D581F0
:10036800868197819D838C83C681D781848195817D
:100378009B838A8311968D919C9112979F012E5F82
:100388003F4F8217930731F48681978112969C9389
:100398008E931197138612868C9181508C9386893F
:1003A8009091A606981710F48093A60690E0DC01B9
:1003B800AA0FBB1FAA0FBB1FAA0FBB1F8A0F9B1F29
:1003C800DC01A45CB94F11960D90BC91A02DB583AA
:1003D800A48314968D919C91159797838683149680
:1003E800CD91DC9115973B832A8315963C932E93E8
:1003F8001497A689B0E0CD01880F991F880F991F1F
:10040800880F991FA80FB91FA45CB94FB387A2879B
:100418008C918F5F8C939689A0919F06B091A006CE
:1004280056968C91981730F081E08093A40602C00C
:10043800E0E0F0E080917206811165CFEF2B11F0BA
:100448000E943B0AC0919706D0919806209769F0C0
:100458000E945A00882319F081E08093A40621970E
:10046800B9F710929806109297068091A4068823EF
:1004780031F00E94E30681E003C080E001C080E023
:0A0488000F900FBEDF91CF91089591
:10049200CF93DF93DC01706811967C936E9316966E
:1004A200ED91FC91179718964D915C9119971296C0
:1004B2008D919C91139714962D913C911597EC0177
:1004C2003D832C8314968D919C91159712962D91B4
:1004D2003C911397EC013B832A83EA0189819A813B
:1004E200A817B90731F414968D919C9115979A83A8
:1004F200898319961C921E921897DA018C91815069
:100502008C93A285B385C481D581868197819D8391
:100512008C83C681D781848195819B838A8311963E
:100522008D919C9112979F012E5F3F4F82179307E7
:1005320031F48681978112969C938E93119713863C
:1005420012868C9181508C9386899091A606981779
:1005520010F48093A60690E0DC01AA0FBB1FAA0F3D
:10056200BB1FAA0FBB1F8A0F9B1FDC01A45CB94FE4
:1005720011960D90BC91A02DB583A48314968D91F4
:100582009C911597978386831496CD91DC9115974C
:100592003B832A8315963C932E931497A689B0E049
:1005A200CD01880F991F880F991F880F991FA80FD7
:1005B200B91FA45CB94FB387A2878C918F5F8C93CC
:1005C2009689E0919F06F091A0068689891718F412
:0C05D20081E08093A406DF91CF91089592
:1005DE00FF920F931F93CF93DF93EC01F62E0091B2
:1005EE00990610919A0680919F069091A006029608
:1005FE000E94AC09CF3F8FEFD807B1F5FF20A1F1D4
:10060E00E0E6F6E0A181B281C0919F06D091A006EE
:10061E00BD83AC83C0919F06D091A00614968D9198
:10062E009C9115979F838E831496CD91DC9115978F
:10063E0080919F069091A00602969B838A8380915B
:10064E009F069091A006029615969C938E931497F2
:10065E00A0919F06B091A0061B96FC93EE931A975D
:10066E0080818F5F80832FC0C00FD11FE0919F06C6
:10067E00F091A006D383C283C017D10768F46091AE
:10068E009F067091A00680919B0690919C066E5FCE
:10069E007F4F0E941D0917C060919F067091A006A2
:1006AE0080919D0690919E066E5F7F4F0E941D0960
:1006BE008091950690919606C817D90720F4D0938D
:1006CE009606C0939506DF91CF911F910F91FF90E3
:0206DE0008957D
:1006E000CF93DF93EC010FB6F8940F928091A70699
:1006F0008F5F8093A70680919F069091A006892B1B
:1007000059F4D093A006C0939F068091A70681302C
:1007100099F40E944B0810C08091A50681110CC06D
:10072000E0919F06F091A00696898E89891720F0A6
:10073000D093A006C0939F068091A2068F5F8093FE
:10074000A2068E899091A606981710F48093A606AB
:1007500090E0FC01EE0FFF1FEE0FFF1FEE0FFF1FDB
:100760008E0F9F1FFC01E45CF94F0180F281E02DA8
:10077000FD83EC83848195819F838E83A481B581E1
:10078000CE01029613969C938E9312979583848341
:10079000EE89F0E0CF01880F991F880F991F880F0D
:1007A000991FE80FF91FE45CF94FFB87EA87808106
:1007B0008F5F80830F900FBE8091A506882351F034
:1007C000E0919F06F091A00696898E89981710F403
:0A07D0000E94E306DF91CF91089527
:1007DA006F927F928F92BF92CF92DF92EF92FF92A7
:1007EA000F931F93CF93DF93EC018B013C0182E0BF
:1007FA00680E711C80E8882EE82C630183E0C80E1D
:10080A00D11CE11C0E94FF0A85E0680E711C811C44
:10081A00F301582D0E94F70AFB0188819981082B60
:10082A00192B1983088300E010E02AC0B280F380F4
:10083A00808191819C01332792FD08C048815981AA
:10084A0042235323452B59F440E00CC04881598177
:10085A00422353232417350721F040E003C041E027
:10086A0001C041E0442351F090FF02C0022B132B38
:10087A00688179817260CF010E944902EB2DFF2DB8
:10088A00CF01A0E8C816D906EA0681F600951095A8
:10089A008881998108231923198308830E94740186
:1008AA0088819981DF91CF911F910F91FF90EF90ED
:0E08BA00DF90CF90BF908F907F906F90089549
:1008C8006F927F928F929F92AF92BF92CF92DF9258
:1008D800EF92FF920F931F93CF93DF93CDB7DEB7BD
:1008E8003C01A62FCA01F4014789508D0150110916
:1008F800040F151F0097A105D1F41EC0272F30E063
:10090800AC016A2F420F531F611D37FD6A95FA012A
:10091800B49167FDB081F401E20FF31FB18FFA01C2
:10092800249167FD2081222329F07F5F01C070E0B8
:10093800783020F3F40110A2F3E0FC1520F40F2E18
:10094800F3E0CF2EF02DF401C68AC40102960E946E
:10095800050BC4010C960E94050BF4019186808654
:1009680084E090E08C19910995878487938A828A1C
:10097800A701B301C8010E94BA05F40191838083DD
:10098800A114B10419F0F50191828082DF91CF9111
:100998001F910F91FF90EF90DF90CF90BF90AF9095
:0A09A8009F908F907F906F9008954C
:1009B200AF92BF92CF92DF92EF92FF920F931F936B
:1009C200CF93DF937C015B01C42ED22E0E94FF0ADB
:1009D200F701C081D1814D2DB501CE010E94840A5B
:1009E200882369F0CC2009F1C501809590958C236C
:1009F2009D23F7019183808300E010E018C0011568
:100A02001105A9F0C11003C060E070E002C060E00F
:100A120071E0D11074606A297B29A801C70102968E
:100A22000E949007C0E0D0E002C000E010E00E9407
:100A32007401012B19F1811102C00E94E3060E9488
:100A4200570AEC0191FD19C00FB6F8940F92F70105
:100A5200C081D1814D2DB501CE010E94840A882327
:100A620051F0CC2041F0B501609570956C237D2347
:100A7200F701718360830F900FBEDD27CE01DF91F6
:100A8200CF911F910F91FF90EF90DF90CF90BF9089
:040A9200AF90089584
:100A96004F925F926F927F928F929F92AF92BF9288
:100AA600CF92DF92EF92FF920F931F93CF93DF9334
:100AB60000D000D00F92CDB7DEB73C0149835A83F0
:100AC6006B8349012801C9010E9411088C01892BF9
:100AD600B9F086E290E00E9411089D838C83892BF1
:100AE60059F086E2EC81FD8111928A95E9F7EC8155
:100AF600FD81108F078B06C0C8010E94130B02C030
:100B06001D821C828C819D81892BD1F0840120E07D
:100B160030E01F921F921F928C809D805601CE2C32
:100B2600720149815A816B81C3010E9464048C81E0
:100B36009D810E9470030F900F900F9081E001C07D
:100B46008FEF0F900F900F900F900F90DF91CF9136
:100B56001F910F91FF90EF90DF90CF90BF90AF90D5
:0E0B66009F908F907F906F905F904F900895BA
:100B740031E1FC013083319722E220833197A3E3F2
:100B8400A0833197608331977083319710823197B6
:100B940060E8608331971082319762E06083319717
:100BA40063E06083319764E06083319765E060833C
:100BB400319766E06083319767E06083319768E03E
:100BC4006083319769E06083319760E16083319796
:100BD4003083319732E13083319733E13083319779
:100BE40034E13083319735E13083319736E1308316
:100BF400319737E13083319738E13083319739E1E8
:100C04003083319730E23083319731E2308331974A
:100C14002083319723E22083319740833197508397
:100C2400319726E22083319727E22083319728E207
:100C34002083319729E22083319720E32083319761
:080C440021E320838697089547
:100C4C001F93CF93DF93CDB7DEB72A970FB6F894E7
:100C5C00DEBF0FBECDBFAC01892B89F545C09A0113
:100C6C00ADECBCEC0E94B90A969587959695879544
:100C7C00969587959C01220F331F880F991F880F1B
:100C8C00991F880F991F820F931F9A01281B390BEC
:100C9C00C901E1E0F0E0EC0FFD1FE10FF11D17FDC4
:100CAC00FA95805D80839A010E94B90AAC01569531
:100CBC00479556954795569547951F5F01C010E08F
:100CCC004115510561F611500CC0E1E0F0E0EC0F5C
:100CDC00FD1FE10FF11D17FDFA9580810E9482081E
:100CEC001150112394F703C080E30E9482082A96C6
:100CFC000FB6F894DEBF0FBECDBFDF91CF911F9121
:020D0C00089548
:100D0E000F920FB6F8940F921F9211242F923F92CA
:100D1E004F925F926F927F928F929F92AF92BF92FD
:100D2E00CF92DF92EF92FF920F931F932F933F93E9
:100D3E004F935F936F937F938F939F93AF93BF93D5
:100D4E00CF93DF93EF93FF93A0919F06B091A006F0
:100D5E000DB60D920EB60D920E945A0081110E9490
:100D6E003C07A0919F06B091A006CD91CDBFDD911D
:100D7E00DEBFFF91EF91DF91CF91BF91AF919F9128
:100D8E008F917F916F915F914F913F912F911F9115
:100D9E000F91FF90EF90DF90CF90BF90AF909F900C
:100DAE008F907F906F905F904F903F902F901F90FD
:080DBE000F900FBE0F90089585
:100DC6000F920FB6F8940F921F9211242F923F9212
:100DD6004F925F926F927F928F929F92AF92BF9245
:100DE600CF92DF92EF92FF920F931F932F933F9331
:100DF6004F935F936F937F938F939F93AF93BF931D
:100E0600CF93DF93EF93FF93A0919F06B091A00637
:100E16000DB60D920EB60D920E943C07A0919F064C
:100E2600B091A006CD91CDBFDD91DEBFFF91EF91D0
:100E3600DF91CF91BF91AF919F918F917F916F91EC
:100E46005F914F913F912F911F910F91FF90EF90DE
:100E5600DF90CF90BF90AF909F908F907F906F90D4
:100E66005F904F903F902F901F900F900FBE0F9066
:020E76000895DD
:100E78008091A106882321F081E08093A40608953B
:100E88001092A4062091A60601C02150822F90E05E
:100E9800FC01EE0FFF1FEE0FFF1FEE0FFF1FE80F05
:100EA800F91FE45CF94F3081332379F3AC01440F27
:100EB800551F440F551F440F551F480F591FDF0179
:100EC8000180F281E02D0280F381E02D1296FC93DF
:100ED800EE931197415C594FE417F50729F44281C5
:100EE8005381FD0152834183FC01EE0FFF1FEE0F7A
:100EF800FF1FEE0FFF1F8E0F9F1FFC01E45CF94FD1
:100F08000180F281E02D868197819093A0068093DD
:080F18009F062093A606089530
:100F2000CF93DF93FC01A0919F06B091A00670685B
:100F30001D967C936E931C97A181B281C0919F06F0
:100F4000D091A006BF87AE87C0919F06D091A00622
:100F500014968D919C911597998B888B1496CD91B1
:100F6000DC91159720919F063091A006245F3F4F9A
:100F70003B832A8320919F063091A006245F3F4F38
:100F800015963C932E931497A0919F06B091A006BE
:100F90005596FC93EE93549790819F5F908361E008
:0C0FA000CA010E94EF02DF91CF9108957A
:100FAC008FE087BB80EF8ABB2FEF83EF91E021505E
:100FBC0080409040E1F700C0000088E20E94B60833
:100FCC0025ED2A95F1F7000082E00E94B6088FE328
:100FDC009FE10197F1F700C0000086E00E94B6087F
:100FEC0095ED9A95F1F700008FE00E94B60884E128
:100FFC000E94B60825ED2A95F1F7000081E00E94C9
:10100C00B6088FEF93EC29E0815090402040E1F737
:06101C0000C00000089571
:10102200CF93DF93EC010E94FF0A80918D0690918D
:101032008E06892B31F480E690E090938E068093A1
:101042008D062097C9F080918F06909190069E019F
:10105200280F391F2B3D45E0340788F48217930788
:1010620088F4C0918D06D0918E06C80FD91F309397
:10107200900620938F0608C0C0E0D0E005C0C0E013
:10108200D0E002C0C0E0D0E00E947401CE01DF9146
:04109200CF9108955D
:10109600CF93C0E010C08C2F90E09C01220F331F2D
:1010A600220F331F220F331F820F931F845C994F29
:1010B6000E94C80ACF5FC43070F384E896E00E94AD
:1010C600C80A8BE796E00E94C80A82E796E00E946B
:1010D600C80A89E696E00E94C80A80E696E00E9461
:1010E600C80A84E896E090939E0680939D068BE757
:0E10F60096E090939C0680939B06CF91089500
:101104009BB39F70282F207F922B9BBB98B3926038
:1011140098BB98B39B7F98BB98B3986098BBEFE952
:10112400FFE03197F1F700C0000098B3977F98BBB8
:101134002BB3F0E18F9FC0011124922F9F70892B54
:101144008BBB88B3826088BB88B38B7F88BB88B332
:10115400886088BB8FE99FE00197F1F700C0000029
:0811640088B3877F88BB089562
:10116C009BB39F70282F207F922B9BBB98B39D7FA6
:10117C0098BB98B39B7F98BB98B3986098BBEFE9EA
:10118C00FFE03197F1F700C0000098B3977F98BB50
:10119C002BB3F0E18F9FC0011124922F9F70892BEC
:1011AC008BBB88B38D7F88BB88B38B7F88BB88B3A0
:1011BC00886088BB8FE99FE00197F1F700C00000C1
:0811CC0088B3877F88BB0895FA
:1011D400CF92DF92EF920F931F930E94D6070E9443
:1011E400970A9093920680939106892B09F4FFCF76
:1011F400C12CD12C6894EE24E1F800E010E025E540
:1012040030E040E050E060E089EF99E00E944B0557
:1012140025E530E040E050E060E08EE19AE00E9495
:101224004B050E947D0980E090E01F910F91EF90A3
:06123400DF90CF90089549
:10123A00CF93DF93EB01488159814F3F2FEF52073C
:10124A0021F4FC01A781B0850DC0DC01139601C011
:10125A00DF011296ED91FC9113972081318142179B
:10126A005307B0F71296ED91FC911397FB83EA832B
:10127A00D583C483BD83AC831396DC93CE93129734
:10128A0099878887FC0120812F5F2083DF91CF9186
:02129A000895B5
:10129C000E94EE0AA0919F06B091A006CD91CDBF01
:1012AC00DD91DEBFFF91EF91DF91CF91BF91AF91B7
:1012BC009F918F917F916F915F914F913F912F9162
:1012CC001F910F91FF90EF90DF90CF90BF90AF9058
:1012DC009F908F907F906F905F904F903F902F904A
:0E12EC001F900F900FBE0F90089581E008959F
:1012FA00CF92DF92EF920F931F930F2EF3E9CF2E27
:10130A00F6E0DF2EF02DE12C00E010E025E530E0DC
:10131A004EEA50E060E08CE09BE00E944B05813091
:10132A0081F4F8948FEF9FEF909396068093950639
:10133A0081E08093A50610929A06109299060E945F
:0E134A004E091F910F91EF90DF90CF90089504
:10135800CF93DF93FC01A085B185C281D3818481BD
:1013680095819D838C83C481D581828193819B8360
:101378008A8311968D919C911297E817F90731F499
:101388008481958112969C938E931197118610866D
:0E1398008C9181508C938C91DF91CF910895B0
:1013A600CF93DF931CC00FB6F8940F92E0916E06B0
:1013B600F0916F06C681D781CE0102960E94AC09D4
:1013C6008091A70681508093A7068091A806815038
:1013D6008093A8060F900FBECE010E94D60A809178
:0C13E600A8068111E0CFDF91CF9108959F
:1013F20061E070E080919106909192060E94ED0367
:1014020089E290E00E946E0A62E070E080919106AB
:10141200909192060E94ED0389E290E00E946E0A8A
:1014220064E070E080919106909192060E94ED0333
:0A14320089E290E00E946E0ADBCF11
:10143C000FEF1FEF20E041E067E070E08091910634
:10144C00909192060E94D904EC010E942606CD2BA5
:10145C0079F367E070E080919106909192060E947A
:0A146C00AA0A88E70E948208E3CF75
:10147600E0919D06F0919E068081811107C08FEF55
:101486009FEF90939606809395060895E0919D06AA
:10149600F0919E060580F681E02D808191819093E2
:0814A600960680939506089557
:1014AE00E0919F06F091A00684859585E0919F06B8
:1014BE00F091A006A0919F06B091A00656964C9171
:0E14CE0024E030E0241B31093587248708957F
:1014DC00CF93DF93EC01892B49F00E94FF0A60E067
:1014EC00CE010E94EF020E94740101C080E08111C4
:0C14FC0002C00E94E306DF91CF9108952A
:10150800411106C068237923672B49F480E00895C8
:10151800862397236817790721F080E0089581E0F2
:06152800089581E0089522
:10152E00CF93DF938BE090E00E941108EC010097BF
:10153E0031F0FC0111921192CF010E94C80ACE0126
:06154E00DF91CF9108952A
:10155400FC010FB6F8940F9280819181609570958B
:0E15640068237923718360830F900FBE089572
:10157200A29FB001B39FC001A39F700D811D1124D2
:0E158200911DB29F700D811D1124911D0895C1
:10159000FC010396928381832FEF3FEF34832383F3
:0C15A000968385839087878310820895CE
:1015AC00CF93DF93EC018F89988D0E94130BCE01A2
:0A15BC000E94130BDF91CF910895F8
:1015C600EC010E94150B0E94140BCE010E94160B13
:0615D600CE010E94110B82
:1015DC001BBC89EF8ABD8BE08EBD89B7806189BF4A
:0215EC00089560
:1015EE0057FD03C0659175910895619171910895AC
:0C15FE008091A1068F5F8093A1060895E4
:08160A00FC0111861086089511
:061612000E9487061895F6
:061618000E94D309FDCF82
:04161E000C94000028
:041622000E945500CD
:02162600089525
:02162800089523
:02162A00089521
:02162C0008951F
:00000001FF
