:100000000C9433000C94D40A0C94D40A0C94D40AA3
:100010000C94D40A0C94D40A0C94D40A0C94D10AEB
:100020000C94D40A0C94D40A0C94D40A0C94D40AD8
:100030000C94D40A0C94D40A0C94D40A0C94D40AC8
:100040000C94D40A0C94D40A0C94D40A0C94D40AB8
:100050000C94D40A00600686800686068B0015B8CC
:10006000068B06AE800011241FBECFE5D8E0DEBFB0
:10007000CDBFE4E5F0E040E017C0B591A591359122
:100080002591059107FD0CC095918591EF01F92F00
:10009000E82F05900D92A217B307D9F7FE0104C00F
:1000A0001D92A217B307E1F7E536F40731F70E9476
:0A00B000E1060C94A90AF894FFCFB2
:0900BA004C656433004C43440022
:0600C30049444C45000316
:1000CA000F931F93CF93DF938091A706811101C1EC
:1000DA00C0919F06D091A0068E010F5F1F4F10930B
:1000EA00A00600939F0601151105B9F48091A30695
:1000FA009091A4062091A1063091A2063093A406FD
:10010A002093A3069093A2068093A1068091A90644
:10011A008F5F8093A9060E946A0A80919B0690913C
:10012A009C060817190720F480E0B8C081E001C0D6
:10013A0080E0E091A306F091A4069081911107C096
:10014A002FEF3FEF30939C0620939B06A7C0E091C8
:10015A00A306F091A4060580F681E02D0680F781BA
:10016A00E02D228133810217130728F430939C066D
:10017A0020939B0693C0A285B3852481358146814D
:10018A005781E9015D834C832681378144815581FA
:10019A00E9015B834A8311962D913C911297AF0135
:1001AA004E5F5F4F2417350731F426813781129647
:1001BA003C932E931197138612869C9191509C938F
:1001CA00A489B589109719F12685378560897189BF
:1001DA00E9017D836C832089318966857785E90108
:1001EA007B836A8311966D917C9112979F01245F9C
:1001FA003F4F6217730731F42089318912963C9375
:10020A002E931197158A148A9C9191509C93268952
:10021A009091AC06921710F42093AC0630E0D90105
:10022A00AA0FBB1FAA0FBB1FAA0FBB1F2A0F3B1F78
:10023A00D901A25CB94F11960D90BC91A02DB5833E
:10024A00A48314962D913C9115973783268314968F
:10025A002D913C911597E9015B834A8315965C932E
:10026A004E931497A689B0E09D01220F331F220FE7
:10027A00331F220F331FA20FB31FA25CB94FB387DC
:10028A00A2879C919F5F9C932689E091A506F09195
:10029A00A6069689921708F449CF4BCFE091A50696
:1002AA00F091A606268930E0F901EE0FFF1FEE0F46
:1002BA00FF1FEE0FFF1F2E0F3F1FF901E25CF94FE0
:1002CA009081923008F081E09091AA0691110CC0B9
:1002DA000CC080919D0690919E06019690939E0671
:1002EA0080939D0680E001C081E0DF91CF911F914C
:0402FA000F910895C3
:1002FE00CF93DF930FB6F8940F928091A70681509B
:10030E008093A7068091A7068111BFC08091AD068C
:10031E00811196C0BDC0E0917006F0917106068005
:10032E00F781E02DA489B589C685D7858089918905
:10033E009D838C83C089D189868597859B838A838B
:10034E0011962D913C911297CF010C9628173907D3
:10035E0031F48089918912969C938E931197158A08
:10036E00148A8C9181508C93A285B385C481D581DA
:10037E00868197819D838C83C681D7818481958167
:10038E009B838A8311968D919C9112979F012E5F6C
:10039E003F4F8217930731F48681978112969C9373
:1003AE008E931197138612868C9181508C93868929
:1003BE009091AC06981710F48093AC0690E0DC0197
:1003CE00AA0FBB1FAA0FBB1FAA0FBB1F8A0F9B1F13
:1003DE00DC01A25CB94F11960D90BC91A02DB58396
:1003EE00A48314968D919C9115979783868314966A
:1003FE00CD91DC9115973B832A8315963C932E93D2
:10040E001497A689B0E0CD01880F991F880F991F08
:10041E00880F991FA80FB91FA25CB94FB387A28787
:10042E008C918F5F8C939689A091A506B091A606AC
:10043E0056968C91981730F081E08093AA0602C0F0
:10044E00E0E0F0E080916B06811165CFEF2B11F0AB
:10045E000E946A0AC0919D06D0919E06209769F06F
:10046E000E946500882319F081E08093AA062197E7
:10047E00B9F710929E0610929D068091AA068823C7
:10048E0031F00E94340681E003C080E001C080E0BC
:0A049E000F900FBEDF91CF9108957B
:1004A800EF92FF920F931F93CF93DF938C010E94DB
:1004B800C70A8091970690919806892B11F40E949B
:1004C800250A0115110549F00B3F8FEF180718F49D
:1004D8000B5F1F4F02C000E010E011230CF466C050
:1004E8000115110509F465C080919506909196064D
:1004F8008017910708F460C0C0918B06D0918C06D4
:10050800EBE8F6E002C0FE01EC018A819B818017CE
:10051800910720F4888199810097A9F7809197061F
:1005280090919806C817D90709F449C0E080F1806E
:1005380084E0E80EF11C88819981918380832A8167
:100548003B81201B310B2930310550F0CE01800F43
:10055800911FFC01338322831B830A830E9478073F
:100568002A813B818091950690919606821B930B78
:100578009093960680939506409193065091940621
:100588008417950720F49093940680939306306817
:100598003B832A8319821882809191069091920652
:1005A800019690939206809391060BC0E12CF12C52
:1005B80008C0E12CF12C05C0E12CF12C02C0E12C83
:1005C800F12C0E947F01C701DF91CF911F910F91FC
:0605D800FF90EF90089572
:1005DE00EF92FF921F93CF93DF93EC01643008F0FC
:1005EE0063E00FB6F8940F92209721F4C091A50600
:1005FE00D091A6068E89681709F47DC0861780F4FF
:10060E002091A5063091A606C217D30791F0E0916E
:10061E00A506F091A6069689691768F410E00EC03B
:10062E002091A5063091A606C217D30731F010E02F
:10063E0005C010E003C011E001C011E06E8B2C85E7
:10064E003D85332334F024E030E0261B31093D870D
:10065E002C872A853B8590E0AC01440F551F440F33
:10066E00551F440F551F840F951F825C994F2817F5
:10067E003907F1F57E0182E0E80EF11CC7010E94F8
:10068E00FE098E899091AC06981710F48093AC06F3
:10069E0090E0FC01EE0FFF1FEE0FFF1FEE0FFF1F8E
:1006AE008E0F9F1FFC01E25CF94F0180F281E02D5D
:1006BE00FD83EC83848195819F838E83A481B58194
:1006CE001396FC92EE921297F582E4828E8990E058
:1006DE00FC01EE0FFF1FEE0FFF1FEE0FFF1FE80FC7
:1006EE00F91FE25CF94FFB87EA8780818F5F808379
:1006FE0011110E9434060F900FBEDF91CF911F9102
:06070E00FF90EF9008953A
:10071400FF920F931F93CF93DF93EC01F62E00917A
:100724009F061091A0068091A5069091A6060296B8
:100734000E94FE09CF3F8FEFD807B1F5FF20A1F14A
:10074400E2E6F6E0A181B281C091A506D091A606A9
:10075400BD83AC83C091A506D091A60614968D9155
:100764009C9115979F838E831496CD91DC91159758
:100774008091A5069091A60602969B838A83809118
:10078400A5069091A606029615969C938E931497AF
:10079400A091A506B091A6061B96FC93EE931A971A
:1007A40080818F5F80832FC0C00FD11FE091A50689
:1007B400F091A606D383C283C017D10768F4609171
:1007C400A5067091A6068091A1069091A2066E5F7F
:1007D4007F4F0E940E0917C06091A5067091A6066E
:1007E4008091A3069091A4066E5F7F4F0E940E092C
:1007F40080919B0690919C06C817D90720F4D0934A
:100804009C06C0939B06DF91CF911F910F91FF909F
:02081400089545
:10081600CF93DF93EC010FB6F8940F928091AD065B
:100826008F5F8093AD068091A5069091A606892BD1
:1008360059F4D093A606C093A5068091AD068130E3
:1008460099F40E94DB0810C08091AB0681110CC0A0
:10085600E091A506F091A60696898E89891720F063
:10086600D093A606C093A5068091A8068F5F8093B5
:10087600A8068E899091AC06981710F48093AC0662
:1008860090E0FC01EE0FFF1FEE0FFF1FEE0FFF1FA4
:100896008E0F9F1FFC01E25CF94F0180F281E02D73
:1008A600FD83EC83848195819F838E83A481B581AA
:1008B600CE01029613969C938E931297958384830A
:1008C600EE89F0E0CF01880F991F880F991F880FD6
:1008D600991FE80FF91FE25CF94FFB87EA878081D1
:1008E6008F5F80830F900FBE8091AB06882351F0F7
:1008F600E091A506F091A60696898E89981710F4C0
:0A0906000E943406DF91CF9108959E
:100910006F927F928F929F92AF92BF92CF92DF920F
:10092000EF92FF920F931F93CF93DF93CDB7DEB774
:100930003C01A62FCA01F4014789508D01501109CD
:10094000040F151F0097A105D1F41EC0272F30E01A
:10095000AC016A2F420F531F611D37FD6A95FA01E2
:10096000B49167FDB081F401E20FF31FB18FFA017A
:10097000249167FD2081222329F07F5F01C070E070
:10098000783020F3F40110A2F3E0FC1520F40F2ED0
:10099000F3E0CF2EF02DF401C68AC40102960E9426
:1009A000CD0AC4010C960E94CD0AF401918680867E
:1009B00084E090E08C19910995878487938A828AD4
:1009C000A701B301C8010E946C05F40191838083E3
:1009D000A114B10419F0F50191828082DF91CF91C9
:1009E0001F910F91FF90EF90DF90CF90BF90AF904D
:0A09F0009F908F907F906F90089504
:1009FA004F925F926F927F928F929F92AF92BF9225
:100A0A00CF92DF92EF92FF920F931F93CF93DF93D0
:100A1A0000D000D00F92CDB7DEB73C0149835A838C
:100A2A006B8349012801C9010E9454028C01892B58
:100A3A00B9F086E290E00E9454029D838C83892B50
:100A4A0059F086E2EC81FD8111928A95E9F7EC81F1
:100A5A00FD81108F078B06C0C8010E943F0802C0A3
:100A6A001D821C828C819D81892BD1F0840120E01A
:100A7A0030E01F921F921F928C809D805601CE2CCF
:100A8A00720149815A816B81C3010E9488048C8159
:100A9A009D810E940B040F900F900F9081E001C07E
:100AAA008FEF0F900F900F900F900F90DF91CF91D3
:100ABA001F910F91FF90EF90DF90CF90BF90AF9072
:0E0ACA009F908F907F906F905F904F90089557
:100AD80031E1FC013083319722E220833197A3E38F
:100AE800A083319760833197708331971082319753
:100AF80060E8608331971082319762E060833197B4
:100B080063E06083319764E06083319765E06083D8
:100B1800319766E06083319767E06083319768E0DA
:100B28006083319769E06083319760E16083319732
:100B38003083319732E13083319733E13083319715
:100B480034E13083319735E13083319736E13083B2
:100B5800319737E13083319738E13083319739E184
:100B68003083319730E23083319731E230833197E7
:100B78002083319723E22083319740833197508334
:100B8800319726E22083319727E22083319728E2A4
:100B98002083319729E22083319720E320833197FE
:080BA80021E3208386970895E4
:100BB0000F920FB6F8940F921F9211242F923F922A
:100BC0004F925F926F927F928F929F92AF92BF925D
:100BD000CF92DF92EF92FF920F931F932F933F9349
:100BE0004F935F936F937F938F939F93AF93BF9335
:100BF000CF93DF93EF93FF93A091A506B091A60644
:100C00000DB60D920EB60D920E94650081110E94E4
:100C10008D06A091A506B091A606CD91CDBFDD9120
:100C2000DEBFFF91EF91DF91CF91BF91AF919F9187
:100C30008F917F916F915F914F913F912F911F9174
:100C40000F91FF90EF90DF90CF90BF90AF909F906B
:100C50008F907F906F905F904F903F902F901F905C
:080C60000F900FBE0F900895E4
:100C68000F920FB6F8940F921F9211242F923F9271
:100C78004F925F926F927F928F929F92AF92BF92A4
:100C8800CF92DF92EF92FF920F931F932F933F9390
:100C98004F935F936F937F938F939F93AF93BF937C
:100CA800CF93DF93EF93FF93A091A506B091A6068B
:100CB8000DB60D920EB60D920E948D06A091A50656
:100CC800B091A606CD91CDBFDD91DEBFFF91EF912A
:100CD800DF91CF91BF91AF919F918F917F916F914C
:100CE8005F914F913F912F911F910F91FF90EF903E
:100CF800DF90CF90BF90AF909F908F907F906F9034
:100D08005F904F903F902F901F900F900FBE0F90C5
:020D180008953C
:100D1A008091A706882321F081E08093AA0608958E
:100D2A001092AA062091AC0601C02150822F90E0B1
:100D3A00FC01EE0FFF1FEE0FFF1FEE0FFF1FE80F64
:100D4A00F91FE25CF94F3081332379F3AC01440F88
:100D5A00551F440F551F440F551F480F591FDF01D8
:100D6A000180F281E02D0280F381E02D1296FC933E
:100D7A00EE9311974F5B594FE417F50729F4428117
:100D8A005381FD0152834183FC01EE0FFF1FEE0FD9
:100D9A00FF1FEE0FFF1F8E0F9F1FFC01E25CF94F32
:100DAA000180F281E02D868197819093A606809337
:080DBA00A5062093AC06089584
:100DC200CF92DF92EF920F931F93CF93DF9300D0D6
:100DD20000D00F92CDB7DEB785E0E6E8F6E0DE019F
:100DE200119601900D928A95E1F70F2EF0E6CF2E23
:100DF200F0E0DF2EF02D6894EE24E1F88E010F5F13
:100E02001F4F25E530E04AEB50E060E08FE399E0C8
:100E12000E94FD04C12CD12C0F2EF3E0EF2EF02DF9
:100E220000E010E028E730E04FEB50E060E080E7C0
:100E320099E00E94FD040E94CF0980E090E00F90AB
:100E42000F900F900F900F90DF91CF911F910F9104
:080E5200EF90DF90CF900895AE
:100E5A001F93CF93DF93CDB7DEB764970FB6F8949D
:100E6A00DEBF0FBECDBF6115710581059105B9F4CD
:100E7A002DC02AE030E040E050E00E94480AE1E05C
:100E8A00F0E0EC0FFD1FE10FF11D17FDFA95605D13
:100E9A006083622F732F842F952F1F5F01C010E08C
:100EAA00611571058105910521F711500CC0E1E02A
:100EBA00F0E0EC0FFD1FE10FF11D17FDFA9580819F
:100ECA000E9473081150112394F703C080E30E9413
:100EDA00730864960FB6F894DEBF0FBECDBFDF91DC
:060EEA00CF911F91089555
:100EF000CF93DF93EC01ABE8B6E001C0DF01ED91E9
:100F0000FC911197EC17FD07C8F312968D919C91F7
:100F100013979D01280F391FC217D30749F42A815F
:100F20003B81820F931F13969C938E931297ED0132
:100F30008A819B819E01280F391FE217F307C1F4B4
:100F40002091970630919806E217F30771F02281FD
:100F50003381820F931F9B838A83ED91FC911197BC
:100F6000808191819983888305C03983288302C059
:100F7000F983E883CA17DB0711F0CD93DC93DF9187
:040F8000CF91089570
:100F84000F931F93CF93DF938C01EB010E94C70A49
:100F940040919F065091A006F80120813181C9013A
:100FA4008C0F9D1F4217530740F48217930768F470
:100FB4004817590760F0C0E00FC08217930748F044
:100FC4004817590740F0C0E007C0C0E005C0C1E0C1
:100FD40003C0C1E001C0C1E0F80191838083CC2348
:100FE40029F060E0841B950B0E948A030E947F0114
:100FF400811102C00E9434068C2FDF91CF911F9182
:041004000F910895AB
:101008008FE087BB80EF8ABB2FEF83EF91E0215001
:1010180080409040E1F700C0000088E20E94A708E5
:1010280025ED2A95F1F7000082E00E94A7088FE3DA
:101038009FE10197F1F700C0000086E00E94A70831
:1010480095ED9A95F1F700008FE00E94A70884E1DA
:101058000E94A70825ED2A95F1F7000081E00E947B
:10106800A7088FEF93EC29E0815090402040E1F7EA
:0610780000C00000089515
:10107E000F931F93CF93DF93009749F1EC012497C1
:10108E002A813B8133231CF548815981452BF9F484
:10109E003F773B832A830E94C70A8A819B812091D6
:1010AE00950630919606820F931F90939606809325
:1010BE009506CE010E94780780918F06909190063A
:1010CE0001969093900680938F060E947F01DF9188
:0810DE00CF911F910F910895BD
:1010E6009BB39F70282F207F922B9BBB98B3926057
:1010F60098BB98B39B7F98BB98B3986098BBEFE971
:10110600FFE03197F1F700C0000098B3977F98BBD6
:101116002BB3F0E18F9FC0011124922F9F70892B72
:101126008BBB88B3826088BB88B38B7F88BB88B350
:10113600886088BB8FE99FE00197F1F700C0000047
:0811460088B3877F88BB089580
:10114E009BB39F70282F207F922B9BBB98B39D7FC4
:10115E0098BB98B39B7F98BB98B3986098BBEFE908
:10116E00FFE03197F1F700C0000098B3977F98BB6E
:10117E002BB3F0E18F9FC0011124922F9F70892B0A
:10118E008BBB88B38D7F88BB88B38B7F88BB88B3BE
:10119E00886088BB8FE99FE00197F1F700C00000DF
:0811AE0088B3877F88BB089518
:1011B600CF93C0E010C08C2F90E09C01220F331F0C
:1011C600220F331F220F331F820F931F825C994F0A
:1011D6000E949B0ACF5FC43070F38DE796E00E94B1
:1011E6009B0A84E796E00E949B0A8BE696E00E94A3
:1011F6009B0A82E696E00E949B0A8DE796E0909312
:10120600A4068093A30684E796E09093A2068093B3
:06121600A106CF9108952E
:10121C00CF93DF93EB01488159814F3F2FEF52075A
:10122C0021F4FC01A781B0850DC0DC01139601C02F
:10123C00DF011296ED91FC911397208131814217B9
:10124C005307B0F71296ED91FC911397FB83EA8349
:10125C00D583C483BD83AC831396DC93CE93129752
:10126C0099878887FC0120812F5F2083DF91CF91A4
:02127C000895D3
:10127E00CF93DF9300D0CDB7DEB78C01DC01139690
:10128E00ED91FC911497208181E090E00C9002C0CA
:10129E00880F991F0A94E2F7822B80830E94B40A6A
:1012AE009A83898368EE73E0CE0101960E94C2078D
:1012BE00D8011196ED91FC911297208181E090E07A
:1012CE000C9002C0880F991F0A94E2F78227808340
:0212DE00E9CF56
:1012E000CF93DF9300D0CDB7DEB70E9404080E94F1
:1012F000B40A9A83898364EF71E0CE0101960E945B
:10130000C20780916000909161000E94860A182FA8
:10131000682F70E080E090E00E942D071F5F612F32
:1013200080916000909161000E94EF02143018F3E8
:1013300061E080916000909161000E94EF02DBCF3C
:101340000E94BE0AA091A506B091A606CD91CDBF80
:10135000DD91DEBFFF91EF91DF91CF91BF91AF9112
:101360009F918F917F916F915F914F913F912F91BD
:101370001F910F91FF90EF90DF90CF90BF90AF90B3
:101380009F908F907F906F905F904F903F902F90A5
:0E1390001F900F900FBE0F90089581E00895FA
:10139E00CF92DF92EF920F931F930F2EF9E9CF2E7C
:1013AE00F6E0DF2EF02DE12C00E010E025E530E038
:1013BE0043EC50E060E088ED9AE00E94FD0481303D
:1013CE0081F4F8948FEF9FEF90939C0680939B0689
:1013DE0081E08093AB061092A00610929F060E94A9
:0E13EE00A0091F910F91EF90DF90CF9008950E
:1013FC00CF93DF93FC01A085B185C281D381848119
:10140C0095819D838C83C481D581828193819B83BB
:10141C008A8311968D919C911297E817F90731F4F4
:10142C008481958112969C938E93119711861086C8
:0E143C008C9181508C938C91DF91CF9108950B
:10144A00EBE8F6E0A2E6B0E0B183A0831382128251
:10145A00EAE3F6E0F0939806E09397061382128285
:10146A001182108288ED95E013969C938E931297C1
:10147A00ED93FC939093940680939306909396062B
:06148A0080939506089511
:10149000A1E21A2EAA1BBB1BFD010DC0AA1FBB1F78
:1014A000EE1FFF1FA217B307E407F50720F0A21BEA
:1014B000B30BE40BF50B661F771F881F991F1A9457
:1014C00069F760957095809590959B01AC01BD0181
:0414D000CF010895AB
:1014D400E091A306F091A4068081811107C08FEFEB
:1014E4009FEF90939C0680939B060895E091A3063A
:1014F400F091A4060580F681E02D8081918190937E
:081504009C0680939B060895EC
:10150C000FB6F8940F92009731F48091A506909144
:10151C00A606A0E801C0A0E84696A11DFC01849196
:0A152C00A7FD80810F900FBE089507
:10153600FC010396928381832FEF3FEF348323834D
:0C15460096838583908787831082089528
:10155200EC010E94DA0A0E94D90ACE010E94DB0A3B
:06156200CE010E94D60A32
:101568000FB6F8940F9280919F069091A0060F9065
:041578000FBE089505
:10157C001BBC89EF8ABD8BE08EBD89B7806189BFAA
:02158C000895C0
:0C158E008091A7068F5F8093A706089548
:08159A00FC0111861086089582
:0615A2000E94D805189517
:0415A8000C9400009F
:0415AC000E945B003E
:0215B000FFCF6B
:0215B20008959A
:0215B400089598
:0215B600089596
:0515B8000332003100C8
:00000001FF
