:100000000C942D000C94210B0C94210B0C94210BBF
:100010000C94210B0C94210B0C94210B0C941E0BB3
:100020000C94210B0C94210B0C94210B0C94210BA0
:100030000C94210B0C94210B0C94210B0C94210B90
:100040000C94210B0C94210B0C94210B0C94210B80
:100050000C94210B006006AB800011241FBECFE57D
:10006000D8E0DEBFCDBFE4E5F0E040E017C0B591D9
:10007000A59135912591059107FD0CC0959185912C
:10008000EF01F92FE82F05900D92A217B307D9F7CA
:10009000FE0104C01D92A217B307E1F7E935F4078A
:0E00A00031F70E94A7090C94ED0AF894FFCFE7
:0600AE0049444C4500032B
:1000B4000F931F93CF93DF938091A406811101C105
:1000C400C0919C06D0919D068E010F5F1F4F109327
:1000D4009D0600939C0601151105B9F48091A006B4
:1000E4009091A10620919E0630919F063093A1061F
:1000F4002093A00690939F0680939E068091A60667
:100104008F5F8093A6060E94850A8091980690913D
:1001140099060817190720F480E0B8C081E001C0EF
:1001240080E0E091A006F091A1069081911107C0B2
:100134002FEF3FEF3093990620939806A7C0E091E4
:10014400A006F091A1060580F681E02D0680F781D6
:10015400E02D228133810217130728F43093990686
:100164002093980693C0A285B38524813581468166
:100174005781E9015D834C83268137814481558110
:10018400E9015B834A8311962D913C911297AF014B
:100194004E5F5F4F2417350731F42681378112965D
:1001A4003C932E931197138612869C9191509C93A5
:1001B400A489B589109719F12685378560897189D5
:1001C400E9017D836C832089318966857785E9011E
:1001D4007B836A8311966D917C9112979F01245FB2
:1001E4003F4F6217730731F42089318912963C938B
:1001F4002E931197158A148A9C9191509C93268969
:100204009091A906921710F42093A90630E0D90121
:10021400AA0FBB1FAA0FBB1FAA0FBB1F2A0F3B1F8E
:10022400D901A05CB94F11960D90BC91A02DB58356
:10023400A48314962D913C911597378326831496A5
:100244002D913C911597E9015B834A8315965C9344
:100254004E931497A689B0E09D01220F331F220FFD
:10026400331F220F331FA20FB31FA05CB94FB387F4
:10027400A2879C919F5F9C932689E091A206F091AE
:10028400A3069689921708F449CF4BCFE091A206B2
:10029400F091A306268930E0F901EE0FFF1FEE0F5F
:1002A400FF1FEE0FFF1F2E0F3F1FF901E05CF94FF8
:1002B4009081923008F081E09091A70691110CC0D2
:1002C4000CC080919A0690919B06019690939B0690
:1002D40080939A0680E001C081E0DF91CF911F9165
:0402E4000F910895D9
:1002E800CF93DF930FB6F8940F928091A4068150B4
:1002F8008093A4068091A4068111BFC08091AA06AC
:10030800811196C0BDC0E0917206F0917306068017
:10031800F781E02DA489B589C685D785808991891B
:100328009D838C83C089D189868597859B838A83A1
:1003380011962D913C911297CF010C9628173907E9
:1003480031F48089918912969C938E931197158A1E
:10035800148A8C9181508C93A285B385C481D581F0
:10036800868197819D838C83C681D781848195817D
:100378009B838A8311968D919C9112979F012E5F82
:100388003F4F8217930731F48681978112969C9389
:100398008E931197138612868C9181508C9386893F
:1003A8009091A906981710F48093A90690E0DC01B3
:1003B800AA0FBB1FAA0FBB1FAA0FBB1F8A0F9B1F29
:1003C800DC01A05CB94F11960D90BC91A02DB583AE
:1003D800A48314968D919C91159797838683149680
:1003E800CD91DC9115973B832A8315963C932E93E8
:1003F8001497A689B0E0CD01880F991F880F991F1F
:10040800880F991FA80FB91FA05CB94FB387A2879F
:100418008C918F5F8C939689A091A206B091A306C8
:1004280056968C91981730F081E08093A70602C009
:10043800E0E0F0E080916D06811165CFEF2B11F0BF
:100448000E94850AC0919A06D0919B06209769F070
:100458000E945A00882319F081E08093A70621970B
:10046800B9F710929B0610929A068091A7068823E6
:1004780031F00E948A0681E003C080E001C080E07C
:0A0488000F900FBEDF91CF91089591
:10049200EF92FF920F931F93CF93DF938C010E94F1
:1004A200140B8091940690919506892B11F40E9469
:1004B2001F0A0115110549F00B3F8FEF180718F4B9
:1004C2000B5F1F4F02C000E010E011230CF466C066
:1004D2000115110509F465C0809192069091930669
:1004E2008017910708F460C0C0918806D0918906F0
:1004F200E8E8F6E002C0FE01EC018A819B818017E8
:10050200910720F4888199810097A9F78091940638
:1005120090919506C817D90709F449C0E080F18087
:1005220084E0E80EF11C88819981918380832A817D
:100532003B81201B310B2930310550F0CE01800F59
:10054200911FFC01338322831B830A830E9482074B
:100552002A813B818091920690919306821B930B94
:100562009093930680939206409190065091910643
:100572008417950720F49093910680939006306833
:100582003B832A831982188280918E0690918F066E
:10059200019690938F0680938E060BC0E12CF12C6E
:1005A20008C0E12CF12C05C0E12CF12C02C0E12C99
:1005B200F12C0E947401C701DF91CF911F910F911D
:0605C200FF90EF90089588
:1005C800EF92FF921F93CF93DF93EC01643008F012
:1005D80063E00FB6F8940F92209721F4C091A20619
:1005E800D091A3068E89681709F47DC0861780F418
:1005F8002091A2063091A306C217D30791F0E0918B
:10060800A206F091A3069689691768F410E00EC057
:100618002091A2063091A306C217D30731F010E04B
:1006280005C010E003C011E001C011E06E8B2C85FD
:100638003D85332334F024E030E0261B31093D8723
:100648002C872A853B8590E0AC01440F551F440F49
:10065800551F440F551F840F951F805C994F28170D
:100668003907F1F57E0182E0E80EF11CC7010E940E
:10067800D1098E899091A906981710F48093A9063C
:1006880090E0FC01EE0FFF1FEE0FFF1FEE0FFF1FA4
:100698008E0F9F1FFC01E05CF94F0180F281E02D75
:1006A800FD83EC83848195819F838E83A481B581AA
:1006B8001396FC92EE921297F582E4828E8990E06E
:1006C800FC01EE0FFF1FEE0FFF1FEE0FFF1FE80FDD
:1006D800F91FE05CF94FFB87EA8780818F5F808391
:1006E80011110E948A060F900FBEDF91CF911F91C2
:0606F800FF90EF90089551
:1006FE00FF920F931F93CF93DF93EC01F62E009191
:10070E009C0610919D068091A2069091A3060296DA
:10071E000E94D109CF3F8FEFD807B1F5FF20A1F18D
:10072E00E4E6F6E0A181B281C091A206D091A306C3
:10073E00BD83AC83C091A206D091A30614968D9171
:10074E009C9115979F838E831496CD91DC9115976E
:10075E008091A2069091A30602969B838A83809134
:10076E00A2069091A306029615969C938E931497CB
:10077E00A091A206B091A3061B96FC93EE931A9736
:10078E0080818F5F80832FC0C00FD11FE091A206A2
:10079E00F091A306D383C283C017D10768F460918A
:1007AE00A2067091A30680919E0690919F066E5FA1
:1007BE007F4F0E94180917C06091A2067091A30680
:1007CE008091A0069091A1066E5F7F4F0E9418093E
:1007DE008091980690919906C817D90720F4D09366
:1007EE009906C0939806DF91CF911F910F91FF90BC
:0207FE0008955C
:10080000CF93DF93EC010FB6F8940F928091AA0674
:100810008F5F8093AA068091A2069091A306892BF0
:1008200059F4D093A306C093A2068091AA06813002
:1008300099F40E94E50810C08091A80681110CC0AF
:10084000E091A206F091A30696898E89891720F07F
:10085000D093A306C093A2068091A5068F5F8093D4
:10086000A5068E899091A906981710F48093A90681
:1008700090E0FC01EE0FFF1FEE0FFF1FEE0FFF1FBA
:100880008E0F9F1FFC01E05CF94F0180F281E02D8B
:10089000FD83EC83848195819F838E83A481B581C0
:1008A000CE01029613969C938E9312979583848320
:1008B000EE89F0E0CF01880F991F880F991F880FEC
:1008C000991FE80FF91FE05CF94FFB87EA878081E9
:1008D0008F5F80830F900FBE8091A806882351F010
:1008E000E091A206F091A30696898E89981710F4DC
:0A08F0000E948A06DF91CF9108955F
:1008FA006F927F928F929F92AF92BF92CF92DF9226
:10090A00EF92FF920F931F93CF93DF93CDB7DEB78A
:10091A003C01A62FCA01F4014789508D01501109E3
:10092A00040F151F0097A105D1F41EC0272F30E030
:10093A00AC016A2F420F531F611D37FD6A95FA01F8
:10094A00B49167FDB081F401E20FF31FB18FFA0190
:10095A00249167FD2081222329F07F5F01C070E086
:10096A00783020F3F40110A2F3E0FC1520F40F2EE6
:10097A00F3E0CF2EF02DF401C68AC40102960E943C
:10098A001A0BC4010C960E941A0BF40191868086F8
:10099A0084E090E08C19910995878487938A828AEA
:1009AA00A701B301C8010E946105F4019183808304
:1009BA00A114B10419F0F50191828082DF91CF91DF
:1009CA001F910F91FF90EF90DF90CF90BF90AF9063
:0A09DA009F908F907F906F9008951A
:1009E4004F925F926F927F928F929F92AF92BF923B
:1009F400CF92DF92EF92FF920F931F93CF93DF93E7
:100A040000D000D00F92CDB7DEB73C0149835A83A2
:100A14006B8349012801C9010E9449028C01892B79
:100A2400B9F086E290E00E9449029D838C83892B71
:100A340059F086E2EC81FD8111928A95E9F7EC8107
:100A4400FD81108F078B06C0C8010E94490802C0AF
:100A54001D821C828C819D81892BD1F0840120E030
:100A640030E01F921F921F928C809D805601CE2CE5
:100A7400720149815A816B81C3010E947D048C817A
:100A84009D810E9400040F900F900F9081E001C09F
:100A94008FEF0F900F900F900F900F90DF91CF91E9
:100AA4001F910F91FF90EF90DF90CF90BF90AF9088
:0E0AB4009F908F907F906F905F904F9008956D
:100AC20031E1FC013083319722E220833197A3E3A5
:100AD200A083319760833197708331971082319769
:100AE20060E8608331971082319762E060833197CA
:100AF20063E06083319764E06083319765E06083EF
:100B0200319766E06083319767E06083319768E0F0
:100B12006083319769E06083319760E16083319748
:100B22003083319732E13083319733E1308331972B
:100B320034E13083319735E13083319736E13083C8
:100B4200319737E13083319738E13083319739E19A
:100B52003083319730E23083319731E230833197FD
:100B62002083319723E2208331974083319750834A
:100B7200319726E22083319727E22083319728E2BA
:100B82002083319729E22083319720E32083319714
:080B920021E3208386970895FA
:100B9A000F931F93CF93DF93EC010FB6F8940F9244
:100BAA00892B21F4C091A206D091A3068E010E5F73
:100BBA001F4FC8010E94D1098C899D89892B21F078
:100BCA00CE010C960E94D109B80184E696E00E94F3
:100BDA00640A80E00FC0282F082E000C330BFE0198
:100BEA00E20FF31F95A1913021F4FE01E20FF31FEA
:100BFA0015A28F5F18167CF70F900FBE8091A8067A
:100C0A00882339F00FB6F8940F920E94850A0F9044
:100C1A000FBE8091A2069091A306C817D907A1F426
:100C2A008091A806882319F00E948A060DC0909127
:100C3A0064068091AA06981305C01092A306109222
:100C4A00A20602C00E94E306DF91CF911F910F9185
:020C5A000895FB
:100C5C000F920FB6F8940F921F9211242F923F927D
:100C6C004F925F926F927F928F929F92AF92BF92B0
:100C7C00CF92DF92EF92FF920F931F932F933F939C
:100C8C004F935F936F937F938F939F93AF93BF9388
:100C9C00CF93DF93EF93FF93A091A206B091A3069D
:100CAC000DB60D920EB60D920E945A0081110E9443
:100CBC00E306A091A206B091A306CD91CDBFDD9124
:100CCC00DEBFFF91EF91DF91CF91BF91AF919F91DB
:100CDC008F917F916F915F914F913F912F911F91C8
:100CEC000F91FF90EF90DF90CF90BF90AF909F90BF
:100CFC008F907F906F905F904F903F902F901F90B0
:080D0C000F900FBE0F90089537
:100D14000F920FB6F8940F921F9211242F923F92C4
:100D24004F925F926F927F928F929F92AF92BF92F7
:100D3400CF92DF92EF92FF920F931F932F933F93E3
:100D44004F935F936F937F938F939F93AF93BF93CF
:100D5400CF93DF93EF93FF93A091A206B091A306E4
:100D64000DB60D920EB60D920E94E306A091A20656
:100D7400B091A306CD91CDBFDD91DEBFFF91EF9180
:100D8400DF91CF91BF91AF919F918F917F916F919F
:100D94005F914F913F912F911F910F91FF90EF9091
:100DA400DF90CF90BF90AF909F908F907F906F9087
:100DB4005F904F903F902F901F900F900FBE0F9019
:020DC400089590
:100DC6008091A406882321F081E08093A7060895E8
:100DD6001092A7062091A90601C02150822F90E00B
:100DE600FC01EE0FFF1FEE0FFF1FEE0FFF1FE80FB8
:100DF600F91FE05CF94F3081332379F3AC01440FDE
:100E0600551F440F551F440F551F480F591FDF012B
:100E16000180F281E02D0280F381E02D1296FC9391
:100E2600EE9311974D5B594FE417F50729F442816C
:100E36005381FD0152834183FC01EE0FFF1FEE0F2C
:100E4600FF1FEE0FFF1F8E0F9F1FFC01E05CF94F87
:100E56000180F281E02D868197819093A30680938D
:080E6600A2062093A9060895DD
:100E6E001F93CF93DF93CDB7DEB764970FB6F89489
:100E7E00DEBF0FBECDBF6115710581059105B9F4B9
:100E8E002DC02AE030E040E050E00E94420AE1E04E
:100E9E00F0E0EC0FFD1FE10FF11D17FDFA95605DFF
:100EAE006083622F732F842F952F1F5F01C010E078
:100EBE00611571058105910521F711500CC0E1E016
:100ECE00F0E0EC0FFD1FE10FF11D17FDFA9580818B
:100EDE000E947D081150112394F703C080E30E94F5
:100EEE007D0864960FB6F894DEBF0FBECDBFDF91BE
:060EFE00CF911F91089541
:100F0400CF93DF93EC01A8E8B6E001C0DF01ED91D7
:100F1400FC911197EC17FD07C8F312968D919C91E3
:100F240013979D01280F391FC217D30749F42A814B
:100F34003B81820F931F13969C938E931297ED011E
:100F44008A819B819E01280F391FE217F307C1F4A0
:100F54002091940630919506E217F30771F02281EF
:100F64003381820F931F9B838A83ED91FC911197A8
:100F7400808191819983888305C03983288302C045
:100F8400F983E883CA17DB0711F0CD93DC93DF9173
:040F9400CF9108955C
:100F98000F931F93CF93DF938C01EB010E94140BE7
:100FA80040919C0650919D06F80120813181C9012C
:100FB8008C0F9D1F4217530740F48217930768F45C
:100FC8004817590760F0C0E00FC08217930748F030
:100FD8004817590740F0C0E007C0C0E005C0C1E0AD
:100FE80003C0C1E001C0C1E0F80191838083CC2334
:100FF80029F060E0841B950B0E947F030E94740116
:10100800811102C00E948A068C2FDF91CF911F9117
:041018000F91089597
:10101C008FE087BB80EF8ABB2FEF83EF91E02150ED
:10102C0080409040E1F700C0000088E20E94B108C7
:10103C0025ED2A95F1F7000082E00E94B1088FE3BC
:10104C009FE10197F1F700C0000086E00E94B10813
:10105C0095ED9A95F1F700008FE00E94B10884E1BC
:10106C000E94B10825ED2A95F1F7000081E00E945D
:10107C00B1088FEF93EC29E0815090402040E1F7CC
:06108C0000C00000089501
:101092000F931F93CF93DF93009749F1EC012497AD
:1010A2002A813B8133231CF548815981452BF9F470
:1010B2003F773B832A830E94140B8A819B81209174
:1010C200920630919306820F931F9093930680931A
:1010D2009206CE010E94820780918C0690918D0625
:1010E200019690938D0680938C060E947401DF9185
:0810F200CF911F910F910895A9
:1010FA009BB39F70282F207F922B9BBB98B3926043
:10110A0098BB98B39B7F98BB98B3986098BBEFE95C
:10111A00FFE03197F1F700C0000098B3977F98BBC2
:10112A002BB3F0E18F9FC0011124922F9F70892B5E
:10113A008BBB88B3826088BB88B38B7F88BB88B33C
:10114A00886088BB8FE99FE00197F1F700C0000033
:08115A0088B3877F88BB08956C
:101162009BB39F70282F207F922B9BBB98B39D7FB0
:1011720098BB98B39B7F98BB98B3986098BBEFE9F4
:10118200FFE03197F1F700C0000098B3977F98BB5A
:101192002BB3F0E18F9FC0011124922F9F70892BF6
:1011A2008BBB88B38D7F88BB88B38B7F88BB88B3AA
:1011B200886088BB8FE99FE00197F1F700C00000CB
:0811C20088B3877F88BB089504
:1011CA00CF93C0E010C08C2F90E09C01220F331FF8
:1011DA00220F331F220F331F820F931F805C994FF8
:1011EA000E94D10ACF5FC43070F38FE796E00E9465
:1011FA00D10A86E796E00E94D10A8DE696E00E941F
:10120A00D10A84E696E00E94D10A8FE796E090938D
:10121A00A1068093A00686E796E090939F068093A6
:06122A009E06CF9108951D
:10123000CF93DF93EB01488159814F3F2FEF520746
:1012400021F4FC01A781B0850DC0DC01139601C01B
:10125000DF011296ED91FC911397208131814217A5
:101260005307B0F71296ED91FC911397FB83EA8335
:10127000D583C483BD83AC831396DC93CE9312973E
:1012800099878887FC0120812F5F2083DF91CF9190
:021290000895BF
:101292000E94020BA091A206B091A306CD91CDBFF0
:1012A200DD91DEBFFF91EF91DF91CF91BF91AF91C1
:1012B2009F918F917F916F915F914F913F912F916C
:1012C2001F910F91FF90EF90DF90CF90BF90AF9062
:1012D2009F908F907F906F905F904F903F902F9054
:0E12E2001F900F900FBE0F90089581E00895A9
:1012F000CF92DF92EF920F931F930F2EF6E9CF2E2E
:10130000F6E0DF2EF02DE12C00E010E025E530E0E6
:101310004EEA50E060E08BE09BE00E94F2048130F6
:1013200081F4F8948FEF9FEF90939906809398063D
:1013300081E08093A80610929D0610929C060E9460
:0E13400049091F910F91EF90DF90CF90089513
:10134E0084B3846084BB84B3806884BBC12CD12CED
:10135E006894EE24E1F800E010E024E630E040E08E
:10136E0050E060E088EF99E00E94F2040F2EF2E662
:10137E00CF2EF0E0DF2EF02DEE24E39424E630E0C5
:10138E0040E050E060E081EA9AE00E94F2040E94A0
:04139E007809FFCFFC
:1013A200CF93DF93FC01A085B185C281D381848173
:1013B20095819D838C83C481D581828193819B8316
:1013C2008A8311968D919C911297E817F90731F44F
:1013D2008481958112969C938E9311971186108623
:0E13E2008C9181508C938C91DF91CF91089566
:1013F000CF93DF9300D0CDB7DEB70E940E080E94D6
:10140000F80A9A83898368EE73E0CE0101960E9400
:10141000CC0780916200909163000E94BC0A682F03
:1014200070E080E090E00E9437072FEF89E698E1B6
:0E143000215080409040E1F700C00000E4CF62
:10143E00E8E8F6E0A4E6B0E0B183A083138212825E
:10144E00ECE3F6E0F0939506E09394061382128295
:10145E001182108288ED95E013969C938E931297CD
:10146E00ED93FC9390939106809390069093930640
:06147E0080939206089520
:10148400A1E21A2EAA1BBB1BFD010DC0AA1FBB1F84
:10149400EE1FFF1FA217B307E407F50720F0A21BF6
:1014A400B30BE40BF50B661F771F881F991F1A9463
:1014B40069F760957095809590959B01AC01BD018D
:0414C400CF010895B7
:1014C800CF93DF939C01FB01DC011196CD91DC9158
:1014D8001297D383C2838C819D81958384838C8169
:1014E8009D81DC0113967C936E9312977D836C83A8
:1014F80031872087F90180818F5F8083DF91CF91C9
:02150800089544
:10150A00E091A006F091A1068081811107C08FEFBA
:10151A009FEF90939906809398060895E091A0060C
:10152A00F091A1060580F681E02D8081918190934A
:08153A009906809398060895BC
:10154200CF93DF9300D0CDB7DEB70E94F80A9A831B
:10155200898360ED77E0CE0101960E94CC0795B3B6
:1015620084E0892785BB63E08091620090916300EB
:061572000E94E402EECF2E
:101578000FB6F8940F92009731F48091A2069091DB
:10158800A306A0E801C0A0E84696A11DFC0184912D
:0A159800A7FD80810F900FBE08959B
:1015A200FC010396928381832FEF3FEF34832383E1
:0C15B200968385839087878310820895BC
:1015BE0061E080916200909163000E94E40280914C
:0C15CE006200909163000E94CD0508951A
:1015DA00EC010E94260B0E94250BCE010E94270BCC
:0615EA00CE010E94230B5C
:1015F0000FB6F8940F9280919C0690919D060F90E3
:041600000FBE08957C
:101604001BBC89EF8ABD8BE08EBD89B7806189BF21
:02161400089537
:1016160080914006823010F00E948A060E94DF0AFE
:02162600F7CFFC
:0C1628008091A4068F5F8093A4060895B3
:08163400FC01118610860895E7
:06163C000E942E06189525
:041642000C94000004
:041646000E945500A9
:02164A00089501
:02164C000895FF
:02164E000895FD
:00000001FF
