:100000000C942D000C9481070C9481070C948107AB
:100010000C9481070C9481070C9481070C947B0746
:100020000C9481070C9481070C9481070C94810730
:100030000C9481070C9481070C9481070C94810720
:100040000C9481070C9481070C9481070C94810710
:100050000C948107006001CC800011241FBECFE505
:10006000D8E0DEBFCDBFE4E5F0E040E017C0B591D9
:10007000A59135912591059107FD0CC0959185912C
:10008000EF01F92FE82F05900D92A217B307D9F7CA
:10009000FE0104C01D92A217B307E1F7E935F4078A
:0E00A00031F70E9407060C945D07F894FFCF1D
:0600AE0049444C4500032B
:1000B4000F931F93CF93DF938091C401811101C1EA
:1000C400C091BC01D091BD018E010F5F1F4F1093F1
:1000D400BD010093BC0101151105B9F48091C00163
:1000E4009091C1012091BE013091BF013093C101B3
:1000F4002093C0019093BF018093BE018091C601FB
:100104008F5F8093C6010E94E7068091B8019091A9
:10011400B9010817190720F480E0B8C081E001C0D4
:1001240080E0E091C001F091C1019081911107C07C
:100134002FEF3FEF3093B9012093B801A7C0E091AE
:10014400C001F091C1010580F681E02D0680F781A0
:10015400E02D228133810217130728F43093B9016B
:100164002093B80193C0A285B3852481358146814B
:100174005781E9015D834C83268137814481558110
:10018400E9015B834A8311962D913C911297AF014B
:100194004E5F5F4F2417350731F42681378112965D
:1001A4003C932E931197138612869C9191509C93A5
:1001B400A489B589109719F12685378560897189D5
:1001C400E9017D836C832089318966857785E9011E
:1001D4007B836A8311966D917C9112979F01245FB2
:1001E4003F4F6217730731F42089318912963C938B
:1001F4002E931197158A148A9C9191509C93268969
:100204009091C901921710F42093C90130E0D901EB
:10021400AA0FBB1FAA0FBB1FAA0FBB1F2A0F3B1F8E
:10022400D901A959BE4F11960D90BC91A02DB5834B
:10023400A48314962D913C911597378326831496A5
:100244002D913C911597E9015B834A8315965C9344
:100254004E931497A689B0E09D01220F331F220FFD
:10026400331F220F331FA20FB31FA959BE4FB387E9
:10027400A2879C919F5F9C932689E091C201F09193
:10028400C3019689921708F449CF4BCFE091C2017C
:10029400F091C301268930E0F901EE0FFF1FEE0F44
:1002A400FF1FEE0FFF1F2E0F3F1FF901E959FE4FED
:1002B4009081923008F081E09091C70191110CC0B7
:1002C4000CC08091BA019091BB0101969093BB013F
:1002D4008093BA0180E001C081E0DF91CF911F914A
:0402E4000F910895D9
:1002E800CF93DF930FB6F8940F928091C401815099
:1002F8008093C4018091C4018111BFC08091CA015B
:10030800811196C0BDC0E091A201F091A3010680C1
:10031800F781E02DA489B589C685D785808991891B
:100328009D838C83C089D189868597859B838A83A1
:1003380011962D913C911297CF010C9628173907E9
:1003480031F48089918912969C938E931197158A1E
:10035800148A8C9181508C93A285B385C481D581F0
:10036800868197819D838C83C681D781848195817D
:100378009B838A8311968D919C9112979F012E5F82
:100388003F4F8217930731F48681978112969C9389
:100398008E931197138612868C9181508C9386893F
:1003A8009091C901981710F48093C90190E0DC017D
:1003B800AA0FBB1FAA0FBB1FAA0FBB1F8A0F9B1F29
:1003C800DC01A959BE4F11960D90BC91A02DB583A3
:1003D800A48314968D919C91159797838683149680
:1003E800CD91DC9115973B832A8315963C932E93E8
:1003F8001497A689B0E0CD01880F991F880F991F1F
:10040800880F991FA80FB91FA959BE4FB387A28794
:100418008C918F5F8C939689A091C201B091C30192
:1004280056968C91981730F081E08093C70102C0EE
:10043800E0E0F0E080919D01811165CFEF2B11F094
:100448000E94E706C091BA01D091BB01209769F0DC
:100458000E945A00882319F081E08093C7012197F0
:10046800B9F71092BB011092BA018091C701882395
:1004780031F00E94E00481E003C080E001C080E028
:0A0488000F900FBEDF91CF91089591
:10049200FF920F931F93CF93DF93EC01F62E0091FF
:1004A200BC011091BD018091C2019091C3010296DD
:1004B2000E949A06CF3F8FEFD807B1F5FF20A1F136
:1004C200EBE8F1E0A181B281C091C201D091C301F8
:1004D200BD83AC83C091C201D091C30114968D91AA
:1004E2009C9115979F838E831496CD91DC911597DD
:1004F2008091C2019091C30102969B838A8380916D
:10050200C2019091C301029615969C938E93149703
:10051200A091C201B091C3011B96FC93EE931A976E
:1005220080818F5F80832FC0C00FD11FE091C201F5
:10053200F091C301D383C283C017D10768F46091DD
:10054200C2017091C3018091BE019091BF016E5FA3
:100552007F4F0E943A0617C06091C2017091C30199
:100562008091C0019091C1016E5F7F4F0E943A0657
:100572008091B8019091B901C817D90720F4D0939E
:10058200B901C093B801DF91CF911F910F91FF90F4
:020592000895CA
:10059400CF93DF93EC010FB6F8940F928091CA01C8
:1005A4008F5F8093CA018091C2019091C301892B0E
:1005B40059F4D093C301C093C2018091CA01813020
:1005C40099F40E94D00510C08091C80181110CC01B
:1005D400E091C201F091C30196898E89891720F0B8
:1005E400D093C301C093C2018091C5018F5F8093F2
:1005F400C5018E899091C901981710F48093C9019F
:1006040090E0FC01EE0FFF1FEE0FFF1FEE0FFF1F28
:100614008E0F9F1FFC01E959FE4F0180F281E02DEE
:10062400FD83EC83848195819F838E83A481B5812E
:10063400CE01029613969C938E931297958384838E
:10064400EE89F0E0CF01880F991F880F991F880F5A
:10065400991FE80FF91FE959FE4FFB87EA8780814C
:100664008F5F80830F900FBE8091C801882351F063
:10067400E091C201F091C30196898E89981710F414
:0A0684000E94E004DF91CF91089579
:10068E006F927F928F929F92AF92BF92CF92DF9294
:10069E00EF92FF920F931F93CF93DF93CDB7DEB7F9
:1006AE003C01A62FCA01F4014789508D0150110952
:1006BE00040F151F0097A105D1F41EC0272F30E09F
:1006CE00AC016A2F420F531F611D37FD6A95FA0167
:1006DE00B49167FDB081F401E20FF31FB18FFA01FF
:1006EE00249167FD2081222329F07F5F01C070E0F5
:1006FE00783020F3F40110A2F3E0FC1520F40F2E55
:10070E00F3E0CF2EF02DF401C68AC40102960E94AA
:10071E007707C4010C960E947707F40191868086B4
:10072E0084E090E08C19910995878487938A828A58
:10073E00A701B301C8010E94BC03F4019183808319
:10074E00A114B10419F0F50191828082DF91CF914D
:10075E001F910F91FF90EF90DF90CF90BF90AF90D1
:0A076E009F908F907F906F90089588
:1007780031E1FC013083319722E220833197A3E3F2
:10078800A0833197608331977083319710823197B6
:1007980060E8608331971082319762E06083319717
:1007A80063E06083319764E06083319765E060833C
:1007B800319766E06083319767E06083319768E03E
:1007C8006083319769E06083319760E16083319796
:1007D8003083319732E13083319733E13083319779
:1007E80034E13083319735E13083319736E1308316
:1007F800319737E13083319738E13083319739E1E8
:100808003083319730E23083319731E2308331974A
:100818002083319723E22083319740833197508397
:10082800319726E22083319727E22083319728E207
:100838002083319729E22083319720E32083319761
:0808480021E320838697089547
:100850000F920FB6F8940F921F9211242F923F928D
:100860004F925F926F927F928F929F92AF92BF92C0
:10087000CF92DF92EF92FF920F931F932F933F93AC
:100880004F935F936F937F938F939F93AF93BF9398
:10089000CF93DF93EF93FF93A091C201B091C30177
:1008A0000DB60D920EB60D920E945A0081110E9453
:1008B0003905A091C201B091C301CD91CDBFDD91A9
:1008C000DEBFFF91EF91DF91CF91BF91AF919F91EB
:1008D0008F917F916F915F914F913F912F911F91D8
:1008E0000F91FF90EF90DF90CF90BF90AF909F90CF
:1008F0008F907F906F905F904F903F902F901F90C0
:080900000F900FBE0F90089547
:100908008F929F92AF92BF92CF92EF92FF920F93E6
:100918001F93CF93DF93CDB7DEB728970FB6F89420
:10092800DEBF0FBECDBF18861F821E821D82AE019C
:100938004F5F5F4FBE016B5F7F4FCE0107960E94EE
:100948002F078F809884AD80BE8009811A812B8102
:100958003C81C12CE12CF12C4EEA50E060E08EE79E
:1009680097E00E948D05892B11F081E001C080E09D
:10097800813081F4F8948FEF9FEF9093B9018093C1
:10098800B80181E08093C8011092BD011092BC01AA
:100998000E946B0628960FB6F894DEBF0FBECDBF37
:1009A800DF91CF911F910F91FF90EF90CF90BF9063
:0809B800AF909F908F9008950D
:1009C0000F920FB6F8940F921F9211242F923F921C
:1009D0004F925F926F927F928F929F92AF92BF924F
:1009E000CF92DF92EF92FF920F931F932F933F933B
:1009F0004F935F936F937F938F939F93AF93BF9327
:100A0000CF93DF93EF93FF93A091C201B091C30105
:100A10000DB60D920EB60D920E943905A091C2013D
:100A2000B091C301CD91CDBFDD91DEBFFF91EF91BC
:100A3000DF91CF91BF91AF919F918F917F916F91F6
:100A40005F914F913F912F911F910F91FF90EF90E8
:100A5000DF90CF90BF90AF909F908F907F906F90DE
:100A60005F904F903F902F901F900F900FBE0F9070
:020A70000895E7
:100A72008091C401882321F081E08093C701089509
:100A82001092C7012091C90101C02150822F90E02C
:100A9200FC01EE0FFF1FEE0FFF1FEE0FFF1FE80F0F
:100AA200F91FE959FE4F3081332379F3AC01440F2A
:100AB200551F440F551F440F551F480F591FDF0183
:100AC2000180F281E02D0280F381E02D1296FC93E9
:100AD200EE93119746595E4FE417F50729F44281C8
:100AE2005381FD0152834183FC01EE0FFF1FEE0F84
:100AF200FF1FEE0FFF1F8E0F9F1FFC01E959FE4FD4
:100B02000180F281E02D868197819093C3018093C9
:080B1200C2012093C9010895FE
:100B1A006F927F928F929F92AF92BF92CF92EF92F3
:100B2A00FF920F931F93CF93DF9300D0CDB7DEB719
:100B3A0081149104E1F0A114B104C9F077E2F4013F
:100B4A0011927A95E9F7F401B08EA78A72E076A33A
:100B5A001F921F921F92FE0131965F010E94470366
:100B6A00C4010E94CA020F900F900F9002C01A820D
:100B7A00198289819A810F900F90DF91CF911F91ED
:100B8A000F91FF90EF90CF90BF90AF909F908F9072
:060B9A007F906F900895AA
:100BA000CF93C0E010C08C2F90E09C01220F331F28
:100BB000220F331F220F331F820F931F89599E4F1D
:100BC0000E944307CF5FC43070F38FEA91E00E9428
:100BD000430786EA91E00E9443078DE991E00E9475
:100BE000430784E991E00E9443078BE891E00E946B
:100BF00043078FEA91E09093C1018093C00186EA98
:0E0C000091E09093BF018093BE01CF910895C3
:100C0E008F929F92AF92BF92CF92EF92FF920F93DD
:100C1E001F930F2EF4EC8F2EF0E09F2EF02D0F2E43
:100C2E00F0E6AF2EF0E0BF2EF02D6894CC24C1F884
:100C3E00E12CF12C04E610E020E030E040E050E042
:100C4E0060E081E597E00E948D050E94840480E0BB
:100C5E0090E01F910F91FF90EF90CF90BF90AF90CB
:060C6E009F908F90089595
:100C7400CF93DF93EB01488159814F3F2FEF520708
:100C840021F4FC01A781B0850DC0DC01139601C0DD
:100C9400DF011296ED91FC91139720813181421767
:100CA4005307B0F71296ED91FC911397FB83EA83F7
:100CB400D583C483BD83AC831396DC93CE93129700
:100CC40099878887FC0120812F5F2083DF91CF9152
:020CD400089581
:100CD6000E946807A091C201B091C301CD91CDBF1A
:100CE600DD91DEBFFF91EF91DF91CF91BF91AF9183
:100CF6009F918F917F916F915F914F913F912F912E
:100D06001F910F91FF90EF90DF90CF90BF90AF9023
:100D16009F908F907F906F905F904F903F902F9015
:0E0D26001F900F900FBE0F90089581E008956A
:100D3400CF93DF93FC01A085B185C281D3818481E7
:100D440095819D838C83C481D581828193819B838A
:100D54008A8311968D919C911297E817F90731F4C3
:100D64008481958112969C938E9311971186108697
:0E0D74008C9181508C938C91DF91CF910895DA
:100D8200CF93DF931CC00FB6F8940F92E0919901B4
:100D9200F0919A01C681D781CE0102960E949A06ED
:100DA2008091CA0181508093CA018091CB01815008
:100DB2008093CB010F900FBECE010E94030780915A
:0C0DC200CB018111E0CFDF91CF910895AB
:100DCE00E091C001F091C1018081811107C08FEFC8
:100DDE009FEF9093B9018093B8010895E091C001FF
:100DEE00F091C1010580F681E02D80819181909373
:080DFE00B9018093B8010895CA
:100E0600CF93DF93EC018EA1811108C08F89988D55
:100E16000E948507CE010E94850705C0813019F41E
:0C0E2600CE010E948507DF91CF91089556
:100E3200CF93DF93EC01892B49F00E94710760E0A8
:100E4200CE010E9449020E94740101C080E081111A
:0C0E520002C00E94E004DF91CF910895DF
:100E5E0020E431E0FC01318320838BEE90E0FB0136
:100E6E009183808385E590E0A0E0B0E0FA01808375
:080E7E009183A283B383089560
:100E8600FC010396928381832FEF3FEF3483238304
:0C0E9600968385839087878310820895DF
:100EA20081B3886081BB92B388E0892782BB84EFDB
:080EB20091E00E941907F7CF3F
:100EBA00EC010E9487070E948607CE010E948807DC
:060ECA00CE010E94830727
:100ED0001BBC89EF8ABD8BE08EBD89B7806189BF5D
:020EE000089573
:0C0EE2008091C4018F5F8093C4010895CB
:080EEE00FC0111861086089535
:060EF6000E94280418957B
:060EFC000E94C106FDCFBB
:040F02000C9400004B
:040F06000E945500F0
:020F0A00089548
:020F0C00089546
:020F0E00089544
:020F1000089542
:00000001FF
