:100000000C942D000C94190B0C94190B0C94190BD7
:100010000C94190B0C94190B0C94190B0C94130BD6
:100020000C94190B0C94190B0C94190B0C94190BC0
:100030000C94190B0C94190B0C94190B0C94190BB0
:100040000C94190B0C94190B0C94190B0C94190BA0
:100050000C94190B006006A9800011241FBECFE587
:10006000D8E0DEBFCDBFE4E5F0E040E017C0B591D9
:10007000A59135912591059107FD0CC0959185912C
:10008000EF01F92FE82F05900D92A217B307D9F7CA
:10009000FE0104C01D92A217B307E1F7E935F4078A
:0E00A00031F70E94C9070C94ED0AF894FFCFC7
:0600AE0049444C4500032B
:0500B400446F6E6500C1
:1000BA000F931F93CF93DF938091A106811101C102
:1000CA00C0919906D0919A068E010F5F1F4F109327
:1000DA009A060093990601151105B9F480919D06B7
:1000EA0090919E0620919B0630919C0630939E0625
:1000FA0020939D0690939C0680939B068091A3066D
:10010A008F5F8093A3060E94370A8091950690918B
:10011A0096060817190720F480E0B8C081E001C0EC
:10012A0080E0E0919D06F0919E069081911107C0B2
:10013A002FEF3FEF3093960620939506A7C0E091E4
:10014A009D06F0919E060580F681E02D0680F781D6
:10015A00E02D228133810217130728F43093960683
:10016A002093950693C0A285B38524813581468163
:10017A005781E9015D834C8326813781448155810A
:10018A00E9015B834A8311962D913C911297AF0145
:10019A004E5F5F4F2417350731F426813781129657
:1001AA003C932E931197138612869C9191509C939F
:1001BA00A489B589109719F12685378560897189CF
:1001CA00E9017D836C832089318966857785E90118
:1001DA007B836A8311966D917C9112979F01245FAC
:1001EA003F4F6217730731F42089318912963C9385
:1001FA002E931197158A148A9C9191509C93268963
:10020A009091A606921710F42093A60630E0D90121
:10021A00AA0FBB1FAA0FBB1FAA0FBB1F2A0F3B1F88
:10022A00D901A45CB94F11960D90BC91A02DB5834C
:10023A00A48314962D913C9115973783268314969F
:10024A002D913C911597E9015B834A8315965C933E
:10025A004E931497A689B0E09D01220F331F220FF7
:10026A00331F220F331FA20FB31FA45CB94FB387EA
:10027A00A2879C919F5F9C932689E0919F06F091AB
:10028A00A0069689921708F449CF4BCFE0919F06B2
:10029A00F091A006268930E0F901EE0FFF1FEE0F5C
:1002AA00FF1FEE0FFF1F2E0F3F1FF901E45CF94FEE
:1002BA009081923008F081E09091A40691110CC0CF
:1002CA000CC0809197069091980601969093980693
:1002DA008093970680E001C081E0DF91CF911F9162
:0402EA000F910895D3
:1002EE00CF93DF930FB6F8940F928091A1068150B1
:1002FE008093A1068091A1068111BFC08091A706AF
:10030E00811196C0BDC0E0917706F0917806068007
:10031E00F781E02DA489B589C685D7858089918915
:10032E009D838C83C089D189868597859B838A839B
:10033E0011962D913C911297CF010C9628173907E3
:10034E0031F48089918912969C938E931197158A18
:10035E00148A8C9181508C93A285B385C481D581EA
:10036E00868197819D838C83C681D7818481958177
:10037E009B838A8311968D919C9112979F012E5F7C
:10038E003F4F8217930731F48681978112969C9383
:10039E008E931197138612868C9181508C93868939
:1003AE009091A606981710F48093A60690E0DC01B3
:1003BE00AA0FBB1FAA0FBB1FAA0FBB1F8A0F9B1F23
:1003CE00DC01A45CB94F11960D90BC91A02DB583A4
:1003DE00A48314968D919C9115979783868314967A
:1003EE00CD91DC9115973B832A8315963C932E93E2
:1003FE001497A689B0E0CD01880F991F880F991F19
:10040E00880F991FA80FB91FA45CB94FB387A28795
:10041E008C918F5F8C939689A0919F06B091A006C8
:10042E0056968C91981730F081E08093A40602C006
:10043E00E0E0F0E080917206811165CFEF2B11F0B4
:10044E000E94370AC0919706D0919806209769F0BE
:10045E000E945D00882319F081E08093A406219705
:10046E00B9F710929806109297068091A4068823E9
:10047E0031F00E947E0681E003C080E001C080E082
:0A048E000F900FBEDF91CF9108958B
:10049800CF93DF93DC01706811967C936E93169668
:1004A800ED91FC91179718964D915C9119971296BA
:1004B8008D919C91139714962D913C911597EC0171
:1004C8003D832C8314968D919C91159712962D91AE
:1004D8003C911397EC013B832A83EA0189819A8135
:1004E800A817B90731F414968D919C9115979A83A2
:1004F800898319961C921E921897DA018C91815063
:100508008C93A285B385C481D581868197819D838B
:100518008C83C681D781848195819B838A83119638
:100528008D919C9112979F012E5F3F4F82179307E1
:1005380031F48681978112969C938E931197138636
:1005480012868C9181508C9386899091A606981773
:1005580010F48093A60690E0DC01AA0FBB1FAA0F37
:10056800BB1FAA0FBB1F8A0F9B1FDC01A45CB94FDE
:1005780011960D90BC91A02DB583A48314968D91EE
:100588009C911597978386831496CD91DC91159746
:100598003B832A8315963C932E931497A689B0E043
:1005A800CD01880F991F880F991F880F991FA80FD1
:1005B800B91FA45CB94FB387A2878C918F5F8C93C6
:1005C8009689E0919F06F091A0068689891718F40C
:0C05D80081E08093A406DF91CF9108958C
:1005E400FF920F931F93CF93DF93EC01F62E0091AC
:1005F400990610919A0680919F069091A006029602
:100604000E94A809CF3F8FEFD807B1F5FF20A1F1D1
:10061400E0E6F6E0A181B281C0919F06D091A006E8
:10062400BD83AC83C0919F06D091A00614968D9192
:100634009C9115979F838E831496CD91DC91159789
:1006440080919F069091A00602969B838A83809155
:100654009F069091A006029615969C938E931497EC
:10066400A0919F06B091A0061B96FC93EE931A9757
:1006740080818F5F80832FC0C00FD11FE0919F06C0
:10068400F091A006D383C283C017D10768F46091A8
:100694009F067091A00680919B0690919C066E5FC8
:1006A4007F4F0E94190917C060919F067091A006A0
:1006B40080919D0690919E066E5F7F4F0E9419095E
:1006C4008091950690919606C817D90720F4D09387
:1006D4009606C0939506DF91CF911F910F91FF90DD
:0206E400089577
:1006E600CF93DF93EC010FB6F8940F928091A70693
:1006F6008F5F8093A70680919F069091A006892B15
:1007060059F4D093A006C0939F068091A706813026
:1007160099F40E947A0810C08091A50681110CC038
:10072600E0919F06F091A00696898E89891720F0A0
:10073600D093A006C0939F068091A2068F5F8093F8
:10074600A2068E899091A606981710F48093A606A5
:1007560090E0FC01EE0FFF1FEE0FFF1FEE0FFF1FD5
:100766008E0F9F1FFC01E45CF94F0180F281E02DA2
:10077600FD83EC83848195819F838E83A481B581DB
:10078600CE01029613969C938E931297958384833B
:10079600EE89F0E0CF01880F991F880F991F880F07
:1007A600991FE80FF91FE45CF94FFB87EA87808100
:1007B6008F5F80830F900FBE8091A506882351F02E
:1007C600E0919F06F091A00696898E89981710F4FD
:0A07D6000E947E06DF91CF91089586
:1007E0006F927F928F92BF92CF92DF92EF92FF92A1
:1007F0000F931F93CF93DF93EC018B013C0182E0B9
:10080000680E711C80E8882EE82C630183E0C80E16
:10081000D11CE11C0E94090B85E0680E711C811C33
:10082000F301582D0E94010BFB0188819981082B4F
:10083000192B1983088300E010E02AC0B280F380EE
:10084000808191819C01332792FD08C048815981A4
:1008500042235323452B59F440E00CC04881598171
:10086000422353232417350721F040E003C041E021
:1008700001C041E0442351F090FF02C0022B132B32
:10088000688179817260CF010E944C02EB2DFF2DAF
:10089000CF01A0E8C816D906EA0681F600951095A2
:1008A0008881998108231923198308830E9477017D
:1008B00088819981DF91CF911F910F91FF90EF90E7
:0E08C000DF90CF90BF908F907F906F90089543
:1008CE006F927F928F929F92AF92BF92CF92DF9252
:1008DE00EF92FF920F931F93CF93DF93CDB7DEB7B7
:1008EE003C01A62FCA01F4014789508D0150110910
:1008FE00040F151F0097A105D1F41EC0272F30E05D
:10090E00AC016A2F420F531F611D37FD6A95FA0124
:10091E00B49167FDB081F401E20FF31FB18FFA01BC
:10092E00249167FD2081222329F07F5F01C070E0B2
:10093E00783020F3F40110A2F3E0FC1520F40F2E12
:10094E00F3E0CF2EF02DF401C68AC40102960E9468
:10095E000F0BC4010C960E940F0BF401918680863A
:10096E0084E090E08C19910995878487938A828A16
:10097E00A701B301C8010E944B05F4019183808346
:10098E00A114B10419F0F50191828082DF91CF910B
:10099E001F910F91FF90EF90DF90CF90BF90AF908F
:0A09AE009F908F907F906F90089546
:1009B8004F925F926F927F928F929F92AF92BF9267
:1009C800CF92DF92EF92FF920F931F93CF93DF9313
:1009D80000D000D00F92CDB7DEB73C0149835A83CF
:1009E8006B8349012801C9010E9440088C01892BA9
:1009F800B9F086E290E00E9440089D838C83892BA1
:100A080059F086E2EC81FD8111928A95E9F7EC8133
:100A1800FD81108F078B06C0C8010E941D0B02C004
:100A28001D821C828C819D81892BD1F0840120E05C
:100A380030E01F921F921F928C809D805601CE2C11
:100A4800720149815A816B81C3010E9467048C81BC
:100A58009D810E9473030F900F900F9081E001C059
:100A68008FEF0F900F900F900F900F90DF91CF9115
:100A78001F910F91FF90EF90DF90CF90BF90AF90B4
:0E0A88009F908F907F906F905F904F90089599
:100A960031E1FC013083319722E220833197A3E3D1
:100AA600A083319760833197708331971082319795
:100AB60060E8608331971082319762E060833197F6
:100AC60063E06083319764E06083319765E060831B
:100AD600319766E06083319767E06083319768E01D
:100AE6006083319769E06083319760E16083319775
:100AF6003083319732E13083319733E13083319758
:100B060034E13083319735E13083319736E13083F4
:100B1600319737E13083319738E13083319739E1C6
:100B26003083319730E23083319731E23083319729
:100B36002083319723E22083319740833197508376
:100B4600319726E22083319727E22083319728E2E6
:100B56002083319729E22083319720E32083319740
:080B660021E320838697089526
:100B6E00AF92BF92CF92DF92EF92FF920F931F93AD
:100B7E00CF93DF938C01EB017A0169010E94090B7F
:100B8E00F801A080B180BE01C8010E94F003CA29FD
:100B9E00DB29CE018E219F21E816F90669F4F801B2
:100BAE0020813181C7018095909582239323918373
:100BBE008083C12CD12C10C0C114D10451F0A601D8
:100BCE00B7017560C80102960E948307C0E0D0E0AD
:100BDE0003C0F801C081D1810E947701CD28F9F0C0
:100BEE00811102C00E947E060E946B0A91FD15C003
:100BFE000FB6F8940F92F801808191819701282306
:100C0E003923E216F30639F4A7014095509548238F
:100C1E005923518340830F900FBEEC01DD27CE0187
:100C2E00DF91CF911F910F91FF90EF90DF90CF90BA
:060C3E00BF90AF90089585
:100C44000F920FB6F8940F921F9211242F923F9295
:100C54004F925F926F927F928F929F92AF92BF92C8
:100C6400CF92DF92EF92FF920F931F932F933F93B4
:100C74004F935F936F937F938F939F93AF93BF93A0
:100C8400CF93DF93EF93FF93A0919F06B091A006BB
:100C94000DB60D920EB60D920E945D0081110E9458
:100CA4002F07A0919F06B091A006CD91CDBFDD91F5
:100CB400DEBFFF91EF91DF91CF91BF91AF919F91F3
:100CC4008F917F916F915F914F913F912F911F91E0
:100CD4000F91FF90EF90DF90CF90BF90AF909F90D7
:100CE4008F907F906F905F904F903F902F901F90C8
:080CF4000F900FBE0F90089550
:100CFC000F920FB6F8940F921F9211242F923F92DD
:100D0C004F925F926F927F928F929F92AF92BF920F
:100D1C00CF92DF92EF92FF920F931F932F933F93FB
:100D2C004F935F936F937F938F939F93AF93BF93E7
:100D3C00CF93DF93EF93FF93A0919F06B091A00602
:100D4C000DB60D920EB60D920E942F07A0919F0624
:100D5C00B091A006CD91CDBFDD91DEBFFF91EF919B
:100D6C00DF91CF91BF91AF919F918F917F916F91B7
:100D7C005F914F913F912F911F910F91FF90EF90A9
:100D8C00DF90CF90BF90AF909F908F907F906F909F
:100D9C005F904F903F902F901F900F900FBE0F9031
:020DAC000895A8
:100DAE000F931F93CF93DF93EC010FB6F8940F922E
:100DBE00892B21F4C0919F06D091A0068E010E5F63
:100DCE001F4FC8010E94A8098C899D89892B21F08B
:100DDE00CE010C960E94A8098091A2068F5F809387
:100DEE00A20680919F069091A006C817D90759F4C4
:100DFE00B80189E696E00E94160A8091A8068F5FD8
:100E0E008093A80607C08091A70681508093A706FD
:100E1E000E94370A0F900FBE80919F069091A006F8
:100E2E00C817D90719F0CE010E94E00A8091A506D5
:100E3E00882349F080919F069091A006C817D90784
:100E4E0011F40E947E06DF91CF911F910F910895AC
:100E5E008091A106882321F081E08093A406089555
:100E6E001092A4062091A60601C02150822F90E078
:100E7E00FC01EE0FFF1FEE0FFF1FEE0FFF1FE80F1F
:100E8E00F91FE45CF94F3081332379F3AC01440F41
:100E9E00551F440F551F440F551F480F591FDF0193
:100EAE000180F281E02D0280F381E02D1296FC93F9
:100EBE00EE931197415C594FE417F50729F44281DF
:100ECE005381FD0152834183FC01EE0FFF1FEE0F94
:100EDE00FF1FEE0FFF1F8E0F9F1FFC01E45CF94FEB
:100EEE000180F281E02D868197819093A0068093F8
:080EFE009F062093A60608954B
:100F0600CF93DF93FC01A0919F06B091A006706875
:100F16001D967C936E931C97A181B281C0919F060A
:100F2600D091A006BF87AE87C0919F06D091A0063C
:100F360014968D919C911597998B888B1496CD91CB
:100F4600DC91159720919F063091A006245F3F4FB4
:100F56003B832A8320919F063091A006245F3F4F52
:100F660015963C932E931497A0919F06B091A006D8
:100F76005596FC93EE93549790819F5F908361E022
:0C0F8600CA010E94F202DF91CF91089591
:100F9200CF92DF92EF920F931F930E9405080E9457
:100FA200AE0A9093920680939106892B09F4FFCFA3
:100FB200C12CD12C6894EE24E1F800E010E025E584
:100FC20030E040E050E060E083E59AE00E94DC041B
:100FD20025E530E040E050E060E081EC9AE00E94DC
:100FE200DC0425E530E040E050E060E082E89AE091
:100FF2000E94DC040E94790980E090E01F910F9129
:08100200EF90DF90CF900895FC
:10100A008FE087BB80EF8ABB2FEF83EF91E02150FF
:10101A0080409040E1F700C0000088E20E94E508A5
:10102A0025ED2A95F1F7000082E00E94E5088FE39A
:10103A009FE10197F1F700C0000086E00E94E508F1
:10104A0095ED9A95F1F700008FE00E94E50884E19A
:10105A000E94E50825ED2A95F1F7000081E00E943B
:10106A00E5088FEF93EC29E0815090402040E1F7AA
:06107A0000C00000089513
:10108000CF93DF93EC010E94090B80918D06909124
:101090008E06892B31F480E690E090938E06809343
:1010A0008D062097C9F080918F06909190069E0141
:1010B000280F391F2B3D45E0340788F4821793072A
:1010C00088F4C0918D06D0918E06C80FD91F309339
:1010D000900620938F0608C0C0E0D0E005C0C0E0B5
:1010E000D0E002C0C0E0D0E00E947701CE01DF91E5
:0410F000CF910895FF
:1010F400CF93C0E010C08C2F90E09C01220F331FCF
:10110400220F331F220F331F820F931F845C994FCA
:101114000E94D20ACF5FC43070F384E896E00E9444
:10112400D20A8BE796E00E94D20A82E796E00E94F8
:10113400D20A89E696E00E94D20A80E696E00E94EE
:10114400D20A84E896E090939E0680939D068BE7EE
:0E11540096E090939C0680939B06CF910895A1
:101162009BB39F70282F207F922B9BBB98B39260DA
:1011720098BB98B39B7F98BB98B3986098BBEFE9F4
:10118200FFE03197F1F700C0000098B3977F98BB5A
:101192002BB3F0E18F9FC0011124922F9F70892BF6
:1011A2008BBB88B3826088BB88B38B7F88BB88B3D4
:1011B200886088BB8FE99FE00197F1F700C00000CB
:0811C20088B3877F88BB089504
:1011CA009BB39F70282F207F922B9BBB98B39D7F48
:1011DA0098BB98B39B7F98BB98B3986098BBEFE98C
:1011EA00FFE03197F1F700C0000098B3977F98BBF2
:1011FA002BB3F0E18F9FC0011124922F9F70892B8E
:10120A008BBB88B38D7F88BB88B38B7F88BB88B341
:10121A00886088BB8FE99FE00197F1F700C0000062
:08122A0088B3877F88BB08959B
:10123200CF93DF93EB01488159814F3F2FEF520744
:1012420021F4FC01A781B0850DC0DC01139601C019
:10125200DF011296ED91FC911397208131814217A3
:101262005307B0F71296ED91FC911397FB83EA8333
:10127200D583C483BD83AC831396DC93CE9312973C
:1012820099878887FC0120812F5F2083DF91CF918E
:021292000895BD
:101294000E94F80AA0919F06B091A006CD91CDBFFF
:1012A400DD91DEBFFF91EF91DF91CF91BF91AF91BF
:1012B4009F918F917F916F915F914F913F912F916A
:1012C4001F910F91FF90EF90DF90CF90BF90AF9060
:1012D4009F908F907F906F905F904F903F902F9052
:0E12E4001F900F900FBE0F90089581E00895A7
:1012F200CF92DF92EF920F931F930F2EF3E9CF2E2F
:10130200F6E0DF2EF02DE12C00E010E025E530E0E4
:101312004EEA50E060E086E19BE00E94DC0481300E
:1013220081F4F8948FEF9FEF909396068093950641
:1013320081E08093A50610929A06109299060E9467
:0E1342004A091F910F91EF90DF90CF90089510
:10135000CF93DF93FC01A085B185C281D3818481C5
:1013600095819D838C83C481D581828193819B8368
:101370008A8311968D919C911297E817F90731F4A1
:101380008481958112969C938E9311971186108675
:0E1390008C9181508C938C91DF91CF910895B8
:10139E00CF93DF931CC00FB6F8940F92E0916E06B8
:1013AE00F0916F06C681D781CE0102960E94A809E0
:1013BE008091A70681508093A7068091A806815040
:1013CE008093A8060F900FBECE010E94E00A809176
:0C13DE00A8068111E0CFDF91CF910895A7
:1013EA00CF92DF92EF92CF936B01E82EC0E009C053
:1013FA000E94B1088FE99FE00197F1F700C0000051
:10140A00CF5FAE2DC6018C0F911DA11DFC018491E9
:10141A00A7FD80818111ECCFCF91EF90DF90CF9023
:02142A00089523
:10142C00CF93DF939C01FB01DC011196CD91DC91F4
:10143C001297D383C2838C819D81958384838C8105
:10144C009D81DC0113967C936E9312977D836C8344
:10145C0031872087F90180818F5F8083DF91CF9165
:02146C000895E1
:10146E00E0919D06F0919E068081811107C08FEF5D
:10147E009FEF90939606809395060895E0919D06B2
:10148E00F0919E060580F681E02D808191819093EA
:08149E0096068093950608955F
:1014A60081E30E94B10880ED97E00E94980A2FEF31
:1014B6003FEF47E050E061E070E080919106909147
:1014C60092060E94B70580E090E00E94D706E8CF1A
:1014D600E0919F06F091A00684859585E0919F0690
:1014E600F091A006A0919F06B091A00656964C9149
:0E14F60024E030E0241B310935872487089557
:101504002FEF3FEF47E050E064E070E080919106F8
:10151400909192060E94B70587709927892B81F3D1
:0C15240064EB70E080E00E94F509EACF63
:10153000CF93DF93EC01892B49F00E94090B60E007
:10154000CE010E94F2020E94770101C080E0811169
:0C15500002C00E947E06DF91CF9108953A
:10155C00CF93DF938BE090E00E944008EC01009762
:10156C0031F0FC0111921192CF010E94D20ACE01EE
:06157C00DF91CF910895FC
:101582002FEF3FEF47E050E062E070E0809191067C
:10159200909192060E94B70580E090E00E94D706E3
:0215A200EFCF89
:1015A400FC010396928381832FEF3FEF34832383DF
:0C15B400968385839087878310820895BA
:1015C000CF93DF93EC018F89988D0E941D0BCE0184
:0A15D0000E941D0BDF91CF910895DA
:1015DA00EC010E941F0B0E941E0BCE010E94200BE1
:0615EA00CE010E941B0B64
:1015F0001BBC89EF8ABD8BE08EBD89B7806189BF36
:0216000008954B
:1016020057FD03C065917591089561917191089597
:0C1612008091A1068F5F8093A1060895CF
:08161E00FC01118610860895FD
:061626000E942206189547
:06162C000E94CF09FDCF72
:041632000C94000014
:041636000E945500B9
:02163A00089511
:02163C0008950F
:02163E0008950D
:0216400008950B
:00000001FF
