:100000000C942D000C94770D0C94770D0C94770DB7
:100010000C94770D0C94770D0C94770D0C94E40BE5
:100020000C94770D0C94770D0C94770D0C94770D40
:100030000C94770D0C94770D0C94770D0C94770D30
:100040000C94770D0C94770D0C94770D0C94770D20
:100050000C94770D006006AD800011241FBECFE523
:10006000D8E0DEBFCDBFE4E5F0E040E017C0B591D9
:10007000A59135912591059107FD0CC0959185912C
:10008000EF01F92FE82F05900D92A217B307D9F7CA
:10009000FE0104C01D92A217B307E1F7E935F4078A
:0E00A00031F70E9484050C94360DF894FFCFC2
:1000AE0048310048320053656E6465723100536505
:0F00BE006E646572320052656365697665720023
:0600CD0049444C4500030C
:1000D4000F931F93CF93DF938091A5068111D8C00E
:1000E400C0919D06D0919E068E010F5F1F4F109305
:1000F4009E0600939D0601151105B9F48091A10691
:100104009091A20620919F063091A0063093A206FA
:100114002093A1069093A00680939F068091A70642
:100124008F5F8093A7060E94450C80919906909159
:100134009A060817190708F4B4C0E091A106F091D3
:10014400A2068081811107C08FEF9FEF90939A06DA
:1001540080939906A6C0E091A106F091A2060580BD
:10016400F681E02D0680F781E02D828193810817C6
:10017400190728F490939A068093990692C0A28551
:10018400B3858481958126813781EC013D832C835D
:100194008681978124813581EC013B832A831196E2
:1001A4008D919C9112979F012E5F3F4F8217930769
:1001B40031F48681978112969C938E9311971386BE
:1001C40012868C9181508C93A489B589109711F172
:1001D4008685978540895189EC015D834C838089AC
:1001E400918946855785EC015B834A8311964D912D
:1001F4005C911297CF010C964817590731F4808906
:10020400918912969C938E931197158A148A8C91D6
:1002140081508C9386899091AA06981710F4809344
:10022400AA0690E0DC01AA0FBB1FAA0FBB1FAA0FEE
:10023400BB1F8A0F9B1FDC01AE5BB94F11960D905B
:10024400BC91A02DB583A48314968D919C91159790
:100254009783868314968D919C911597EC013B832B
:100264002A8315963C932E931497A689B0E0CD016A
:10027400880F991F880F991F880F991FA80FB91FFE
:10028400AE5BB94FB387A2878C918F5F8C9355CFA8
:1002940080919B0690919C06019690939C06809376
:0E02A4009B0680E0DF91CF911F910F9108958E
:1002B200CF93DF930FB6F8940F928091A5068150E9
:1002C2008093A5068091A5068111B9C08091AB06E5
:1002D200811196C0B4C0E0917D06F0917E06068041
:1002E200F781E02DA489B589C685D7858089918952
:1002F2009D838C83C089D189868597859B838A83D8
:1003020011962D913C911297CF010C96281739071F
:1003120031F48089918912969C938E931197158A54
:10032200148A8C9181508C93A285B385C481D58126
:10033200868197819D838C83C681D78184819581B3
:100342009B838A8311968D919C9112979F012E5FB8
:100352003F4F8217930731F48681978112969C93BF
:100362008E931197138612868C9181508C93868975
:100372009091AA06981710F48093AA0690E0DC01E7
:10038200AA0FBB1FAA0FBB1FAA0FBB1F8A0F9B1F5F
:10039200DC01AE5BB94F11960D90BC91A02DB583D7
:1003A200A48314968D919C911597978386831496B6
:1003B200CD91DC9115973B832A8315963C932E931E
:1003C2001497A689B0E0CD01880F991F880F991F55
:1003D200880F991FA80FB91FAE5BB94FB387A287C9
:1003E2008C918F5F8C939689A091A306B091A406FD
:1003F20056968C91981730F081E08093A80602C03F
:10040200E0E0F0E080917806811165CFEF2B11F0EA
:100412000E94450CC0919B06D0919C06209769F0E2
:100422000E946A00882319F081E08093A806219730
:10043200B9F710929C0610929B068091A8060F9025
:0A0442000FBE80E0DF91CF91089516
:10044C00CF93DF93A82FCB010596A11DFC015A2F4A
:10045C000E94540DDB011696ED91FC911797A4891F
:10046C00B589C685D785808991899D838C83C08900
:10047C00D189868597859B838A8311968D919C91D2
:10048C0012979F01245F3F4F8217930731F48089A5
:10049C00918912969C938E931197158A148A8C913C
:1004AC0081508C938091A506811160C0A285B38583
:1004BC00C481D581868197819D838C83C681D781A8
:1004CC00848195819B838A8311968D919C9112973F
:1004DC009F012E5F3F4F8217930731F486819781DE
:1004EC0012969C938E931197138612868C91815041
:1004FC008C9386899091AA06981710F48093AA067B
:10050C0090E0DC01AA0FBB1FAA0FBB1FAA0FBB1FD9
:10051C008A0F9B1FDC01AE5BB94F11960D90BC91FD
:10052C00A02DB583A48314968D919C9115979783D8
:10053C0086831496CD91DC9115973B832A8315966F
:10054C003C932E931497A689B0E0CD01880F991F88
:10055C00880F991F880F991FA80FB91FAE5BB94F51
:10056C00B387A2878C918F5F8C931CC048E756E0B1
:10057C00DA011196CD91DC911297D787C6878C81C1
:10058C009D81918B808B8C819D81DC0113963C939A
:10059C002E9312973D832C83558B448BDA018C91CF
:1005AC008F5F8C939689E091A306F091A4068689BF
:1005BC00891720F481E08093A80601C080E0DF91C8
:0405CC00CF9108952E
:1005D0006F927F928F92EF92FF920F931F93CF9320
:1005E000DF9300D000D00F92CDB7DEB77C013A0187
:1005F000862E3D832C8310E00FB6F8940F92F701FE
:10060000928D838D981710F0023029F5F701128D25
:10061000202F682DA301C7010E942608F701878DAE
:1006200090A1892B49F0023011F4111110C0B701CB
:1006300080E80E94DA070BC0F7018189882339F02E
:10064000F1E1EF0EF11CB70180E80E9426020F9045
:100650000FBE81E04DC08C819D81892B21F40F90CC
:100660000FBE80E045C0111105C0CE0101960E9469
:100670002B0D11E00F900FBE0E945C0D0FB6F89489
:100680000F92F701858D8F3F09F4158EF701868D46
:100690008F3F09F4168E0F900FBEBE016C5F7F4F27
:1006A000CE0101960E94370981111CC0B70180E874
:1006B0000E94290C882381F06C817D81C7010896F6
:1006C0000E94FE0CC7010E946F080E94590181110F
:1006D00093CF0E942D0790CFC7010E946F080E9400
:1006E00059018ACFC7010E946F080E94590180E01A
:1006F0000F900F900F900F900F90DF91CF911F915F
:0E0700000F91FF90EF908F907F906F90089573
:10070E00CF92DF92EF92FF920F931F93CF93DF93CF
:10071E0000D000D00F92CDB7DEB78C016B015D8398
:10072E004C83E12C0FB6F8940F92F801F28CFF2057
:10073E00A1F0B601C8010E94610CFA94F801F28E84
:10074E008085882331F0085F1F4FB80180E80E9432
:10075E0026020F900FBE81E055C08C819D81892BA2
:10076E0021F40F900FBE80E04DC0E11006C0CE0107
:10077E0001960E942B0DEE24E3940F900FBE0E9463
:10078E005C0D0FB6F8940F92F801858D8F3F09F42A
:10079E00158EF801868D8F3F09F4168E0F900FBEC1
:1007AE00BE016C5F7F4FCE0101960E943709811109
:1007BE001CC0B80180E80E94EB0C882381F06C818C
:1007CE007D81C80141960E94FE0CC8010E946F08EF
:1007DE000E9459018111A6CF0E942D07A3CFC801F7
:1007EE000E946F080E9459019DCFC8010E946F0898
:1007FE000E945901B80180E80E94EB0C882309F48D
:10080E0091CF80E00F900F900F900F900F90DF918F
:10081E00CF911F910F91FF90EF90DF90CF900895A1
:10082E00FF920F931F93CF93DF93EC01F62E00915F
:10083E009D0610919E068091A3069091A4060296A5
:10084E000E944D0BCF3F8FEFD807B1F5FF20A1F1DE
:10085E00E6E6F6E0A181B281C091A306D091A4068E
:10086E00BD83AC83C091A306D091A40614968D913E
:10087E009C9115979F838E831496CD91DC9115973D
:10088E008091A3069091A40602969B838A83809101
:10089E00A3069091A406029615969C938E93149798
:1008AE00A091A306B091A4061B96FC93EE931A9703
:1008BE0080818F5F80832FC0C00FD11FE091A30670
:1008CE00F091A406D383C283C017D10768F4609158
:1008DE00A3067091A40680919F069091A0066E5F6C
:1008EE007F4F0E94BE0A17C06091A3067091A406A6
:1008FE008091A1069091A2066E5F7F4F0E94BE0A64
:10090E008091990690919A06C817D90720F4D09332
:10091E009A06C0939906DF91CF911F910F91FF9088
:02092E0008952A
:10093000CF93DF93EC010FB6F8940F928091AB0642
:100940008F5F8093AB068091A3069091A406892BBC
:1009500059F4D093A406C093A3068091AB068130CE
:1009600099F40E94EB0910C08091A90681110CC076
:10097000E091A306F091A40696898E89891720F04C
:10098000D093A406C093A3068091A6068F5F8093A0
:10099000A6068E899091AA06981710F48093AA064D
:1009A00090E0FC01EE0FFF1FEE0FFF1FEE0FFF1F89
:1009B0008E0F9F1FFC01EE5BF94F0180F281E02D4D
:1009C000FD83EC83848195819F838E83A481B5818F
:1009D000CE01029613969C938E93129795838483EF
:1009E000EE89F0E0CF01880F991F880F991F880FBB
:1009F000991FE80FF91FEE5BF94FFB87EA878081AB
:100A00008F5F80830F900FBE8091A906882321F00D
:0E0A10008091A3069091A406DF91CF910895E6
:100A1E006F927F928F929F92AF92BF92CF92DF9200
:100A2E00EF92FF920F931F93CF93DF93CDB7DEB765
:100A3E003C01A62FCA01F4014789508D01501109BE
:100A4E00040F151F0097A105D1F41EC0272F30E00B
:100A5E00AC016A2F420F531F611D37FD6A95FA01D3
:100A6E00B49167FDB081F401E20FF31FB18FFA016B
:100A7E00249167FD2081222329F07F5F01C070E061
:100A8E00783020F3F40110A2F3E0FC1520F40F2EC1
:100A9E00F3E0CF2EF02DF401C68AC40102960E9417
:100AAE006C0DC4010C960E946C0DF401918680862B
:100ABE0084E090E08C19910995878487938A828AC5
:100ACE00A701B301C8010E946406F40191838083DB
:100ADE00A114B10419F0F50191828082DF91CF91BA
:100AEE001F910F91FF90EF90DF90CF90BF90AF903E
:0A0AFE009F908F907F906F900895F5
:100B0800CF92DF92EF920F931F930E94760940E0F5
:100B180062E085E00E94F608909365008093640087
:100B280040E062E085E00E94F608909361008093BF
:100B380060008AE00E94620D9093630080936200D7
:100B4800BC0180916400909165000E94AE0C609198
:100B580062007091630080916000909161000E9432
:100B6800AE0C8091640090916500892B91F1809181
:100B7800600090916100892B61F1809162009091F1
:100B88006300892B31F1C12CD12CEE24E39400E0D1
:100B980010E028E730E044EB50E060E08AE99BE0B1
:100BA8000E94F50528E730E04CEB50E060E08FEB61
:100BB8009BE00E94F5056894EE24E1F828E730E010
:100BC80044EC50E060E08AE89AE00E94F5050E9453
:100BD8001E0B81E090E01F910F91EF90DF90CF9076
:020BE80008956E
:100BEA004F925F926F927F928F929F92AF92BF9233
:100BFA00CF92DF92EF92FF920F931F93CF93DF93DF
:100C0A0000D000D00F92CDB7DEB73C0149835A839A
:100C1A006B8349012801C9010E94B1098C01892B02
:100C2A00B9F086E290E00E94B1099D838C83892BFA
:100C3A0059F086E2EC81FD8111928A95E9F7EC81FF
:100C4A00FD81108F078B06C0C8010E947B0D02C070
:100C5A001D821C828C819D81892BD1F0840120E028
:100C6A0030E01F921F921F928C809D805601CE2CDD
:100C7A00720149815A816B81C3010E940F058C81DF
:100C8A009D810E9498040F900F900F9081E001C0FF
:100C9A008FEF0F900F900F900F900F90DF91CF91E1
:100CAA001F910F91FF90EF90DF90CF90BF90AF9080
:0E0CBA009F908F907F906F905F904F90089565
:100CC80031E1FC013083319722E220833197A3E39D
:100CD800A083319760833197708331971082319761
:100CE80060E8608331971082319762E060833197C2
:100CF80063E06083319764E06083319765E06083E7
:100D0800319766E06083319767E06083319768E0E8
:100D18006083319769E06083319760E16083319740
:100D28003083319732E13083319733E13083319723
:100D380034E13083319735E13083319736E13083C0
:100D4800319737E13083319738E13083319739E192
:100D58003083319730E23083319731E230833197F5
:100D68002083319723E22083319740833197508342
:100D7800319726E22083319727E22083319728E2B2
:100D88002083319729E22083319720E3208331970C
:080D980021E3208386970895F2
:100DA0000F931F93CF93DF93FC01362F892B09F408
:100DB0004AC0238D222309F448C0022F10E08FEF90
:100DC0009FEFB8010E94D70C448D842F90E06817E4
:100DD000790708F43CC0EF010FB6F8940F926081D8
:100DE0007181FB01249FE00DF11D1124FD83EC8333
:100DF0001A8E7B836A8301501109809FA001819F15
:100E0000500D909F500D1124CB01840F951F9F838F
:100E10008E838FEF8D8F8E8F311109C08885882347
:100E200071F02896BE0180E80E94260208C0CE011B
:100E300008960E94100DCE0141960E94100D0F9051
:100E40000FBE81E005C080E003C080E001C080E00B
:0A0E5000DF91CF911F910F910895DB
:100E5A000F920FB6F8940F921F9211242F923F927D
:100E6A004F925F926F927F928F929F92AF92BF92B0
:100E7A00CF92DF92EF92FF920F931F932F933F939C
:100E8A004F935F936F937F938F939F93AF93BF9388
:100E9A00CF93DF93EF93FF93A091A306B091A4069B
:100EAA000DB60D920EB60D920E948607A091A3066A
:100EBA00B091A406CD91CDBFDD91DEBFFF91EF9138
:100ECA00DF91CF91BF91AF919F918F917F916F9158
:100EDA005F914F913F912F911F910F91FF90EF904A
:100EEA00DF90CF90BF90AF909F908F907F906F9040
:100EFA005F904F903F902F901F900F900FBE0F90D2
:020F0A00089548
:100F0C008091A506882321F081E08093A80608959E
:100F1C001092A8062091AA0601C02150822F90E0C1
:100F2C00FC01EE0FFF1FEE0FFF1FEE0FFF1FE80F70
:100F3C00F91FEE5BF94F3081332379F3AC01440F89
:100F4C00551F440F551F440F551F480F591FDF01E4
:100F5C000180F281E02D0280F381E02D1296FC934A
:100F6C00EE9311974B5B594FE417F50729F4428127
:100F7C005381FD0152834183FC01EE0FFF1FEE0FE5
:100F8C00FF1FEE0FFF1F8E0F9F1FFC01EE5BF94F33
:100F9C000180F281E02D868197819093A406809345
:080FAC00A3062093AA06089594
:100FB400EF92FF920F931F93CF93DF9300D00F9282
:100FC400CDB7DEB769837A838B83A82FCB014F9685
:100FD400A11DFC015A2F0E94540DFB01928D838D9B
:100FE400981718F58B01E68CAE014F5F5F4F60E8F0
:100FF40020E0CF010E942608F82EFFEFEF120DC06B
:10100400F80181898823A9F0B8016F5E7F4F80E8D9
:101014000E94260281110BC00CC00E94740DE816B8
:1010240040F4E394F801E68E04C0F12C02C0FF24DE
:10103400F3948F2D0F900F900F90DF91CF911F910C
:081044000F91FF90EF90089559
:10104C000F931F93CF93DF93EC01022F1A8D2C8DEE
:10105C002223B9F1011116C030E08A819B810E94D4
:10106C00950C2C8D8A819B81820F911D9B838A8389
:10107C002C813D818217930720F1888199819B8374
:10108C008A831FC030E08E819F810E94950C8C8DCD
:10109C0090E09195819591092E813F81280F391F00
:1010AC003F832E83488159812417350730F42C81D6
:1010BC003D81820F931F9F838E83023011F4111197
:1010CC0011501F5F1A8F80E0DF91CF911F910F910C
:0210DC00089575
:1010DE001F93CF93DF93EC010FB6F8940F921E8DF2
:1010EE001AC08F8D98A1892B49F0BE0180E80E940D
:1010FE00DA07882379F00E94700D0CC08989882345
:10110E0061F0BE016F5E7F4F80E80E942602811162
:10111E000E94700D1150111624F38FEF8E8F0F90C9
:10112E000FBE0FB6F8940F921D8D0DC088858823C3
:10113E0061F0BE01685F7F4F80E80E942602811138
:10114E000E94700D115011168CF38FEF8D8F0F9032
:0A115E000FBEDF91CF911F9108959D
:101168000F931F93CF93DF938C01EB010E945C0DCB
:1011780040919D0650919E06F80120813181C90158
:101188008C0F9D1F4217530740F48217930768F48A
:101198004817590760F0C0E00FC08217930748F05E
:1011A8004817590740F0C0E007C0C0E005C0C1E0DB
:1011B80003C0C1E001C0C1E0F80191838083CC2362
:1011C80029F060E0841B950B0E9417040E945901C6
:1011D800811102C00E942D078C2FDF91CF911F91A2
:0411E8000F910895C6
:1011EC00DF92EF92FF920F931F93CF93DF93382FE1
:1011FC00E62F882329F1682F70E08FEF9FEF0E9474
:10120C00D70C8E2F90E068177907E8F03E9FC0014D
:10121C0011248F3D2FEF9207C8F4D42EDE2FC32F4D
:10122C0081960E94B1097C01009791F08C012D2DC3
:10123C00AC014F5D5F4F6D2F8C2F0E947C0C08C052
:10124C00E12CF12C05C0E12CF12C02C0E12CF12C8D
:10125C00C701DF91CF911F910F91FF90EF90DF901D
:02126C000895E3
:10126E001F93CF93DF930FB6F8940F92E0919D06E4
:10127E00F0919E06DC0111964D915C911297DF0163
:10128E00A41BB50BEB01288139812F3FDFEF3D0702
:10129E00F9F0EC011881C091A7061C1741F0E41774
:1012AE00F50728F0FB011182108281E012C0A2170F
:1012BE00B30748F4FB012A1B3B0B318320830E94AA
:1012CE002B0D80E006C0DB011D921C9281E001C057
:0E12DE0080E00F900FBEDF91CF911F91089519
:1012EC008FE087BB80EF8ABB2FEF83EF91E021501B
:1012FC0080409040E1F700C0000088E20E94560A4E
:10130C0025ED2A95F1F7000082E00E94560A8FE342
:10131C009FE10197F1F700C0000086E00E94560A99
:10132C0095ED9A95F1F700008FE00E94560A84E142
:10133C000E94560A25ED2A95F1F7000081E00E94E3
:10134C00560A8FEF93EC29E0815090402040E1F752
:06135C0000C0000008952E
:10136200CF93DF93EC010E945C0D809193069091E4
:101372009406892B31F486E690E09093940680934C
:1013820093062097C9F080919506909196069E014A
:10139200280F391F2B3D45E0340788F48217930745
:1013A20088F4C0919306D0919406C80FD91F309348
:1013B20096062093950608C0C0E0D0E005C0C0E0C4
:1013C200D0E002C0C0E0D0E00E945901CE01DF911E
:0413D200CF9108951A
:1013D600CF93C0E010C08C2F90E09C01220F331FEA
:1013E600220F331F220F331F820F931F8E5B994FDD
:1013F6000E94100DCF5FC43070F38AE896E00E9419
:10140600100D81E896E00E94100D88E796E00E9494
:10141600100D8FE696E00E94100D86E696E00E947B
:10142600100D8AE896E09093A2068093A10681E8C3
:0E14360096E09093A00680939F06CF910895B4
:101444009BB39F70282F207F922B9BBB98B39260F5
:1014540098BB98B39B7F98BB98B3986098BBEFE90F
:10146400FFE03197F1F700C0000098B3977F98BB75
:101474002BB3F0E18F9FC0011124922F9F70892B11
:101484008BBB88B3826088BB88B38B7F88BB88B3EF
:10149400886088BB8FE99FE00197F1F700C00000E6
:0814A40088B3877F88BB08951F
:1014AC009BB39F70282F207F922B9BBB98B39D7F63
:1014BC0098BB98B39B7F98BB98B3986098BBEFE9A7
:1014CC00FFE03197F1F700C0000098B3977F98BB0D
:1014DC002BB3F0E18F9FC0011124922F9F70892BA9
:1014EC008BBB88B38D7F88BB88B38B7F88BB88B35D
:1014FC00886088BB8FE99FE00197F1F700C000007E
:08150C0088B3877F88BB0895B6
:10151400CF93DF9300D000D000D0CDB7DEB76FEF0C
:101524007FEF80916200909163000E94C30C209130
:101534006400309165008217930749F44FEF5FEF21
:10154400BE016F5F7F4FC9010E9487030FC02091C6
:101554006000309161008217930741F44FEF5FEF11
:10156400BE016F5F7F4FC9010E94870369817A8141
:081574008B810E94080CD3CF0B
:10157C00CF93DF93EB01488159814F3F2FEF5207F7
:10158C0021F4FC01A781B0850DC0DC01139601C0CC
:10159C00DF011296ED91FC91139720813181421756
:1015AC005307B0F71296ED91FC911397FB83EA83E6
:1015BC00D583C483BD83AC831396DC93CE931297EF
:1015CC0099878887FC0120812F5F2083DF91CF9141
:0215DC00089570
:1015DE000E944B0DA091A306B091A406CD91CDBF54
:1015EE00DD91DEBFFF91EF91DF91CF91BF91AF9172
:1015FE009F918F917F916F915F914F913F912F911D
:10160E001F910F91FF90EF90DF90CF90BF90AF9012
:10161E009F908F907F906F905F904F903F902F9004
:0E162E001F900F900FBE0F90089581E0089559
:10163C00CF92DF92EF920F931F930F2EF7E9CF2EDD
:10164C00F6E0DF2EF02DE12C00E010E025E530E097
:10165C004DEC50E060E087E69DE00E94F50581309E
:10166C0081F4F8948FEF9FEF90939A0680939906EC
:10167C0081E08093A90610929E0610929D060E940E
:0E168C00EF0A1F910F91EF90DF90CF9008951D
:10169A00CF93DF93FC01A085B185C281D381848178
:1016AA0095819D838C83C481D581828193819B831B
:1016BA008A8311968D919C911297E817F90731F454
:1016CA008481958112969C938E9311971186108628
:0E16DA008C9181508C938C91DF91CF9108956B
:1016E800CF93DF931CC00FB6F8940F92E091740665
:1016F800F0917506C681D781CE0102960E944D0BE6
:101708008091AB0681508093AB068091AC068150E6
:101718008093AC060F900FBECE010E941E0D8091E3
:0C172800AC068111E0CFDF91CF91089555
:10173400CF93DF9300D000D00F92CDB7DEB78EEAFF
:1017440090E0A0E089839A83AB830E94410D9D833E
:101754008C8360EA7FE0CE0104960E94B408AE0157
:101764004F5F5F4F60E800E02FEF3FEF8091640030
:0A177400909165000E94E802ECCF9E
:10177E00CF93DF9300D000D00F92CDB7DEB781EBC1
:10178E0090E0A0E089839A83AB830E94410D9D83F4
:10179E008C8360ED77E0CE0104960E94B408AE0112
:1017AE004F5F5F4F60E800E02FEF3FEF80916000EA
:0A17BE00909161000E94E802ECCF58
:1017C8001F920F920FB60F9211242F933F934F93AE
:1017D8005F936F937F938F939F93AF93BF93EF9391
:1017E800FF930E946A00FF91EF91BF91AF919F9183
:1017F8008F917F916F915F914F913F912F910F90B2
:081808000FBE0F901F90189510
:10181000CF92DF92EF92CF936B01E82EC0E009C028
:101820000E94220A8FE99FE00197F1F700C00000B3
:10183000CF5FAE2DC6018C0F911DA11DFC018491BF
:10184000A7FD80818111ECCFCF91EF90DF90CF90F9
:021850000895F9
:101852000FB6F8940F929B01482F265E3F4F4F4FD1
:10186200F901249147FD2081A82FCB014B96A11DA0
:10187200FC018491A7FD8081281302C081E001C090
:0818820080E00F900FBE0895F5
:10188A00E091A106F091A2068081811107C08FEF35
:10189A009FEF90939A06809399060895E091A10686
:1018AA00F091A2060580F681E02D808191819093C6
:0818BA009A0680939906089537
:1018C200FC01248D2223B1F030E046815781420F82
:1018D200531F57834683848195814817590720F007
:1018E2008081918197838683CB014681578160E80D
:0618F2000E94950C089510
:1018F8000F931F93CF93DF93E801611103C01983FE
:10190800088302C0598348838B8F6C8F61E0CE01B6
:101918000E94D00618A21F8EDF91CF911F910F91C0
:02192800089520
:10192A00CF92DF92EF926A01E62EDC01280F391F6F
:10193A00A217B30751F0F6014491E7FC40814D9399
:10194A004FEFC41AD40AE40AF3CFEF90DF90CF9096
:02195A000895EE
:10195C000FB6F8940F92FC01278D30A1232B39F48C
:10196C00228D211106C070A3678F81E003C080E037
:0A197C0001C080E00F900FBE089537
:10198600CF93DF9300D0CDB7DEB7AB011A821982B1
:10199600BE016F5F7F4F0E94870389819A810F90F6
:0819A6000F90DF91CF9108952D
:1019AE00AA1BBB1B51E107C0AA1FBB1FA617B70777
:1019BE0010F0A61BB70B881F991F5A95A9F7809593
:0819CE009095BC01CD010895C4
:1019D6000FB6F8940F92A82FCB014A96A11DFC01D1
:1019E6008491A7FD8081811102C081E001C080E061
:0619F6000F900FBE0895E2
:1019FC00CF93DF93EB016091A3067091A406645F13
:101A0C007F4F0E94BE0A61E0CE010E941704DF9155
:041A1C00CF910895C9
:101A2000FC010396928381832FEF3FEF348323835E
:0C1A300096838583908787831082089539
:101A3C00CF93DF93EC018F89988D0E947B0DCE01A3
:0A1A4C000E947B0DDF91CF910895F9
:101A56002091A706FC01208320919D0630919E06C9
:061A660032832183089584
:101A6C00EC010E947D0D0E947C0DCE010E947E0D2A
:061A7C00CE010E94790D6D
:101A82000FB6F8940F9280919D0690919E060F904A
:041A92000FBE0895E6
:101A96001BBC89EF8ABD8BE08EBD89B7806189BF8B
:021AA6000895A1
:101AA80057FD03C0659175910895619171910895ED
:0C1AB8008091A5068F5F8093A50608951D
:0A1AC40040E062E00E94F608089579
:0A1ACE000E94740B0E942D07FBCF4D
:081AD800FC011186108608953F
:081AE00081E08093A80608953F
:061AE8008091AB06089599
:041AEE000C94000054
:041AF2000E945500F9
:021AF600089551
:021AF80008954F
:021AFA0008954D
:021AFC0008954B
:00000001FF
