:100000000C9436000C941E110C941E110C941E11AD
:100010000C941E110C941E110C941E110C941511AD
:100020000C941E110C941E110C941E110C941E1194
:100030000C941E110C941E110C941E110C941E1184
:100040000C941E110C941E110C941E110C941E1174
:100050000C941E11000400042F0434044A0400040C
:1000600000042F043404006006C9800011241FBE60
:10007000CFE5D8E0DEBFCDBFE6E6F0E040E017C058
:10008000B591A59135912591059107FD0CC09591EC
:100090008591EF01F92FE82F05900D92A217B30774
:1000A000D9F7FE0104C01D92A217B307E1F7EB36A2
:1000B000F40731F70E9478090C94D010F894FFCF20
:1000C0004F6E65004F6E6553686F74004175746FB5
:0700D00052656C6F616400D2
:0800D700546D722053766300A2
:0600DF0049444C450003FA
:1000E6000F931F93CF93DF938091C106811101C1B6
:1000F600C091AF06D091B0068E010F5F1F4F1093CF
:10010600B0060093AF0601151105B9F48091B30648
:100116009091B4062091B1063091B2063093B406A0
:100126002093B3069093B2068093B1068091C306DE
:100136008F5F8093C3060E94C70F8091AB06909194
:10014600AC060817190720F480E0B8C081E001C0AA
:1001560080E0E091B306F091B4069081911107C05A
:100166002FEF3FEF3093AC062093AB06A7C0E0918C
:10017600B306F091B4060580F681E02D0680F7817E
:10018600E02D228133810217130728F43093AC0641
:100196002093AB0693C0A285B38524813581468121
:1001A6005781E9015D834C832681378144815581DE
:1001B600E9015B834A8311962D913C911297AF0119
:1001C6004E5F5F4F2417350731F42681378112962B
:1001D6003C932E931197138612869C9191509C9373
:1001E600A489B589109719F12685378560897189A3
:1001F600E9017D836C832089318966857785E901EC
:100206007B836A8311966D917C9112979F01245F7F
:100216003F4F6217730731F42089318912963C9358
:100226002E931197158A148A9C9191509C93268936
:100236009091C606921710F42093C60630E0D901B5
:10024600AA0FBB1FAA0FBB1FAA0FBB1F2A0F3B1F5C
:10025600D901AE5BB94F11960D90BC91A02DB58317
:10026600A48314962D913C91159737832683149673
:100276002D913C911597E9015B834A8315965C9312
:100286004E931497A689B0E09D01220F331F220FCB
:10029600331F220F331FA20FB31FAE5BB94FB387B5
:1002A600A2879C919F5F9C932689E091B506F09169
:1002B600B6069689921708F449CF4BCFE091B5065A
:1002C600F091B606268930E0F901EE0FFF1FEE0F1A
:1002D600FF1FEE0FFF1F2E0F3F1FF901EE5BF94FB9
:1002E6009081923008F081E09091C40691110CC083
:1002F6000CC08091AD069091AE0601969093AE0625
:100306008093AD0680E001C081E0DF91CF911F911F
:040316000F910895A6
:10031A00CF93DF930FB6F8940F928091C106815064
:10032A008093C1068091C1068111BFC08091C70622
:10033A00811196C0BDC0E0917D06F0917E060680CF
:10034A00F781E02DA489B589C685D78580899189E9
:10035A009D838C83C089D189868597859B838A836F
:10036A0011962D913C911297CF010C9628173907B7
:10037A0031F48089918912969C938E931197158AEC
:10038A00148A8C9181508C93A285B385C481D581BE
:10039A00868197819D838C83C681D781848195814B
:1003AA009B838A8311968D919C9112979F012E5F50
:1003BA003F4F8217930731F48681978112969C9357
:1003CA008E931197138612868C9181508C9386890D
:1003DA009091C606981710F48093C60690E0DC0147
:1003EA00AA0FBB1FAA0FBB1FAA0FBB1F8A0F9B1FF7
:1003FA00DC01AE5BB94F11960D90BC91A02DB5836F
:10040A00A48314968D919C9115979783868314964D
:10041A00CD91DC9115973B832A8315963C932E93B5
:10042A001497A689B0E0CD01880F991F880F991FEC
:10043A00880F991FA80FB91FAE5BB94FB387A28760
:10044A008C918F5F8C939689A091B506B091B60670
:10045A0056968C91981730F081E08093C40602C0BA
:10046A00E0E0F0E080917806811165CFEF2B11F082
:10047A000E94C70FC091AD06D091AE06209769F0D1
:10048A000E947300882319F081E08093C4062197A3
:10049A00B9F71092AE061092AD068091C406882371
:1004AA0031F00E94CB0881E003C080E001C080E007
:0A04BA000F900FBEDF91CF9108955F
:1004C400CF93DF93A82FCB010596A11DFC015A2FD2
:1004D4000E94EE10DB011696ED91FC911797A4890A
:1004E400B589C685D785808991899D838C83C08988
:1004F400D189868597859B838A8311968D919C915A
:1005040012979F01245F3F4F8217930731F480892C
:10051400918912969C938E931197158A148A8C91C3
:1005240081508C938091C106811160C0A285B385EE
:10053400C481D581868197819D838C83C681D7812F
:10054400848195819B838A8311968D919C911297C6
:100554009F012E5F3F4F8217930731F48681978165
:1005640012969C938E931197138612868C918150C8
:100574008C9386899091C606981710F48093C606CA
:1005840090E0DC01AA0FBB1FAA0FBB1FAA0FBB1F61
:100594008A0F9B1FDC01AE5BB94F11960D90BC9185
:1005A400A02DB583A48314968D919C911597978360
:1005B40086831496CD91DC9115973B832A831596F7
:1005C4003C932E931497A689B0E0CD01880F991F10
:1005D400880F991F880F991FA80FB91FAE5BB94FD9
:1005E400B387A2878C918F5F8C931CC048E756E039
:1005F400DA011196CD91DC911297D787C6878C8149
:100604009D81918B808B8C819D81DC0113963C9321
:100614002E9312973D832C83558B448BDA018C9156
:100624008F5F8C939689E091B506F091B606868922
:10063400891720F481E08093C40601C080E0DF9133
:04064400CF910895B5
:100648006F927F928F92EF92FF920F931F93CF93A7
:10065800DF9300D000D00F92CDB7DEB77C013A010E
:10066800862E3D832C8310E00FB6F8940F92F70185
:10067800928D838D981710F0023081F5F701128D55
:10068800202F682DA301C7010E94630AF701278D57
:1006980030A1232B69F0023011F411111BC0B701EE
:1006A80080E80E94170A8823A9F00E94CB0812C08C
:1006B800F7019189992359F0B7016F5E7F4F80E860
:1006C8000E946202882331F00E94CB0803C0811186
:1006D8000E94CB080F900FBE81E04DC08C819D8198
:1006E800892B21F40F900FBE80E045C0111105C081
:1006F800CE0101960E94C51011E00F900FBE0E9416
:10070800FC100FB6F8940F92F701858D8F3F09F40E
:10071800158EF701868D8F3F09F4168E0F900FBE48
:10072800BE016C5F7F4FCE0101960E94C30B811101
:100738001CC0B70180E80E94AB0F882381F06C8150
:100748007D81C70108960E946C10C7010E943D0B6D
:100758000E948D01811188CF0E94CB0885CFC701E7
:100768000E943D0B0E948D017FCFC7010E943D0B67
:100778000E948D0180E00F900F900F900F900F90C6
:10078800DF91CF911F910F91FF90EF908F907F9005
:040798006F900895C1
:10079C00EF92FF920F931F93CF93DF9300D000D073
:1007AC0000D0CDB7DEB77AC0898188230CF476C02F
:1007BC000C811D81D8011B968D919C911C97892BC6
:1007CC0021F0C80103960E94BD0ECE0106960E9430
:1007DC004F0F7C01E9818E2FEE0F990BAA0BBB0BEF
:1007EC00FC013197E930F10508F058C0E65DFF4F88
:1007FC000C940211F80183898160838B2A813B81DF
:10080C0065857685620F731FA701C8010E94100EC3
:10081C00882309F443C0D80153968C91539782FFD7
:10082C000DC06A817B811D968D919C911E97680FDE
:10083C00791FA701C8010E940A0F03C08E7FF8011F
:10084C00838BD8015196ED91FC915297C801099573
:10085C0025C0F80183898E7F838B20C0D8015396E5
:10086C008C915397816053968C9353976A817B81BB
:10087C001E967C936E931D976E0D7F1D9701A7019D
:10088C00C8010E94100E0AC0F801838981FD04C0C2
:10089C00C8010E94221102C08E7F838B40E050E081
:1008AC00BE016F5F7F4F8091BB069091BC060E948A
:1008BC006E04811179CF26960FB6F894DEBF0FBE69
:1008CC00CDBFDF91CF911F910F91FF90EF900895C5
:1008DC00CF92DF92EF92FF920F931F93CF93DF9300
:1008EC0000D000D00F92CDB7DEB78C016B015D83C9
:1008FC004C83E12C0FB6F8940F92F801F28CFF2088
:10090C00B9F0B601C8010E94E30FFA94F801F28E17
:10091C008085882349F0085F1F4FB80180E80E944A
:10092C00620281110E94CB080F900FBE81E055C06E
:10093C008C819D81892B21F40F900FBE80E04DC0DE
:10094C00E11006C0CE0101960E94C510EE24E3947E
:10095C000F900FBE0E94FC100FB6F8940F92F80186
:10096C00858D8F3F09F4158EF801868D8F3F09F424
:10097C00168E0F900FBEBE016C5F7F4FCE0101969D
:10098C000E94C30B81111CC0B80180E80E94591051
:10099C00882381F06C817D81C80141960E946C1086
:1009AC00C8010E943D0B0E948D018111A3CF0E94B2
:1009BC00CB08A0CFC8010E943D0B0E948D019ACF9D
:1009CC00C8010E943D0B0E948D01B80180E80E9475
:1009DC005910882309F48ECF80E00F900F900F9060
:1009EC000F900F90DF91CF911F910F91FF90EF908F
:0609FC00DF90CF9008958A
:100A0200FF920F931F93CF93DF93EC01F62E009189
:100A1200AF061091B0068091B5069091B606029687
:100A22000E94BD0ECF3F8FEFD807B1F5FF20A1F195
:100A3200E6E6F6E0A181B281C091B506D091B60694
:100A4200BD83AC83C091B506D091B60614968D9144
:100A52009C9115979F838E831496CD91DC91159767
:100A62008091B5069091B60602969B838A83809107
:100A7200B5069091B606029615969C938E9314979E
:100A8200A091B506B091B6061B96FC93EE931A9709
:100A920080818F5F80832FC0C00FD11FE091B50688
:100AA200F091B606D383C283C017D10768F4609170
:100AB200B5067091B6068091B1069091B2066E5F4E
:100AC2007F4F0E947F0D17C06091B5067091B606E8
:100AD2008091B3069091B4066E5F7F4F0E947F0DA6
:100AE2008091AB069091AC06C817D90720F4D09339
:100AF200AC06C093AB06DF91CF911F910F91FF908F
:020B0200089554
:100B0400CF93DF93EC010FB6F8940F928091C70650
:100B14008F5F8093C7068091B5069091B606892BA6
:100B240059F4D093B606C093B5068091C7068130B8
:100B340099F40E94770C10C08091C50681110CC0F5
:100B4400E091B506F091B60696898E89891720F052
:100B5400D093B606C093B5068091C2068F5F80938A
:100B6400C2068E899091C606981710F48093C60623
:100B740090E0FC01EE0FFF1FEE0FFF1FEE0FFF1FB3
:100B84008E0F9F1FFC01EE5BF94F0180F281E02D77
:100B9400FD83EC83848195819F838E83A481B581B9
:100BA400CE01029613969C938E9312979583848319
:100BB400EE89F0E0CF01880F991F880F991F880FE5
:100BC400991FE80FF91FEE5BF94FFB87EA878081D5
:100BD4008F5F80830F900FBE8091C506882351F0EC
:100BE400E091B506F091B60696898E89981710F4AF
:0A0BF4000E94CB08DF91CF91089515
:100BFE006F927F928F929F92AF92BF92CF92DF921F
:100C0E00EF92FF920F931F93CF93DF93CDB7DEB783
:100C1E003C01A62FCA01F4014789508D01501109DC
:100C2E00040F151F0097A105D1F41EC0272F30E029
:100C3E00AC016A2F420F531F611D37FD6A95FA01F1
:100C4E00B49167FDB081F401E20FF31FB18FFA0189
:100C5E00249167FD2081222329F07F5F01C070E07F
:100C6E00783020F3F40110A2F3E0FC1520F40F2EDF
:100C7E00F3E0CF2EF02DF401C68AC40102960E9435
:100C8E000D11C4010C960E940D11F40191868086FF
:100C9E0084E090E08C19910995878487938A828AE3
:100CAE00A701B301C8010E94E306F401918380837A
:100CBE00A114B10419F0F50191828082DF91CF91D8
:100CCE001F910F91FF90EF90DF90CF90BF90AF905C
:0A0CDE009F908F907F906F90089513
:100CE8004F925F926F927F928F929F92AF92BF9234
:100CF800CF92DF92EF92FF920F931F93CF93DF93E0
:100D080000D000D00F92CDB7DEB73C0149835A839B
:100D18006B8349012801C9010E943D0C8C01892B74
:100D2800B9F086E290E00E943D0C9D838C83892B6C
:100D380059F086E2EC81FD8111928A95E9F7EC8100
:100D4800FD81108F078B06C0C8010E94221102C0C6
:100D58001D821C828C819D81892BD1F0840120E029
:100D680030E01F921F921F928C809D805601CE2CDE
:100D7800720149815A816B81C3010E94FF058C81F0
:100D88009D810E9482050F900F900F9081E001C015
:100D98008FEF0F900F900F900F900F90DF91CF91E2
:100DA8001F910F91FF90EF90DF90CF90BF90AF9081
:0E0DB8009F908F907F906F905F904F90089566
:100DC60031E1FC013083319722E220833197A3E39E
:100DD600A083319760833197708331971082319762
:100DE60060E8608331971082319762E060833197C3
:100DF60063E06083319764E06083319765E06083E8
:100E0600319766E06083319767E06083319768E0E9
:100E16006083319769E06083319760E16083319741
:100E26003083319732E13083319733E13083319724
:100E360034E13083319735E13083319736E13083C1
:100E4600319737E13083319738E13083319739E193
:100E56003083319730E23083319731E230833197F6
:100E66002083319723E22083319740833197508343
:100E7600319726E22083319727E22083319728E2B3
:100E86002083319729E22083319720E3208331970D
:080E960021E3208386970895F3
:100E9E001F93CF93DF93CDB7DEB72A970FB6F89493
:100EAE00DEBF0FBECDBFAC01892B89F545C09A01BF
:100EBE00ADECBCEC0E948D10969587959695879516
:100ECE00969587959C01220F331F880F991F880FC7
:100EDE00991F880F991F820F931F9A01281B390B98
:100EEE00C901E1E0F0E0EC0FFD1FE10FF11D17FD70
:100EFE00FA95805D80839A010E948D10AC01569503
:100F0E00479556954795569547951F5F01C010E03A
:100F1E004115510561F611500CC0E1E0F0E0EC0F07
:100F2E00FD1FE10FF11D17FDFA9580810E94E40C63
:100F3E001150112394F703C080E30E94E40C2A960B
:100F4E000FB6F894DEBF0FBECDBFDF91CF911F91CC
:020F5E000895F4
:100F60000F931F93CF93DF93FC01362F892B09F446
:100F70004EC0238D222309F44CC0022F10E08FEFC6
:100F80009FEFB8010E944510448D842F90E06817B0
:100F9000790708F440C0EF010FB6F8940F92608112
:100FA0007181FB01249FE00DF11D1124FD83EC8371
:100FB0001A8E7B836A8301501109809FA001819F53
:100FC000500D909F500D1124CB01840F951F9F83CE
:100FD0008E838FEF8D8F8E8F31110DC08885882382
:100FE00091F02896BE0180E80E946202882359F0A1
:100FF0000E94CB0808C0CE0108960E949C10CE012A
:1010000041960E949C100F900FBE81E005C080E0C9
:1010100003C080E001C080E0DF91CF911F910F916C
:02102000089531
:10102200DF92EF92FF920F931F93CF93DF93E90129
:10103200FC01728D338D731710F00230C1F57E0101
:10104200EC011E8DDA8C202F0E94630A1F3F39F5B6
:101052008F8D98A1892B89F0023011F4D11029C00B
:10106200BE0180E80E94170A882329F1E114F104E5
:1010720021F181E0F701808329C089898823F9F071
:10108200CE014196BC0180E80E9462028823C9F029
:10109200E114F104C1F081E0F701808317C00E94DE
:1010A2001B11181790F41F5F1E8F81E00FC080E0A4
:1010B2000DC081E00BC081E009C081E007C081E082
:1010C20005C081E003C081E001C081E0DF91CF91E2
:0C10D2001F910F91FF90EF90DF900895A8
:1010DE000F920FB6F8940F921F9211242F923F92F7
:1010EE004F925F926F927F928F929F92AF92BF922A
:1010FE00CF92DF92EF92FF920F931F932F933F9316
:10110E004F935F936F937F938F939F93AF93BF9301
:10111E00CF93DF93EF93FF93A091B506B091B606F0
:10112E000DB60D920EB60D920E94730081110E94A3
:10113E002409A091B506B091B606CD91CDBFDD9133
:10114E00DEBFFF91EF91DF91CF91BF91AF919F9154
:10115E008F917F916F915F914F913F912F911F9141
:10116E000F91FF90EF90DF90CF90BF90AF909F9038
:10117E008F907F906F905F904F903F902F901F9029
:08118E000F900FBE0F900895B1
:101196000F920FB6F8940F921F9211242F923F923E
:1011A6004F925F926F927F928F929F92AF92BF9271
:1011B600CF92DF92EF92FF920F931F932F933F935D
:1011C6004F935F936F937F938F939F93AF93BF9349
:1011D600CF93DF93EF93FF93A091B506B091B60638
:1011E6000DB60D920EB60D920E942409A091B50679
:1011F600B091B606CD91CDBFDD91DEBFFF91EF91E7
:10120600DF91CF91BF91AF919F918F917F916F9118
:101216005F914F913F912F911F910F91FF90EF900A
:10122600DF90CF90BF90AF909F908F907F906F9000
:101236005F904F903F902F901F900F900FBE0F9092
:02124600089509
:101248008091C106882321F081E08093C406089527
:101258001092C4062091C60601C02150822F90E04A
:10126800FC01EE0FFF1FEE0FFF1FEE0FFF1FE80F31
:10127800F91FEE5BF94F3081332379F3AC01440F4A
:10128800551F440F551F440F551F480F591FDF01A5
:101298000180F281E02D0280F381E02D1296FC930B
:1012A800EE9311974B5B594FE417F50729F44281E8
:1012B8005381FD0152834183FC01EE0FFF1FEE0FA6
:1012C800FF1FEE0FFF1F8E0F9F1FFC01EE5BF94FF4
:1012D8000180F281E02D868197819093B6068093F4
:0812E800B5062093C606089527
:1012F000EF92FF920F931F930E94020C0F2EF6EFB6
:10130000EF2EF0E1FF2EF02D00E010E020E048EE9F
:1013100053E064EC70E080E00E94B00D90936300B5
:10132000809362000F2EF8E0EF2EF1E1FF2EF02DFA
:1013300021E044EF51E06CEC70E080E00E94B00DE1
:1013400090936500809364000E94DB1020E030E001
:10135000AC0161E080916200909163000E94C90934
:10136000809361000E94DB1020E030E0AC0161E07E
:1013700080916400909165000E94C909809360008B
:101380000E944C0D80E090E01F910F91FF90EF9034
:021390000895BE
:10139200EF92FF920F931F93CF93DF9300D000D071
:1013A2000F92CDB7DEB7E091BB06F091BC06309745
:1013B20081F1780169835B834A839D838C836630E4
:1013C200FCF40E94AA10823069F4AE014F5F5F4FB5
:1013D20060E800E097018091BB069091BC060E94F4
:1013E200240318C0AE014F5F5F4F60E800E020E0C9
:1013F20030E08091BB069091BC060E9424030AC093
:10140200AE014F5F5F4F60E800E0CF010E9411081C
:1014120001C080E00F900F900F900F900F90DF911E
:0C142200CF911F910F91FF90EF90089563
:10142E00EF92FF920F931F93CF93DF9300D00F9203
:10143E00CDB7DEB769837A838B83A82FCB014F9606
:10144E00A11DFC015A2F0E94EE10FB01928D838D7F
:10145E00981718F58B01E68CAE014F5F5F4F60E871
:10146E0020E0CF010E94630AF82EFFEFEF120DC0AD
:10147E00F80181898823A9F0B8016F5E7F4F80E85B
:10148E000E94620281110BC00CC00E941B11E81653
:10149E0040F4E394F801E68E04C0F12C02C0FF2460
:1014AE00F3948F2D0F900F900F90DF91CF911F918E
:0814BE000F91FF90EF900895DB
:1014C6000F931F93CF93DF93EC01022F1A8D2C8D70
:1014D6002223B9F1011116C030E08A819B810E9456
:1014E60017102C8D8A819B81820F911D9B838A8385
:1014F6002C813D818217930720F1888199819B83F6
:101506008A831FC030E08E819F810E9417108C8DC8
:1015160090E09195819591092E813F81280F391F81
:101526003F832E83488159812417350730F42C8157
:101536003D81820F931F9F838E83023011F4111118
:1015460011501F5F1A8F80E0DF91CF911F910F918D
:021556000895F6
:101558000F931F93CF93DF93FC018B01A181B2817D
:101568008091B5069091B606EC01BF87AE87809151
:10157800B5069091B60614962D913C911597EC01FD
:10158800398B288B14968D919C9115972091B506CF
:101598003091B606245F3F4FEC013B832A832091AC
:1015A800B5063091B606245F3F4F15963C932E93AF
:1015B8001497A091B506B091B6065596FC93EE9394
:1015C800549790819F5F9083442311F00FEF1FEF92
:1015D800642FC8010E940105DF91CF911F910F91DF
:0215E800089564
:1015EA00CF92DF92EF92FF921F93CF93DF930F92E6
:1015FA00CDB7DEB77C01162F0E94FC10CE010196F2
:10160A000E944F0F6C018981811127C011110AC0F4
:10161A00CE14DF0438F00E948D01B601C7010E9482
:10162A003F0E1DC0112341F0E091BD06F091BE06A8
:10163A00808111E0811110E0B7016C197D09412FF9
:10164A008091BB069091BC060E948E0F0E948D016C
:10165A00811105C00E94CB0802C00E948D010F9023
:10166A00DF91CF911F91FF90EF90DF90CF90089577
:10167A001F93CF93DF93EC010FB6F8940F921E8D50
:10168A001AC08F8D98A1892B49F0BE0180E80E946B
:10169A00170A882379F00E9411110CC089898823BE
:1016AA0061F0BE016F5E7F4F80E80E946202811185
:1016BA000E9411111150111624F38FEF8E8F0F9083
:1016CA000FBE0FB6F8940F921D8D0DC08885882322
:1016DA0061F0BE01685F7F4F80E80E94620281115B
:1016EA000E941111115011168CF38FEF8D8F0F90EC
:0A16FA000FBEDF91CF911F910895FC
:10170400DF92EF92FF920F931F93CF93DF93382FC3
:10171400E62F882329F1682F70E08FEF9FEF0E9456
:1017240045108E2F90E068177907E8F03E9FC001BE
:1017340011248F3D2FEF9207C8F4D42EDE2FC32F30
:1017440081960E943D0C7C01009791F08C012D2D17
:10175400AC014F5D5F4F6D2F8C2F0E94FE0F08C0B0
:10176400E12CF12C05C0E12CF12C02C0E12CF12C70
:10177400C701DF91CF911F910F91FF90EF90DF9000
:021784000895C6
:101786001F93CF93DF930FB6F8940F92E091AF06B5
:10179600F091B006DC0111964D915C911297DF0134
:1017A600A41BB50BEB01288139812F3FDFEF3D07E5
:1017B600F9F0EC011881C091C3061C1741F0E4173B
:1017C600F50728F0FB011182108281E012C0A217F2
:1017D600B30748F4FB012A1B3B0B318320830E948D
:1017E600C51080E006C0DB011D921C9281E001C09D
:0E17F60080E00F900FBEDF91CF911F910895FC
:101804008FE087BB80EF8ABB2FEF83EF91E02150FD
:1018140080409040E1F700C0000088E20E94180D6B
:1018240025ED2A95F1F7000082E00E94180D8FE360
:101834009FE10197F1F700C0000086E00E94180DB7
:1018440095ED9A95F1F700008FE00E94180D84E160
:101854000E94180D25ED2A95F1F7000081E00E9401
:10186400180D8FEF93EC29E0815090402040E1F770
:0618740000C00000089511
:10187A00CF93DF93EC010E94FC108091A506909112
:10188A00A606892B31F486E690E09093A60680930B
:10189A00A5062097C9F08091A7069091A8069E01F7
:1018AA00280F391F2B3D45E0340788F48217930728
:1018BA0088F4C091A506D091A606C80FD91F309307
:1018CA00A8062093A70608C0C0E0D0E005C0C0E083
:1018DA00D0E002C0C0E0D0E00E948D01CE01DF91CD
:0418EA00CF910895FD
:1018EE00CF93C0E010C08C2F90E09C01220F331FCD
:1018FE00220F331F220F331F820F931F8E5B994FC0
:10190E000E949C10CF5FC43070F38AE896E00E946C
:10191E009C1081E896E00E949C1088E796E00E9459
:10192E009C108FE696E00E949C1086E696E00E9440
:10193E009C108AE896E09093B4068093B30681E8F3
:0E194E0096E09093B2068093B106CF91089573
:10195C004F925F926F927F928F92BF92CF92DF9253
:10196C00EF92FF920F931F93CF93DF933B01882E3F
:10197C002A01B22EE6010E94940E688279828A8234
:10198C005E864D86188B0F87FA8AE98AC601039604
:10199C000E940D11BB2019F08B8984608B8BDF9119
:1019AC00CF911F910F91FF90EF90DF90CF90BF9050
:0C19BC008F907F906F905F904F90089587
:1019C8009BB39F70282F207F922B9BBB98B392606C
:1019D80098BB98B39B7F98BB98B3986098BBEFE986
:1019E800FFE03197F1F700C0000098B3977F98BBEC
:1019F8002BB3F0E18F9FC0011124922F9F70892B88
:101A08008BBB88B3826088BB88B38B7F88BB88B365
:101A1800886088BB8FE99FE00197F1F700C000005C
:081A280088B3877F88BB089595
:101A30009BB39F70282F207F922B9BBB98B39D7FD9
:101A400098BB98B39B7F98BB98B3986098BBEFE91D
:101A5000FFE03197F1F700C0000098B3977F98BB83
:101A60002BB3F0E18F9FC0011124922F9F70892B1F
:101A70008BBB88B38D7F88BB88B38B7F88BB88B3D3
:101A8000886088BB8FE99FE00197F1F700C00000F4
:081A900088B3877F88BB08952D
:101A9800CF92DF92EF920F931F930F2EF9EACF2E7A
:101AA800F6E0DF2EF02DE12C00E010E025E530E037
:101AB8004FED50E060E088E191E10E9474068130CA
:101AC80011F40E946A0E813081F4F8948FEF9FEF31
:101AD8009093AC068093AB0681E08093C506109284
:101AE800B0061092AF060E94E10D1F910F91EF9082
:061AF800DF90CF9008957D
:101AFE00CF93DF93EB01488159814F3F2FEF520770
:101B0E0021F4FC01A781B0850DC0DC01139601C044
:101B1E00DF011296ED91FC911397208131814217CE
:101B2E005307B0F71296ED91FC911397FB83EA835E
:101B3E00D583C483BD83AC831396DC93CE93129767
:101B4E0099878887FC0120812F5F2083DF91CF91B9
:021B5E000895E8
:101B60006F927F928F929F92AF92BF92CF92DF92AD
:101B7000EF92FF920F931F93CF93DF933B01882E39
:101B80005A01922E84E190E00E943D0CEC010097F6
:101B900041F01B8A6C01292DA501882DB3010E94FB
:101BA000AE0CCE01DF91CF911F910F91FF90EF907E
:101BB000DF90CF90BF90AF909F908F907F906F906D
:021BC000089586
:101BC2000E94E510A091B506B091B606CD91CDBFA9
:101BD200DD91DEBFFF91EF91DF91CF91BF91AF9188
:101BE2009F918F917F916F915F914F913F912F9133
:101BF2001F910F91FF90EF90DF90CF90BF90AF9029
:101C02009F908F907F906F905F904F903F902F901A
:0E1C12001F900F900FBE0F90089581E008956F
:101C2000FC0174836383928781874617570790F07E
:101C3000421B530B8585968548175907E0F4BF0171
:101C40006D5F7F4F8091BD069091BE060E947F0D13
:101C500080E008954217530718F46217730768F479
:101C6000BF016D5F7F4F8091BF069091C0060E94BB
:0E1C70007F0D80E0089581E0089581E00895E1
:101C7E00EF92FF920F931F93CF93DF938C017B0113
:101C8E00E091BF06F091C0060580F681E02DC68179
:101C9E00D781CE0103960E94BD0E8B8982FF06C0AE
:101CAE00A701B801CE010E940A0F02C08E7F8B8B56
:101CBE00E989FA89CE010995DF91CF911F910F9194
:061CCE00FF90EF90089565
:101CD400CF92DF92EF920F931F930E94940E809104
:101CE400BB069091BC06892BB1F00F2EF9EBCF2ED9
:101CF400F6E0DF2EF02D0F2EF3E0EF2EF02D00E0B6
:101D040010E025E530E047ED50E060E08EE790E13B
:101D14000E94740601C080E01F910F91EF90DF9044
:041D2400CF900895BF
:101D28000FB6F8940F928091BB069091BC06892B50
:101D3800E9F48CE996E00E949C1083E996E00E9401
:101D48009C108CE996E09093C0068093BF0683E9C7
:101D580096E09093BE068093BD0640E065E08AE079
:101D68000E94820B9093BC068093BB060F900FBE17
:021D78000895CC
:101D7A00CF93DF93FC01A085B185C281D381848191
:101D8A0095819D838C83C481D581828193819B8334
:101D9A008A8311968D919C911297E817F90731F46D
:101DAA008481958112969C938E9311971186108641
:0E1DBA008C9181508C938C91DF91CF91089584
:101DC800CF93DF931CC00FB6F8940F92E09174067E
:101DD800F0917506C681D781CE0102960E94BD0E8C
:101DE8008091C70681508093C7068091C8068150AC
:101DF8008093C8060F900FBECE010E94B810809144
:0C1E0800C8068111E0CFDF91CF91089552
:101E1400EF92FF920F931F93CF93DF93EC018B010B
:101E24007A0108C08D859E85080F191FE989FA89F2
:101E3400CE0109956D857E85600F711F9801A701FC
:101E4400CE010E94100E8111EDCFDF91CF911F9131
:081E54000F91FF90EF9008953B
:101E5C00CF92DF92EF92CF936B01E82EC0E009C0D6
:101E6C000E94E40C8FE99FE00197F1F700C000009D
:101E7C00CF5FAE2DC6018C0F911DA11DFC0184916D
:101E8C00A7FD80818111ECCFCF91EF90DF90CF90A7
:021E9C000895A7
:101E9E000F931F93CF93DF938C010E94DB10EC0105
:101EAE008091B7069091B806C817D90730F40E94F2
:101EBE00700F81E0F801808302C0F8011082D09388
:101ECE00B806C093B706CE01DF91CF911F910F9147
:021EDE00089565
:101EE00009C00580F681E02D6FEF7FEF8081918141
:101EF0000E943F0EE091BF06F091C00680818111E3
:101F0000F0CF8091BD069091BE069093C00680935D
:0C1F1000BF06F093BE06E093BD060895E6
:101F1C00CF93DF93EC010FB6F8940F928D8D8F3F1A
:101F2C0009F41D8E8E8D8F3F09F41E8E0F900FBEFF
:101F3C008A8D811104C0CE0141960E94AC0ACE015B
:0A1F4C000E943D0BDF91CF91089534
:101F56000FB6F8940F929B01482F265E3F4F4F4FC6
:101F6600F901249147FD2081A82FCB014B96A11D95
:101F7600FC018491A7FD8081281302C081E001C085
:081F860080E00F900FBE0895EA
:101F8E00E091B306F091B4068081811107C08FEF06
:101F9E009FEF9093AC068093AB060895E091B30645
:101FAE00F091B4060580F681E02D808191819093A9
:081FBE00AC068093AB06089508
:101FC600FC01248D2223B1F030E046815781420F77
:101FD600531F57834683848195814817590720F0FC
:101FE6008081918197838683CB014681578160E802
:061FF6000E94171008957F
:101FFC000F931F93CF93DF93E801611103C01983F3
:10200C00088302C0598348838B8F6C8F61E0CE01AB
:10201C000E94B00718A21F8EDF91CF911F910F91D4
:02202C00089515
:10202E00CF92DF92EF926A01E62EDC01280F391F64
:10203E00A217B30751F0F6014491E7FC40814D938E
:10204E004FEFC41AD40AE40AF3CFEF90DF90CF908B
:02205E000895E3
:10206000DC01E091BF06F091C006808191E0811112
:1020700090E09C93911106C00580F681E02D80814F
:0A2080009181089580E090E008953A
:10208A00AA1BBB1B51E107C0AA1FBB1FA617B70794
:10209A0010F0A61BB70B881F991F5A95A9F78095B0
:0820AA009095BC01CD010895E1
:1020B2000FB6F8940F92A82FCB014A96A11DFC01EE
:1020C2008491A7FD8081811102C081E001C080E07E
:0620D2000F900FBE0895FF
:1020D800CF93DF93EB016091B5067091B606645F0C
:1020E8007F4F0E947F0D61E0CE010E940105DF91C4
:0420F800CF910895E7
:1020FC00CF93DF930F92CDB7DEB7CE0101960E943E
:0E210C00301069810E94F50A0E94CE03F6CFC2
:10211A00A29FB001B39FC001A39F700D811D11241E
:0E212A00911DB29F700D811D1124911D08950D
:10213800FC010396928381832FEF3FEF348323833F
:0C2148009683858390878783108208951A
:102154008091C506882331F08091C106811104C0A5
:0C21640082E0089581E0089580E0089575
:10217000CF93DF93EC018F89988D0E942211CE01BD
:0A2180000E942211DF91CF91089513
:10218A002091C306FC0120832091AF063091B0064E
:06219A0032832183089549
:1021A000EC010E9424110E942311CE010E942511EE
:0621B000CE010E94201187
:1021B6000FB6F8940F928091AF069091B0060F90EB
:0421C6000FBE0895AB
:1021CA001BBC89EF8ABD8BE08EBD89B7806189BF50
:0221DA00089566
:1021DC0057FD03C0659175910895619171910895B2
:0C21EC0060EC70E080E00E942E0F08956F
:0C21F8008091C1068F5F8093C10608959E
:0C220400EE0FFF1F0590F491E02D0994EF
:0A22100082E090E00E944F0708955D
:08221A00FC01118610860895F5
:0822220081E08093C4060895D9
:06222A000E946F081895E8
:062230000E94E40EFDCF48
:062236008091C706089527
:04223C000C940000FE
:042240000E945E009A
:022244000895FB
:022246000895F9
:022248000895F7
:02224A000895F5
:00000001FF
